{
  "_format": "hh-sol-artifact-1",
  "contractName": "DerivativeContract",
  "sourceName": "contracts/DerivativeContract.sol",
  "abi": [
    {
      "inputs": [
        {
          "internalType": "address",
          "name": "_cropToken",
          "type": "address"
        },
        {
          "internalType": "uint256",
          "name": "_strikePrice",
          "type": "uint256"
        },
        {
          "internalType": "uint256",
          "name": "_expirationTime",
          "type": "uint256"
        }
      ],
      "stateMutability": "nonpayable",
      "type": "constructor"
    },
    {
      "anonymous": false,
      "inputs": [
        {
          "indexed": true,
          "internalType": "address",
          "name": "buyer",
          "type": "address"
        },
        {
          "indexed": false,
          "internalType": "uint256",
          "name": "payout",
          "type": "uint256"
        }
      ],
      "name": "DerivativeSettled",
      "type": "event"
    },
    {
      "anonymous": false,
      "inputs": [
        {
          "indexed": true,
          "internalType": "address",
          "name": "previousOwner",
          "type": "address"
        },
        {
          "indexed": true,
          "internalType": "address",
          "name": "newOwner",
          "type": "address"
        }
      ],
      "name": "OwnershipTransferred",
      "type": "event"
    },
    {
      "inputs": [],
      "name": "cropToken",
      "outputs": [
        {
          "internalType": "contract IERC20",
          "name": "",
          "type": "address"
        }
      ],
      "stateMutability": "view",
      "type": "function"
    },
    {
      "inputs": [],
      "name": "expirationTime",
      "outputs": [
        {
          "internalType": "uint256",
          "name": "",
          "type": "uint256"
        }
      ],
      "stateMutability": "view",
      "type": "function"
    },
    {
      "inputs": [],
      "name": "getCropTokenPrice",
      "outputs": [
        {
          "internalType": "uint256",
          "name": "",
          "type": "uint256"
        }
      ],
      "stateMutability": "view",
      "type": "function"
    },
    {
      "inputs": [],
      "name": "owner",
      "outputs": [
        {
          "internalType": "address",
          "name": "",
          "type": "address"
        }
      ],
      "stateMutability": "view",
      "type": "function"
    },
    {
      "inputs": [],
      "name": "renounceOwnership",
      "outputs": [],
      "stateMutability": "nonpayable",
      "type": "function"
    },
    {
      "inputs": [
        {
          "internalType": "address",
          "name": "buyer",
          "type": "address"
        }
      ],
      "name": "settleDerivative",
      "outputs": [],
      "stateMutability": "nonpayable",
      "type": "function"
    },
    {
      "inputs": [],
      "name": "strikePrice",
      "outputs": [
        {
          "internalType": "uint256",
          "name": "",
          "type": "uint256"
        }
      ],
      "stateMutability": "view",
      "type": "function"
    },
    {
      "inputs": [
        {
          "internalType": "address",
          "name": "newOwner",
          "type": "address"
        }
      ],
      "name": "transferOwnership",
      "outputs": [],
      "stateMutability": "nonpayable",
      "type": "function"
    }
  ],
  "bytecode": "0x608060405234801561001057600080fd5b506040516104aa3803806104aa83398101604081905261002f916100b4565b61003833610064565b600180546001600160a01b0319166001600160a01b0394909416939093179092556002556003556100f7565b600080546001600160a01b038381166001600160a01b0319831681178455604051919092169283917f8be0079c531659141344cd1fd0a4f28419497f9722a3daafe3b4186f6b6457e09190a35050565b6000806000606084860312156100c957600080fd5b83516001600160a01b03811681146100e057600080fd5b602085015160409095015190969495509392505050565b6103a4806101066000396000f3fe608060405234801561001057600080fd5b50600436106100885760003560e01c8063d33ec6351161005b578063d33ec635146100eb578063da284dcc146100fe578063f2fde38b14610107578063f80cd56c1461011a57600080fd5b8063715018a61461008d5780638da5cb5b14610097578063938ee11a146100c1578063c52987cf146100d4575b600080fd5b610095610121565b005b6000546001600160a01b03165b6040516001600160a01b0390911681526020015b60405180910390f35b6100956100cf366004610317565b610135565b6100dd60025481565b6040519081526020016100b8565b6001546100a4906001600160a01b031681565b6100dd60035481565b610095610115366004610317565b6101f4565b60966100dd565b61012961026d565b61013360006102c7565b565b61013d61026d565b600354421161018c5760405162461bcd60e51b815260206004820152601660248201527511195c9a5d985d1a5d99481b9bdd08195e1c1a5c995960521b60448201526064015b60405180910390fd5b6002546096906000908211156101ac576002546101a99083610347565b90505b826001600160a01b03167f226c701f373d12df09de601244ebd4384b8f19008b1cfec73133989498c6682a826040516101e791815260200190565b60405180910390a2505050565b6101fc61026d565b6001600160a01b0381166102615760405162461bcd60e51b815260206004820152602660248201527f4f776e61626c653a206e6577206f776e657220697320746865207a65726f206160448201526564647265737360d01b6064820152608401610183565b61026a816102c7565b50565b6000546001600160a01b031633146101335760405162461bcd60e51b815260206004820181905260248201527f4f776e61626c653a2063616c6c6572206973206e6f7420746865206f776e65726044820152606401610183565b600080546001600160a01b038381166001600160a01b0319831681178455604051919092169283917f8be0079c531659141344cd1fd0a4f28419497f9722a3daafe3b4186f6b6457e09190a35050565b60006020828403121561032957600080fd5b81356001600160a01b038116811461034057600080fd5b9392505050565b8181038181111561036857634e487b7160e01b600052601160045260246000fd5b9291505056fea26469706673582212204ebcd569986a2dc7aebd2bc4e9412e0626749d1d735e971c059ab13ba2fa97a564736f6c63430008130033",
  "linkReferences": {},
  "deployedLinkReferences": {}
}