{
  "_format": "hh-sol-artifact-1",
  "contractName": "DAFIFlashLoan",
  "sourceName": "contracts/DAFIFlashLoan.sol",
  "abi": [
    {
      "inputs": [],
      "stateMutability": "nonpayable",
      "type": "constructor"
    },
    {
      "anonymous": false,
      "inputs": [
        {
          "indexed": true,
          "internalType": "address",
          "name": "receiver",
          "type": "address"
        },
        {
          "indexed": true,
          "internalType": "address",
          "name": "token",
          "type": "address"
        },
        {
          "indexed": false,
          "internalType": "uint256",
          "name": "amount",
          "type": "uint256"
        },
        {
          "indexed": false,
          "internalType": "uint256",
          "name": "fee",
          "type": "uint256"
        }
      ],
      "name": "FlashLoan",
      "type": "event"
    },
    {
      "anonymous": false,
      "inputs": [
        {
          "indexed": true,
          "internalType": "address",
          "name": "token",
          "type": "address"
        },
        {
          "indexed": false,
          "internalType": "uint256",
          "name": "amount",
          "type": "uint256"
        }
      ],
      "name": "LiquidityProvided",
      "type": "event"
    },
    {
      "anonymous": false,
      "inputs": [
        {
          "indexed": true,
          "internalType": "address",
          "name": "token",
          "type": "address"
        },
        {
          "indexed": false,
          "internalType": "uint256",
          "name": "amount",
          "type": "uint256"
        }
      ],
      "name": "LiquidityWithdrawn",
      "type": "event"
    },
    {
      "anonymous": false,
      "inputs": [
        {
          "indexed": true,
          "internalType": "address",
          "name": "previousOwner",
          "type": "address"
        },
        {
          "indexed": true,
          "internalType": "address",
          "name": "newOwner",
          "type": "address"
        }
      ],
      "name": "OwnershipTransferred",
      "type": "event"
    },
    {
      "anonymous": false,
      "inputs": [
        {
          "indexed": true,
          "internalType": "address",
          "name": "token",
          "type": "address"
        },
        {
          "indexed": false,
          "internalType": "uint256",
          "name": "fee",
          "type": "uint256"
        }
      ],
      "name": "ReserveInitialized",
      "type": "event"
    },
    {
      "inputs": [],
      "name": "FLASH_LOAN_FEE_PRECISION",
      "outputs": [
        {
          "internalType": "uint256",
          "name": "",
          "type": "uint256"
        }
      ],
      "stateMutability": "view",
      "type": "function"
    },
    {
      "inputs": [],
      "name": "MAX_FLASH_LOAN_FEE",
      "outputs": [
        {
          "internalType": "uint256",
          "name": "",
          "type": "uint256"
        }
      ],
      "stateMutability": "view",
      "type": "function"
    },
    {
      "inputs": [
        {
          "internalType": "address",
          "name": "provider",
          "type": "address"
        }
      ],
      "name": "addFlashLoanProvider",
      "outputs": [],
      "stateMutability": "nonpayable",
      "type": "function"
    },
    {
      "inputs": [
        {
          "internalType": "address",
          "name": "receiver",
          "type": "address"
        },
        {
          "internalType": "address[]",
          "name": "tokens",
          "type": "address[]"
        },
        {
          "internalType": "uint256[]",
          "name": "amounts",
          "type": "uint256[]"
        },
        {
          "internalType": "bytes",
          "name": "params",
          "type": "bytes"
        }
      ],
      "name": "executeFlashLoan",
      "outputs": [],
      "stateMutability": "nonpayable",
      "type": "function"
    },
    {
      "inputs": [
        {
          "internalType": "address",
          "name": "",
          "type": "address"
        }
      ],
      "name": "flashLoanProviders",
      "outputs": [
        {
          "internalType": "bool",
          "name": "",
          "type": "bool"
        }
      ],
      "stateMutability": "view",
      "type": "function"
    },
    {
      "inputs": [
        {
          "internalType": "address",
          "name": "token",
          "type": "address"
        },
        {
          "internalType": "uint256",
          "name": "fee",
          "type": "uint256"
        }
      ],
      "name": "initializeReserve",
      "outputs": [],
      "stateMutability": "nonpayable",
      "type": "function"
    },
    {
      "inputs": [],
      "name": "owner",
      "outputs": [
        {
          "internalType": "address",
          "name": "",
          "type": "address"
        }
      ],
      "stateMutability": "view",
      "type": "function"
    },
    {
      "inputs": [
        {
          "internalType": "address",
          "name": "token",
          "type": "address"
        },
        {
          "internalType": "uint256",
          "name": "amount",
          "type": "uint256"
        }
      ],
      "name": "provideFlashLoanLiquidity",
      "outputs": [],
      "stateMutability": "nonpayable",
      "type": "function"
    },
    {
      "inputs": [
        {
          "internalType": "address",
          "name": "provider",
          "type": "address"
        }
      ],
      "name": "removeFlashLoanProvider",
      "outputs": [],
      "stateMutability": "nonpayable",
      "type": "function"
    },
    {
      "inputs": [],
      "name": "renounceOwnership",
      "outputs": [],
      "stateMutability": "nonpayable",
      "type": "function"
    },
    {
      "inputs": [
        {
          "internalType": "address",
          "name": "",
          "type": "address"
        }
      ],
      "name": "reserves",
      "outputs": [
        {
          "internalType": "bool",
          "name": "isActive",
          "type": "bool"
        },
        {
          "internalType": "uint256",
          "name": "totalLiquidity",
          "type": "uint256"
        },
        {
          "internalType": "uint256",
          "name": "availableLiquidity",
          "type": "uint256"
        },
        {
          "internalType": "uint256",
          "name": "flashLoanFee",
          "type": "uint256"
        }
      ],
      "stateMutability": "view",
      "type": "function"
    },
    {
      "inputs": [
        {
          "internalType": "address",
          "name": "newOwner",
          "type": "address"
        }
      ],
      "name": "transferOwnership",
      "outputs": [],
      "stateMutability": "nonpayable",
      "type": "function"
    },
    {
      "inputs": [
        {
          "internalType": "address",
          "name": "token",
          "type": "address"
        },
        {
          "internalType": "uint256",
          "name": "amount",
          "type": "uint256"
        }
      ],
      "name": "withdrawFlashLoanLiquidity",
      "outputs": [],
      "stateMutability": "nonpayable",
      "type": "function"
    }
  ],
  "bytecode": "0x608060405234801561001057600080fd5b50600160005561001f33610024565b610076565b600180546001600160a01b038381166001600160a01b0319831681179093556040519116919082907f8be0079c531659141344cd1fd0a4f28419497f9722a3daafe3b4186f6b6457e090600090a35050565b61175e806100856000396000f3fe608060405234801561001057600080fd5b50600436106100cf5760003560e01c8063715018a61161008c5780638da5cb5b116100665780638da5cb5b14610195578063d66bd524146101b0578063f2cb2eca1461020d578063f2fde38b1461022057600080fd5b8063715018a61461016757806376af06351461016f5780638d34eff91461018257600080fd5b80632234e3da146100d45780633db08eb2146100f057806354edd3011461010557806358caa5b7146101185780635c215c68146101215780636aed5c9114610154575b600080fd5b6100dd6103e881565b6040519081526020015b60405180910390f35b6101036100fe3660046112f6565b610233565b005b610103610113366004611311565b61029d565b6100dd61271081565b61014461012f3660046112f6565b60036020526000908152604090205460ff1681565b60405190151581526020016100e7565b610103610162366004611311565b6103eb565b6101036105d1565b61010361017d366004611387565b6105e5565b6101036101903660046112f6565b610c22565b6001546040516001600160a01b0390911681526020016100e7565b6101eb6101be3660046112f6565b6002602081905260009182526040909120805460018201549282015460039092015460ff90911692919084565b60408051941515855260208501939093529183015260608201526080016100e7565b61010361021b366004611311565b610cac565b61010361022e3660046112f6565b610e18565b61023b610e91565b6001600160a01b03811660009081526003602052604090205460ff1661027c5760405162461bcd60e51b81526004016102739061145f565b60405180910390fd5b6001600160a01b03166000908152600360205260409020805460ff19169055565b6102a5610e91565b6001600160a01b03821660009081526002602052604090205460ff161561030e5760405162461bcd60e51b815260206004820152601b60248201527f5265736572766520616c726561647920696e697469616c697a656400000000006044820152606401610273565b6103e881111561034f5760405162461bcd60e51b815260206004820152600c60248201526b08ccaca40e8dede40d0d2ced60a31b6044820152606401610273565b60408051608081018252600180825260006020808401828152848601838152606086018881526001600160a01b038a168086526002808652958990209751885460ff191690151517885592519587019590955551928501929092559151600390930192909255915183815290917faa4ed911581d53d2b849bacd712f18460331fd14945341d7ca695b6cd7033d0f910160405180910390a25050565b6103f3610eeb565b6001600160a01b03821660009081526002602052604090205460ff1661042b5760405162461bcd60e51b815260040161027390611487565b6000811161046c5760405162461bcd60e51b815260206004820152600e60248201526d125b9d985b1a5908185b5bdd5b9d60921b6044820152606401610273565b3360009081526003602052604090205460ff1661049b5760405162461bcd60e51b81526004016102739061145f565b6001600160a01b038216600090815260026020819052604090912001548111156105005760405162461bcd60e51b8152602060048201526016602482015275496e73756666696369656e74206c697175696469747960501b6044820152606401610273565b6001600160a01b0382166000908152600260205260409020600101546105269082610f44565b6001600160a01b0383166000908152600260208190526040909120600181019290925501546105559082610f44565b6001600160a01b03831660008181526002602081905260409091200191909155610580903383610f59565b816001600160a01b03167fb1cce8684b4ffa8667b4577654e61ee3480d661ee9c27522ac80e211f6bd4d25826040516105bb91815260200190565b60405180910390a26105cd6001600055565b5050565b6105d9610e91565b6105e36000610fc1565b565b6105ed610eeb565b84831461062c5760405162461bcd60e51b815260206004820152600d60248201526c125b9d985b1a59081a5b9c1d5d609a1b6044820152606401610273565b60008567ffffffffffffffff811115610647576106476114b3565b604051908082528060200260200182016040528015610670578160200160208202803683370190505b50905060005b8681101561094c5760026000898984818110610694576106946114c9565b90506020020160208101906106a991906112f6565b6001600160a01b0316815260208101919091526040016000205460ff166106e25760405162461bcd60e51b815260040161027390611487565b600260008989848181106106f8576106f86114c9565b905060200201602081019061070d91906112f6565b6001600160a01b03166001600160a01b0316815260200190815260200160002060020154868683818110610743576107436114c9565b9050602002013511156107915760405162461bcd60e51b8152602060048201526016602482015275496e73756666696369656e74206c697175696469747960501b6044820152606401610273565b610816612710610810600260008c8c878181106107b0576107b06114c9565b90506020020160208101906107c591906112f6565b6001600160a01b03166001600160a01b03168152602001908152602001600020600301548989868181106107fb576107fb6114c9565b9050602002013561101390919063ffffffff16565b9061101f565b828281518110610828576108286114c9565b60200260200101818152505061089e868683818110610849576108496114c9565b90506020020135600260008b8b86818110610866576108666114c9565b905060200201602081019061087b91906112f6565b6001600160a01b0316815260208101919091526040016000206002015490610f44565b600260008a8a858181106108b4576108b46114c9565b90506020020160208101906108c991906112f6565b6001600160a01b0316815260208101919091526040016000206002015561093a898787848181106108fc576108fc6114c9565b905060200201358a8a85818110610915576109156114c9565b905060200201602081019061092a91906112f6565b6001600160a01b03169190610f59565b80610944816114f5565b915050610676565b50604051632483d72160e21b81526001600160a01b0389169063920f5c8490610987908a908a908a908a90889033908c908c90600401611572565b6020604051808303816000875af11580156109a6573d6000803e3d6000fd5b505050506040513d601f19601f820116820180604052508101906109ca919061162d565b610a0a5760405162461bcd60e51b8152602060048201526011602482015270119b185cda081b1bd85b8819985a5b1959607a1b6044820152606401610273565b60005b86811015610c0d576000610a5b838381518110610a2c57610a2c6114c9565b6020026020010151888885818110610a4657610a466114c9565b9050602002013561102b90919063ffffffff16565b9050610a9b8a30838c8c87818110610a7557610a756114c9565b9050602002016020810190610a8a91906112f6565b6001600160a01b0316929190611037565b610b05878784818110610ab057610ab06114c9565b90506020020135600260008c8c87818110610acd57610acd6114c9565b9050602002016020810190610ae291906112f6565b6001600160a01b031681526020810191909152604001600020600201549061102b565b600260008b8b86818110610b1b57610b1b6114c9565b9050602002016020810190610b3091906112f6565b6001600160a01b03168152602081019190915260400160002060020155888883818110610b5f57610b5f6114c9565b9050602002016020810190610b7491906112f6565b6001600160a01b03168a6001600160a01b03167f0d7d75e01ab95780d3cd1c8ec0dd6c2ce19e3a20427eec8bf53283b6fb8e95f0898986818110610bba57610bba6114c9565b90506020020135868681518110610bd357610bd36114c9565b6020026020010151604051610bf2929190918252602082015260400190565b60405180910390a35080610c05816114f5565b915050610a0d565b5050610c196001600055565b50505050505050565b610c2a610e91565b6001600160a01b03811660009081526003602052604090205460ff1615610c885760405162461bcd60e51b815260206004820152601260248201527120b63932b0b23c903090383937bb34b232b960711b6044820152606401610273565b6001600160a01b03166000908152600360205260409020805460ff19166001179055565b610cb4610eeb565b6001600160a01b03821660009081526002602052604090205460ff16610cec5760405162461bcd60e51b815260040161027390611487565b60008111610d2d5760405162461bcd60e51b815260206004820152600e60248201526d125b9d985b1a5908185b5bdd5b9d60921b6044820152606401610273565b3360009081526003602052604090205460ff16610d5c5760405162461bcd60e51b81526004016102739061145f565b610d716001600160a01b038316333084611037565b6001600160a01b038216600090815260026020526040902060010154610d97908261102b565b6001600160a01b038316600090815260026020819052604090912060018101929092550154610dc6908261102b565b6001600160a01b038316600081815260026020819052604091829020019290925590517fccb2ae3a2936bf4c94fa4e12cdf0cdad6ed0e4888a044cef89afa60f2e4b92d3906105bb9084815260200190565b610e20610e91565b6001600160a01b038116610e855760405162461bcd60e51b815260206004820152602660248201527f4f776e61626c653a206e6577206f776e657220697320746865207a65726f206160448201526564647265737360d01b6064820152608401610273565b610e8e81610fc1565b50565b6001546001600160a01b031633146105e35760405162461bcd60e51b815260206004820181905260248201527f4f776e61626c653a2063616c6c6572206973206e6f7420746865206f776e65726044820152606401610273565b600260005403610f3d5760405162461bcd60e51b815260206004820152601f60248201527f5265656e7472616e637947756172643a207265656e7472616e742063616c6c006044820152606401610273565b6002600055565b6000610f508284611656565b90505b92915050565b6040516001600160a01b038316602482015260448101829052610fbc90849063a9059cbb60e01b906064015b60408051601f198184030181529190526020810180516001600160e01b03166001600160e01b031990931692909217909152611075565b505050565b600180546001600160a01b038381166001600160a01b0319831681179093556040519116919082907f8be0079c531659141344cd1fd0a4f28419497f9722a3daafe3b4186f6b6457e090600090a35050565b6000610f508284611669565b6000610f508284611680565b6000610f5082846116a2565b6040516001600160a01b038085166024830152831660448201526064810182905261106f9085906323b872dd60e01b90608401610f85565b50505050565b60006110ca826040518060400160405280602081526020017f5361666545524332303a206c6f772d6c6576656c2063616c6c206661696c6564815250856001600160a01b031661114a9092919063ffffffff16565b90508051600014806110eb5750808060200190518101906110eb919061162d565b610fbc5760405162461bcd60e51b815260206004820152602a60248201527f5361666545524332303a204552433230206f7065726174696f6e20646964206e6044820152691bdd081cdd58d8d9595960b21b6064820152608401610273565b60606111598484600085611161565b949350505050565b6060824710156111c25760405162461bcd60e51b815260206004820152602660248201527f416464726573733a20696e73756666696369656e742062616c616e636520666f6044820152651c8818d85b1b60d21b6064820152608401610273565b600080866001600160a01b031685876040516111de91906116d9565b60006040518083038185875af1925050503d806000811461121b576040519150601f19603f3d011682016040523d82523d6000602084013e611220565b606091505b50915091506112318783838761123c565b979650505050505050565b606083156112ab5782516000036112a4576001600160a01b0385163b6112a45760405162461bcd60e51b815260206004820152601d60248201527f416464726573733a2063616c6c20746f206e6f6e2d636f6e74726163740000006044820152606401610273565b5081611159565b61115983838151156112c05781518083602001fd5b8060405162461bcd60e51b815260040161027391906116f5565b80356001600160a01b03811681146112f157600080fd5b919050565b60006020828403121561130857600080fd5b610f50826112da565b6000806040838503121561132457600080fd5b61132d836112da565b946020939093013593505050565b60008083601f84011261134d57600080fd5b50813567ffffffffffffffff81111561136557600080fd5b6020830191508360208260051b850101111561138057600080fd5b9250929050565b60008060008060008060006080888a0312156113a257600080fd5b6113ab886112da565b9650602088013567ffffffffffffffff808211156113c857600080fd5b6113d48b838c0161133b565b909850965060408a01359150808211156113ed57600080fd5b6113f98b838c0161133b565b909650945060608a013591508082111561141257600080fd5b818a0191508a601f83011261142657600080fd5b81358181111561143557600080fd5b8b602082850101111561144757600080fd5b60208301945080935050505092959891949750929550565b6020808252600e908201526d2737ba103090383937bb34b232b960911b604082015260600190565b60208082526012908201527152657365727665206e6f742061637469766560701b604082015260600190565b634e487b7160e01b600052604160045260246000fd5b634e487b7160e01b600052603260045260246000fd5b634e487b7160e01b600052601160045260246000fd5b600060018201611507576115076114df565b5060010190565b600081518084526020808501945080840160005b8381101561153e57815187529582019590820190600101611522565b509495945050505050565b81835281816020850137506000828201602090810191909152601f909101601f19169091010190565b60a0808252810188905260008960c08301825b8b8110156115b3576001600160a01b0361159e846112da565b16825260209283019290910190600101611585565b5083810360208501528881526001600160fb1b038911156115d357600080fd5b8860051b9150818a602083013701828103602090810160408501526115fa9082018861150e565b6001600160a01b03871660608501529050828103608084015261161e818587611549565b9b9a5050505050505050505050565b60006020828403121561163f57600080fd5b8151801515811461164f57600080fd5b9392505050565b81810381811115610f5357610f536114df565b8082028115828204841417610f5357610f536114df565b60008261169d57634e487b7160e01b600052601260045260246000fd5b500490565b80820180821115610f5357610f536114df565b60005b838110156116d05781810151838201526020016116b8565b50506000910152565b600082516116eb8184602087016116b5565b9190910192915050565b60208152600082518060208401526117148160408501602087016116b5565b601f01601f1916919091016040019291505056fea2646970667358221220c4dc57c10c608446d1901e1b35326716a6af2089d76fc0bd3193060c266311c464736f6c63430008130033",
  "linkReferences": {},
  "deployedLinkReferences": {}
}