{
  "_format": "hh-sol-artifact-1",
  "contractName": "DAFIMarketplace",
  "sourceName": "contracts/DAFIMarketplace.sol",
  "abi": [
    {
      "inputs": [
        {
          "internalType": "address",
          "name": "_usdcToken",
          "type": "address"
        },
        {
          "internalType": "address",
          "name": "_farmAssetToken",
          "type": "address"
        }
      ],
      "stateMutability": "nonpayable",
      "type": "constructor"
    },
    {
      "anonymous": false,
      "inputs": [
        {
          "indexed": true,
          "internalType": "uint256",
          "name": "listingId",
          "type": "uint256"
        },
        {
          "indexed": true,
          "internalType": "address",
          "name": "seller",
          "type": "address"
        },
        {
          "indexed": false,
          "internalType": "uint256",
          "name": "tokenId",
          "type": "uint256"
        },
        {
          "indexed": false,
          "internalType": "uint256",
          "name": "amount",
          "type": "uint256"
        },
        {
          "indexed": false,
          "internalType": "uint256",
          "name": "pricePerUnit",
          "type": "uint256"
        }
      ],
      "name": "Listed",
      "type": "event"
    },
    {
      "anonymous": false,
      "inputs": [
        {
          "indexed": true,
          "internalType": "uint256",
          "name": "listingId",
          "type": "uint256"
        }
      ],
      "name": "ListingCancelled",
      "type": "event"
    },
    {
      "anonymous": false,
      "inputs": [
        {
          "indexed": true,
          "internalType": "uint256",
          "name": "listingId",
          "type": "uint256"
        },
        {
          "indexed": true,
          "internalType": "address",
          "name": "buyer",
          "type": "address"
        },
        {
          "indexed": true,
          "internalType": "address",
          "name": "seller",
          "type": "address"
        },
        {
          "indexed": false,
          "internalType": "uint256",
          "name": "amount",
          "type": "uint256"
        }
      ],
      "name": "OfferAccepted",
      "type": "event"
    },
    {
      "anonymous": false,
      "inputs": [
        {
          "indexed": true,
          "internalType": "uint256",
          "name": "listingId",
          "type": "uint256"
        },
        {
          "indexed": true,
          "internalType": "address",
          "name": "buyer",
          "type": "address"
        }
      ],
      "name": "OfferCancelled",
      "type": "event"
    },
    {
      "anonymous": false,
      "inputs": [
        {
          "indexed": true,
          "internalType": "uint256",
          "name": "listingId",
          "type": "uint256"
        },
        {
          "indexed": true,
          "internalType": "address",
          "name": "buyer",
          "type": "address"
        },
        {
          "indexed": false,
          "internalType": "uint256",
          "name": "amount",
          "type": "uint256"
        },
        {
          "indexed": false,
          "internalType": "uint256",
          "name": "pricePerUnit",
          "type": "uint256"
        }
      ],
      "name": "OfferMade",
      "type": "event"
    },
    {
      "anonymous": false,
      "inputs": [
        {
          "indexed": true,
          "internalType": "address",
          "name": "previousOwner",
          "type": "address"
        },
        {
          "indexed": true,
          "internalType": "address",
          "name": "newOwner",
          "type": "address"
        }
      ],
      "name": "OwnershipTransferred",
      "type": "event"
    },
    {
      "inputs": [
        {
          "internalType": "uint256",
          "name": "listingId",
          "type": "uint256"
        },
        {
          "internalType": "address",
          "name": "buyer",
          "type": "address"
        }
      ],
      "name": "acceptOffer",
      "outputs": [],
      "stateMutability": "nonpayable",
      "type": "function"
    },
    {
      "inputs": [
        {
          "internalType": "uint256",
          "name": "listingId",
          "type": "uint256"
        }
      ],
      "name": "cancelListing",
      "outputs": [],
      "stateMutability": "nonpayable",
      "type": "function"
    },
    {
      "inputs": [
        {
          "internalType": "uint256",
          "name": "listingId",
          "type": "uint256"
        }
      ],
      "name": "cancelOffer",
      "outputs": [],
      "stateMutability": "nonpayable",
      "type": "function"
    },
    {
      "inputs": [
        {
          "internalType": "uint256",
          "name": "tokenId",
          "type": "uint256"
        },
        {
          "internalType": "uint256",
          "name": "amount",
          "type": "uint256"
        },
        {
          "internalType": "uint256",
          "name": "pricePerUnit",
          "type": "uint256"
        }
      ],
      "name": "createListing",
      "outputs": [
        {
          "internalType": "uint256",
          "name": "",
          "type": "uint256"
        }
      ],
      "stateMutability": "nonpayable",
      "type": "function"
    },
    {
      "inputs": [],
      "name": "farmAssetToken",
      "outputs": [
        {
          "internalType": "contract IERC1155",
          "name": "",
          "type": "address"
        }
      ],
      "stateMutability": "view",
      "type": "function"
    },
    {
      "inputs": [
        {
          "internalType": "address",
          "name": "",
          "type": "address"
        }
      ],
      "name": "farmerRewards",
      "outputs": [
        {
          "internalType": "uint256",
          "name": "",
          "type": "uint256"
        }
      ],
      "stateMutability": "view",
      "type": "function"
    },
    {
      "inputs": [],
      "name": "listingCount",
      "outputs": [
        {
          "internalType": "uint256",
          "name": "",
          "type": "uint256"
        }
      ],
      "stateMutability": "view",
      "type": "function"
    },
    {
      "inputs": [
        {
          "internalType": "uint256",
          "name": "",
          "type": "uint256"
        }
      ],
      "name": "listings",
      "outputs": [
        {
          "internalType": "address",
          "name": "seller",
          "type": "address"
        },
        {
          "internalType": "uint256",
          "name": "tokenId",
          "type": "uint256"
        },
        {
          "internalType": "uint256",
          "name": "amount",
          "type": "uint256"
        },
        {
          "internalType": "uint256",
          "name": "pricePerUnit",
          "type": "uint256"
        },
        {
          "internalType": "bool",
          "name": "active",
          "type": "bool"
        }
      ],
      "stateMutability": "view",
      "type": "function"
    },
    {
      "inputs": [
        {
          "internalType": "uint256",
          "name": "listingId",
          "type": "uint256"
        },
        {
          "internalType": "uint256",
          "name": "amount",
          "type": "uint256"
        },
        {
          "internalType": "uint256",
          "name": "pricePerUnit",
          "type": "uint256"
        }
      ],
      "name": "makeOffer",
      "outputs": [],
      "stateMutability": "nonpayable",
      "type": "function"
    },
    {
      "inputs": [
        {
          "internalType": "uint256",
          "name": "",
          "type": "uint256"
        },
        {
          "internalType": "address",
          "name": "",
          "type": "address"
        }
      ],
      "name": "offers",
      "outputs": [
        {
          "internalType": "address",
          "name": "buyer",
          "type": "address"
        },
        {
          "internalType": "uint256",
          "name": "amount",
          "type": "uint256"
        },
        {
          "internalType": "uint256",
          "name": "pricePerUnit",
          "type": "uint256"
        },
        {
          "internalType": "bool",
          "name": "active",
          "type": "bool"
        }
      ],
      "stateMutability": "view",
      "type": "function"
    },
    {
      "inputs": [
        {
          "internalType": "address",
          "name": "",
          "type": "address"
        },
        {
          "internalType": "address",
          "name": "",
          "type": "address"
        },
        {
          "internalType": "uint256[]",
          "name": "",
          "type": "uint256[]"
        },
        {
          "internalType": "uint256[]",
          "name": "",
          "type": "uint256[]"
        },
        {
          "internalType": "bytes",
          "name": "",
          "type": "bytes"
        }
      ],
      "name": "onERC1155BatchReceived",
      "outputs": [
        {
          "internalType": "bytes4",
          "name": "",
          "type": "bytes4"
        }
      ],
      "stateMutability": "nonpayable",
      "type": "function"
    },
    {
      "inputs": [
        {
          "internalType": "address",
          "name": "",
          "type": "address"
        },
        {
          "internalType": "address",
          "name": "",
          "type": "address"
        },
        {
          "internalType": "uint256",
          "name": "",
          "type": "uint256"
        },
        {
          "internalType": "uint256",
          "name": "",
          "type": "uint256"
        },
        {
          "internalType": "bytes",
          "name": "",
          "type": "bytes"
        }
      ],
      "name": "onERC1155Received",
      "outputs": [
        {
          "internalType": "bytes4",
          "name": "",
          "type": "bytes4"
        }
      ],
      "stateMutability": "nonpayable",
      "type": "function"
    },
    {
      "inputs": [],
      "name": "owner",
      "outputs": [
        {
          "internalType": "address",
          "name": "",
          "type": "address"
        }
      ],
      "stateMutability": "view",
      "type": "function"
    },
    {
      "inputs": [],
      "name": "platformFee",
      "outputs": [
        {
          "internalType": "uint256",
          "name": "",
          "type": "uint256"
        }
      ],
      "stateMutability": "view",
      "type": "function"
    },
    {
      "inputs": [],
      "name": "renounceOwnership",
      "outputs": [],
      "stateMutability": "nonpayable",
      "type": "function"
    },
    {
      "inputs": [
        {
          "internalType": "bytes4",
          "name": "interfaceId",
          "type": "bytes4"
        }
      ],
      "name": "supportsInterface",
      "outputs": [
        {
          "internalType": "bool",
          "name": "",
          "type": "bool"
        }
      ],
      "stateMutability": "view",
      "type": "function"
    },
    {
      "inputs": [
        {
          "internalType": "address",
          "name": "newOwner",
          "type": "address"
        }
      ],
      "name": "transferOwnership",
      "outputs": [],
      "stateMutability": "nonpayable",
      "type": "function"
    },
    {
      "inputs": [
        {
          "internalType": "uint256",
          "name": "newFee",
          "type": "uint256"
        }
      ],
      "name": "updatePlatformFee",
      "outputs": [],
      "stateMutability": "nonpayable",
      "type": "function"
    },
    {
      "inputs": [],
      "name": "usdcToken",
      "outputs": [
        {
          "internalType": "contract IERC20",
          "name": "",
          "type": "address"
        }
      ],
      "stateMutability": "view",
      "type": "function"
    },
    {
      "inputs": [],
      "name": "withdrawRewards",
      "outputs": [],
      "stateMutability": "nonpayable",
      "type": "function"
    }
  ],
  "bytecode": "0x608060405260196008553480156200001657600080fd5b50604051620016c3380380620016c38339810160408190526200003991620000ea565b600160005562000049336200007b565b600280546001600160a01b039384166001600160a01b0319918216179091556003805492909316911617905562000122565b600180546001600160a01b038381166001600160a01b0319831681179093556040519116919082907f8be0079c531659141344cd1fd0a4f28419497f9722a3daafe3b4186f6b6457e090600090a35050565b80516001600160a01b0381168114620000e557600080fd5b919050565b60008060408385031215620000fe57600080fd5b6200010983620000cd565b91506200011960208401620000cd565b90509250929050565b61159180620001326000396000f3fe608060405234801561001057600080fd5b506004361061012c5760003560e01c8063aa0b5988116100ad578063e210a72d11610071578063e210a72d146102fd578063ebdfbce514610310578063ef706adf14610389578063f23a6e611461039c578063f2fde38b146103bb57600080fd5b8063aa0b598814610218578063b03053b61461022b578063bc197c811461023e578063c7b8981c14610276578063de74e57b1461027e57600080fd5b80637139adba116100f45780637139adba146101c3578063715018a6146101e35780638da5cb5b146101eb578063918d407d146101fc578063a9b07c261461020f57600080fd5b806301ffc9a71461013157806311eac8551461015957806326232a2e146101845780632a80db011461019b578063305a67a8146101ae575b600080fd5b61014461013f366004611116565b6103ce565b60405190151581526020015b60405180910390f35b60025461016c906001600160a01b031681565b6040516001600160a01b039091168152602001610150565b61018d60085481565b604051908152602001610150565b60035461016c906001600160a01b031681565b6101c16101bc366004611140565b610405565b005b61018d6101d1366004611175565b60066020526000908152604090205481565b6101c1610543565b6001546001600160a01b031661016c565b6101c161020a366004611190565b610557565b61018d60075481565b6101c1610226366004611140565b610945565b61018d6102393660046111bc565b610993565b61025d61024c36600461131f565b63bc197c8160e01b95945050505050565b6040516001600160e01b03199091168152602001610150565b6101c1610b8b565b6102c961028c366004611140565b6004602081905260009182526040909120805460018201546002830154600384015493909401546001600160a01b03909216939092909160ff1685565b604080516001600160a01b03909616865260208601949094529284019190915260608301521515608082015260a001610150565b6101c161030b3660046111bc565b610cbe565b61035d61031e366004611190565b600560209081526000928352604080842090915290825290208054600182015460028301546003909301546001600160a01b0390921692909160ff1684565b604080516001600160a01b03909516855260208501939093529183015215156060820152608001610150565b6101c1610397366004611140565b610edd565b61025d6103aa3660046113c9565b63f23a6e6160e01b95945050505050565b6101c16103c9366004611175565b610f9b565b60006001600160e01b03198216630271189760e51b14806103ff57506301ffc9a760e01b6001600160e01b03198316145b92915050565b61040d611011565b600081815260046020526040902080546001600160a01b031633146104665760405162461bcd60e51b815260206004820152600a6024820152692737ba1039b2b63632b960b11b60448201526064015b60405180910390fd5b600481015460ff1661048a5760405162461bcd60e51b815260040161045d9061142e565b6004808201805460ff19169055600354825460018401546002850154604051637921219560e11b81526001600160a01b039485169563f242432a956104d8953095911693909290910161145a565b600060405180830381600087803b1580156104f257600080fd5b505af1158015610506573d6000803e3d6000fd5b50506040518492507f411aee90354c51b1b04cd563fcab2617142a9d50da19232d888547c8a1b7fd8a9150600090a2506105406001600055565b50565b61054b61106a565b61055560006110c4565b565b61055f611011565b600082815260046020526040902080546001600160a01b031633146105b35760405162461bcd60e51b815260206004820152600a6024820152692737ba1039b2b63632b960b11b604482015260640161045d565b600481015460ff166105d75760405162461bcd60e51b815260040161045d9061142e565b60008381526005602090815260408083206001600160a01b03861684529091529020600381015460ff166106405760405162461bcd60e51b815260206004820152601060248201526f4f66666572206e6f742061637469766560801b604482015260640161045d565b60008160020154826001015461065691906114a8565b905060006127106008548361066b91906114a8565b61067591906114bf565b9050600061068382846114e1565b60025486546040516323b872dd60e01b81526001600160a01b038a8116600483015291821660248201526044810184905292935016906323b872dd906064016020604051808303816000875af11580156106e1573d6000803e3d6000fd5b505050506040513d601f19601f8201168201806040525081019061070591906114f4565b6107485760405162461bcd60e51b81526020600482015260146024820152731554d110c81d1c985b9cd9995c8819985a5b195960621b604482015260640161045d565b6002546040516323b872dd60e01b81526001600160a01b03888116600483015230602483015260448201859052909116906323b872dd906064016020604051808303816000875af11580156107a1573d6000803e3d6000fd5b505050506040513d601f19601f820116820180604052508101906107c591906114f4565b6108075760405162461bcd60e51b8152602060048201526013602482015272119959481d1c985b9cd9995c8819985a5b1959606a1b604482015260640161045d565b60035460018681015490860154604051637921219560e11b81526001600160a01b039093169263f242432a926108459230928c92919060040161145a565b600060405180830381600087803b15801561085f57600080fd5b505af1158015610873573d6000803e3d6000fd5b50505050836001015485600201600082825461088f91906114e1565b909155505060028501546000036108ad5760048501805460ff191690555b84546001600160a01b0316600090815260066020526040812080548492906108d6908490611516565b909155505060038401805460ff19169055845460018501546040519081526001600160a01b039182169188169089907fc67f49229cab3f614ad390c12432e0e671552dcfd15e24ddc005cf5a01a021359060200160405180910390a450505050506109416001600055565b5050565b61094d61106a565b6103e881111561098e5760405162461bcd60e51b815260206004820152600c60248201526b08ccaca40e8dede40d0d2ced60a31b604482015260640161045d565b600855565b600061099d611011565b600083116109ed5760405162461bcd60e51b815260206004820152601760248201527f416d6f756e74206d75737420626520706f736974697665000000000000000000604482015260640161045d565b60008211610a365760405162461bcd60e51b81526020600482015260166024820152755072696365206d75737420626520706f73697469766560501b604482015260640161045d565b600354604051637921219560e11b81526001600160a01b039091169063f242432a90610a6c90339030908990899060040161145a565b600060405180830381600087803b158015610a8657600080fd5b505af1158015610a9a573d6000803e3d6000fd5b50506007805460009350915082610ab083611529565b909155506040805160a0810182523380825260208083018a81528385018a815260608086018b815260016080880181815260008b81526004808952908b902099518a546001600160a01b0319166001600160a01b03909116178a5595519189019190915592516002880155516003870155905194909101805460ff19169415159490941790935583518a815290810189905292830187905292935083917fd0e2632082726e989c9a9cac6d495b05080e0d6836ee21e07618b32d5719a404910160405180910390a39050610b846001600055565b9392505050565b610b93611011565b3360009081526006602052604090205480610be65760405162461bcd60e51b81526020600482015260136024820152724e6f207265776172647320746f20636c61696d60681b604482015260640161045d565b3360008181526006602052604080822091909155600254905163a9059cbb60e01b81526004810192909252602482018390526001600160a01b03169063a9059cbb906044016020604051808303816000875af1158015610c4a573d6000803e3d6000fd5b505050506040513d601f19601f82011682018060405250810190610c6e91906114f4565b610cb35760405162461bcd60e51b815260206004820152601660248201527514995dd85c99081d1c985b9cd9995c8819985a5b195960521b604482015260640161045d565b506105556001600055565b610cc6611011565b6000838152600460208190526040909120015460ff16610cf85760405162461bcd60e51b815260040161045d9061142e565b600083815260046020526040902060020154821115610d525760405162461bcd60e51b8152602060048201526016602482015275416d6f756e742065786365656473206c697374696e6760501b604482015260640161045d565b6000610d5e82846114a8565b6002546040516370a0823160e01b815233600482015291925082916001600160a01b03909116906370a0823190602401602060405180830381865afa158015610dab573d6000803e3d6000fd5b505050506040513d601f19601f82011682018060405250810190610dcf9190611542565b1015610e1d5760405162461bcd60e51b815260206004820152601960248201527f496e73756666696369656e7420555344432062616c616e636500000000000000604482015260640161045d565b6040805160808101825233808252602080830187815283850187815260016060860181815260008c8152600586528881208782528652889020965187546001600160a01b0319166001600160a01b03909116178755925190860155516002850155516003909301805460ff19169315159390931790925582518681529182018590529186917fd7df0c72641d362ea57ecc9cab99c77f936e36bb826f096258c3404196b26d6a910160405180910390a350610ed86001600055565b505050565b610ee5611011565b600081815260056020908152604080832033845290915290206003015460ff16610f435760405162461bcd60e51b815260206004820152600f60248201526e27379030b1ba34bb329037b33332b960891b604482015260640161045d565b6000818152600560209081526040808320338085529252808320600301805460ff1916905551909183917f1f51377b3e685a0e2419f9bb4ba7c07ec54936353ba3d0fb3c6538dab67662229190a36105406001600055565b610fa361106a565b6001600160a01b0381166110085760405162461bcd60e51b815260206004820152602660248201527f4f776e61626c653a206e6577206f776e657220697320746865207a65726f206160448201526564647265737360d01b606482015260840161045d565b610540816110c4565b6002600054036110635760405162461bcd60e51b815260206004820152601f60248201527f5265656e7472616e637947756172643a207265656e7472616e742063616c6c00604482015260640161045d565b6002600055565b6001546001600160a01b031633146105555760405162461bcd60e51b815260206004820181905260248201527f4f776e61626c653a2063616c6c6572206973206e6f7420746865206f776e6572604482015260640161045d565b600180546001600160a01b038381166001600160a01b0319831681179093556040519116919082907f8be0079c531659141344cd1fd0a4f28419497f9722a3daafe3b4186f6b6457e090600090a35050565b60006020828403121561112857600080fd5b81356001600160e01b031981168114610b8457600080fd5b60006020828403121561115257600080fd5b5035919050565b80356001600160a01b038116811461117057600080fd5b919050565b60006020828403121561118757600080fd5b610b8482611159565b600080604083850312156111a357600080fd5b823591506111b360208401611159565b90509250929050565b6000806000606084860312156111d157600080fd5b505081359360208301359350604090920135919050565b634e487b7160e01b600052604160045260246000fd5b604051601f8201601f1916810167ffffffffffffffff81118282101715611227576112276111e8565b604052919050565b600082601f83011261124057600080fd5b8135602067ffffffffffffffff82111561125c5761125c6111e8565b8160051b61126b8282016111fe565b928352848101820192828101908785111561128557600080fd5b83870192505b848310156112a45782358252918301919083019061128b565b979650505050505050565b600082601f8301126112c057600080fd5b813567ffffffffffffffff8111156112da576112da6111e8565b6112ed601f8201601f19166020016111fe565b81815284602083860101111561130257600080fd5b816020850160208301376000918101602001919091529392505050565b600080600080600060a0868803121561133757600080fd5b61134086611159565b945061134e60208701611159565b9350604086013567ffffffffffffffff8082111561136b57600080fd5b61137789838a0161122f565b9450606088013591508082111561138d57600080fd5b61139989838a0161122f565b935060808801359150808211156113af57600080fd5b506113bc888289016112af565b9150509295509295909350565b600080600080600060a086880312156113e157600080fd5b6113ea86611159565b94506113f860208701611159565b93506040860135925060608601359150608086013567ffffffffffffffff81111561142257600080fd5b6113bc888289016112af565b6020808252601290820152714c697374696e67206e6f742061637469766560701b604082015260600190565b6001600160a01b0394851681529290931660208301526040820152606081019190915260a06080820181905260009082015260c00190565b634e487b7160e01b600052601160045260246000fd5b80820281158282048414176103ff576103ff611492565b6000826114dc57634e487b7160e01b600052601260045260246000fd5b500490565b818103818111156103ff576103ff611492565b60006020828403121561150657600080fd5b81518015158114610b8457600080fd5b808201808211156103ff576103ff611492565b60006001820161153b5761153b611492565b5060010190565b60006020828403121561155457600080fd5b505191905056fea2646970667358221220b050145249afde37da2520de2637272cc3c3c73629a1d1d4a9eab2abf8f7059864736f6c63430008130033",
  "linkReferences": {},
  "deployedLinkReferences": {}
}