{
  "_format": "hh-sol-artifact-1",
  "contractName": "DAFILiquidityMining",
  "sourceName": "contracts/DAFILiquidityMining.sol",
  "abi": [
    {
      "inputs": [
        {
          "internalType": "contract IERC20",
          "name": "_rewardToken",
          "type": "address"
        },
        {
          "internalType": "uint256",
          "name": "_rewardPerBlock",
          "type": "uint256"
        },
        {
          "internalType": "uint256",
          "name": "_startBlock",
          "type": "uint256"
        }
      ],
      "stateMutability": "nonpayable",
      "type": "constructor"
    },
    {
      "anonymous": false,
      "inputs": [
        {
          "indexed": true,
          "internalType": "address",
          "name": "user",
          "type": "address"
        },
        {
          "indexed": true,
          "internalType": "uint256",
          "name": "pid",
          "type": "uint256"
        },
        {
          "indexed": false,
          "internalType": "uint256",
          "name": "multiplier",
          "type": "uint256"
        }
      ],
      "name": "BoostMultiplierUpdated",
      "type": "event"
    },
    {
      "anonymous": false,
      "inputs": [
        {
          "indexed": true,
          "internalType": "address",
          "name": "user",
          "type": "address"
        },
        {
          "indexed": true,
          "internalType": "uint256",
          "name": "pid",
          "type": "uint256"
        },
        {
          "indexed": false,
          "internalType": "uint256",
          "name": "amount",
          "type": "uint256"
        }
      ],
      "name": "Deposit",
      "type": "event"
    },
    {
      "anonymous": false,
      "inputs": [
        {
          "indexed": true,
          "internalType": "address",
          "name": "user",
          "type": "address"
        },
        {
          "indexed": true,
          "internalType": "uint256",
          "name": "pid",
          "type": "uint256"
        },
        {
          "indexed": false,
          "internalType": "uint256",
          "name": "amount",
          "type": "uint256"
        }
      ],
      "name": "EmergencyWithdraw",
      "type": "event"
    },
    {
      "anonymous": false,
      "inputs": [
        {
          "indexed": true,
          "internalType": "address",
          "name": "previousOwner",
          "type": "address"
        },
        {
          "indexed": true,
          "internalType": "address",
          "name": "newOwner",
          "type": "address"
        }
      ],
      "name": "OwnershipTransferred",
      "type": "event"
    },
    {
      "anonymous": false,
      "inputs": [
        {
          "indexed": true,
          "internalType": "address",
          "name": "user",
          "type": "address"
        },
        {
          "indexed": true,
          "internalType": "uint256",
          "name": "pid",
          "type": "uint256"
        },
        {
          "indexed": false,
          "internalType": "uint256",
          "name": "amount",
          "type": "uint256"
        }
      ],
      "name": "RewardPaid",
      "type": "event"
    },
    {
      "anonymous": false,
      "inputs": [
        {
          "indexed": true,
          "internalType": "address",
          "name": "user",
          "type": "address"
        },
        {
          "indexed": true,
          "internalType": "uint256",
          "name": "pid",
          "type": "uint256"
        },
        {
          "indexed": false,
          "internalType": "uint256",
          "name": "amount",
          "type": "uint256"
        }
      ],
      "name": "Withdraw",
      "type": "event"
    },
    {
      "inputs": [],
      "name": "BLOCKS_PER_WEEK",
      "outputs": [
        {
          "internalType": "uint256",
          "name": "",
          "type": "uint256"
        }
      ],
      "stateMutability": "view",
      "type": "function"
    },
    {
      "inputs": [],
      "name": "BOOST_PRECISION",
      "outputs": [
        {
          "internalType": "uint256",
          "name": "",
          "type": "uint256"
        }
      ],
      "stateMutability": "view",
      "type": "function"
    },
    {
      "inputs": [],
      "name": "MAXIMUM_BOOST",
      "outputs": [
        {
          "internalType": "uint256",
          "name": "",
          "type": "uint256"
        }
      ],
      "stateMutability": "view",
      "type": "function"
    },
    {
      "inputs": [
        {
          "internalType": "uint256",
          "name": "_allocPoint",
          "type": "uint256"
        },
        {
          "internalType": "contract IERC20",
          "name": "_lpToken",
          "type": "address"
        },
        {
          "internalType": "bool",
          "name": "_withUpdate",
          "type": "bool"
        }
      ],
      "name": "addPool",
      "outputs": [],
      "stateMutability": "nonpayable",
      "type": "function"
    },
    {
      "inputs": [
        {
          "internalType": "uint256",
          "name": "_lockDuration",
          "type": "uint256"
        }
      ],
      "name": "calculateBoost",
      "outputs": [
        {
          "internalType": "uint256",
          "name": "",
          "type": "uint256"
        }
      ],
      "stateMutability": "pure",
      "type": "function"
    },
    {
      "inputs": [
        {
          "internalType": "uint256",
          "name": "_pid",
          "type": "uint256"
        },
        {
          "internalType": "uint256",
          "name": "_amount",
          "type": "uint256"
        },
        {
          "internalType": "uint256",
          "name": "_lockDuration",
          "type": "uint256"
        }
      ],
      "name": "deposit",
      "outputs": [],
      "stateMutability": "nonpayable",
      "type": "function"
    },
    {
      "inputs": [],
      "name": "massUpdatePools",
      "outputs": [],
      "stateMutability": "nonpayable",
      "type": "function"
    },
    {
      "inputs": [],
      "name": "owner",
      "outputs": [
        {
          "internalType": "address",
          "name": "",
          "type": "address"
        }
      ],
      "stateMutability": "view",
      "type": "function"
    },
    {
      "inputs": [
        {
          "internalType": "uint256",
          "name": "_pid",
          "type": "uint256"
        },
        {
          "internalType": "address",
          "name": "_user",
          "type": "address"
        }
      ],
      "name": "pendingReward",
      "outputs": [
        {
          "internalType": "uint256",
          "name": "",
          "type": "uint256"
        }
      ],
      "stateMutability": "view",
      "type": "function"
    },
    {
      "inputs": [
        {
          "internalType": "uint256",
          "name": "",
          "type": "uint256"
        }
      ],
      "name": "pools",
      "outputs": [
        {
          "internalType": "contract IERC20",
          "name": "lpToken",
          "type": "address"
        },
        {
          "internalType": "uint256",
          "name": "allocPoint",
          "type": "uint256"
        },
        {
          "internalType": "uint256",
          "name": "lastRewardBlock",
          "type": "uint256"
        },
        {
          "internalType": "uint256",
          "name": "accRewardPerShare",
          "type": "uint256"
        },
        {
          "internalType": "uint256",
          "name": "totalStaked",
          "type": "uint256"
        }
      ],
      "stateMutability": "view",
      "type": "function"
    },
    {
      "inputs": [],
      "name": "renounceOwnership",
      "outputs": [],
      "stateMutability": "nonpayable",
      "type": "function"
    },
    {
      "inputs": [],
      "name": "rewardPerBlock",
      "outputs": [
        {
          "internalType": "uint256",
          "name": "",
          "type": "uint256"
        }
      ],
      "stateMutability": "view",
      "type": "function"
    },
    {
      "inputs": [],
      "name": "rewardToken",
      "outputs": [
        {
          "internalType": "contract IERC20",
          "name": "",
          "type": "address"
        }
      ],
      "stateMutability": "view",
      "type": "function"
    },
    {
      "inputs": [
        {
          "internalType": "uint256",
          "name": "_rewardPerBlock",
          "type": "uint256"
        }
      ],
      "name": "setRewardPerBlock",
      "outputs": [],
      "stateMutability": "nonpayable",
      "type": "function"
    },
    {
      "inputs": [],
      "name": "startBlock",
      "outputs": [
        {
          "internalType": "uint256",
          "name": "",
          "type": "uint256"
        }
      ],
      "stateMutability": "view",
      "type": "function"
    },
    {
      "inputs": [],
      "name": "totalAllocPoint",
      "outputs": [
        {
          "internalType": "uint256",
          "name": "",
          "type": "uint256"
        }
      ],
      "stateMutability": "view",
      "type": "function"
    },
    {
      "inputs": [
        {
          "internalType": "address",
          "name": "newOwner",
          "type": "address"
        }
      ],
      "name": "transferOwnership",
      "outputs": [],
      "stateMutability": "nonpayable",
      "type": "function"
    },
    {
      "inputs": [
        {
          "internalType": "uint256",
          "name": "_pid",
          "type": "uint256"
        }
      ],
      "name": "updatePool",
      "outputs": [],
      "stateMutability": "nonpayable",
      "type": "function"
    },
    {
      "inputs": [
        {
          "internalType": "uint256",
          "name": "_pid",
          "type": "uint256"
        },
        {
          "internalType": "uint256",
          "name": "_allocPoint",
          "type": "uint256"
        },
        {
          "internalType": "bool",
          "name": "_withUpdate",
          "type": "bool"
        }
      ],
      "name": "updatePoolAllocPoint",
      "outputs": [],
      "stateMutability": "nonpayable",
      "type": "function"
    },
    {
      "inputs": [
        {
          "internalType": "uint256",
          "name": "",
          "type": "uint256"
        },
        {
          "internalType": "address",
          "name": "",
          "type": "address"
        }
      ],
      "name": "userInfo",
      "outputs": [
        {
          "internalType": "uint256",
          "name": "amount",
          "type": "uint256"
        },
        {
          "internalType": "uint256",
          "name": "rewardDebt",
          "type": "uint256"
        },
        {
          "internalType": "uint256",
          "name": "boostMultiplier",
          "type": "uint256"
        },
        {
          "internalType": "uint256",
          "name": "lockEndBlock",
          "type": "uint256"
        }
      ],
      "stateMutability": "view",
      "type": "function"
    },
    {
      "inputs": [
        {
          "internalType": "address",
          "name": "",
          "type": "address"
        }
      ],
      "name": "userTotalStaked",
      "outputs": [
        {
          "internalType": "uint256",
          "name": "",
          "type": "uint256"
        }
      ],
      "stateMutability": "view",
      "type": "function"
    },
    {
      "inputs": [
        {
          "internalType": "uint256",
          "name": "_pid",
          "type": "uint256"
        },
        {
          "internalType": "uint256",
          "name": "_amount",
          "type": "uint256"
        }
      ],
      "name": "withdraw",
      "outputs": [],
      "stateMutability": "nonpayable",
      "type": "function"
    }
  ],
  "bytecode": "0x608060405234801561001057600080fd5b5060405161137138038061137183398101604081905261002f916100b8565b61003833610068565b60018055600280546001600160a01b0319166001600160a01b0394909416939093179092556003556008556100fb565b600080546001600160a01b038381166001600160a01b0319831681178455604051919092169283917f8be0079c531659141344cd1fd0a4f28419497f9722a3daafe3b4186f6b6457e09190a35050565b6000806000606084860312156100cd57600080fd5b83516001600160a01b03811681146100e457600080fd5b602085015160409095015190969495509392505050565b6112678061010a6000396000f3fe608060405234801561001057600080fd5b50600436106101415760003560e01c80637abceffd116100b8578063ac4afa381161007c578063ac4afa38146102b9578063bb872b4a146102fe578063cc6db2da14610311578063f2fde38b1461031a578063f7c618c11461032d578063fc47e2091461034057600080fd5b80637abceffd146102055780638ae39cac146102185780638da5cb5b1461022157806393f1a40b1461024657806398969e82146102a657600080fd5b80634b2767421161010a5780634b2767421461019c5780634ea1a54c146101af57806351eb05a6146101c2578063630b5ba1146101d5578063715018a6146101dd578063719de1ef146101e557600080fd5b8062aeef8a1461014657806317caf6f11461015b5780631bff609814610177578063441a3e701461018057806348cd4cb114610193575b600080fd5b610159610154366004611010565b610349565b005b61016460075481565b6040519081526020015b60405180910390f35b610164614e2081565b61015961018e36600461103c565b6105ba565b61016460085481565b6101646101aa36600461105e565b610861565b6101596101bd366004611085565b6108ae565b6101596101d036600461105e565b61093b565b610159610a0c565b610159610a33565b6101646101f33660046110d3565b60066020526000908152604090205481565b6101596102133660046110f0565b610a47565b61016460035481565b6000546001600160a01b03165b6040516001600160a01b03909116815260200161016e565b610286610254366004611127565b600560209081526000928352604080842090915290825290208054600182015460028301546003909301549192909184565b60408051948552602085019390935291830152606082015260800161016e565b6101646102b4366004611127565b610b9f565b6102cc6102c736600461105e565b610ccf565b604080516001600160a01b0390961686526020860194909452928401919091526060830152608082015260a00161016e565b61015961030c36600461105e565b610d1a565b61016461271081565b6101596103283660046110d3565b610d2f565b60025461022e906001600160a01b031681565b610164619d8081565b610351610da8565b60006004848154811061036657610366611157565b600091825260208083208784526005808352604080862033875290935291909320910290910191506103978561093b565b8054156104245760006103d882600101546103d264e8d4a510006103cc87600301548760000154610e0190919063ffffffff16565b90610e14565b90610e20565b90508015610422576103ea3382610e2c565b604051818152869033907fd6f2c8500df5b44f11e9e48b91ff9f1b9d81bc496d55570c2b1b75bf65243f519060200160405180910390a35b505b83156105535781546040516323b872dd60e01b8152336004820152306024820152604481018690526001600160a01b03909116906323b872dd906064016020604051808303816000875af1158015610480573d6000803e3d6000fd5b505050506040513d601f19601f820116820180604052508101906104a4919061116d565b5080546104b19085610f5a565b815560048201546104c29085610f5a565b6004830155336000908152600660205260409020546104e19085610f5a565b33600090815260066020526040902055821561055357600061050284610861565b6002830181905590506105154385610f5a565b6003830155604051818152869033907f459e4a2a3fe3fe5e131eabea44bfaf73943a596de711a1a1aba95eade5b36a769060200160405180910390a3505b6003820154815461056e9164e8d4a51000916103cc91610e01565b6001820155604051848152859033907f90890809c654f11d6e72a28fa60149770a0d11ec6c92319d6ceb2bb0a4ea1a159060200160405180910390a350506105b560018055565b505050565b6105c2610da8565b6000600483815481106105d7576105d7611157565b60009182526020808320868452600580835260408086203387529093529190932080549290910290920192508311156106575760405162461bcd60e51b815260206004820152601c60248201527f77697468647261773a206e6f7420656e6f7567682062616c616e63650000000060448201526064015b60405180910390fd5b80600301544310156106ab5760405162461bcd60e51b815260206004820152601d60248201527f77697468647261773a20746f6b656e73207374696c6c206c6f636b6564000000604482015260640161064e565b6106b48461093b565b60006106e282600101546103d264e8d4a510006103cc87600301548760000154610e0190919063ffffffff16565b905083156107b25781546106f69085610e20565b825560048301546107079085610e20565b6004840155336000908152600660205260409020546107269085610e20565b3360008181526006602052604090819020929092558454915163a9059cbb60e01b81526004810191909152602481018690526001600160a01b039091169063a9059cbb906044016020604051808303816000875af115801561078c573d6000803e3d6000fd5b505050506040513d601f19601f820116820180604052508101906107b0919061116d565b505b80156107fa576107c23382610e2c565b604051818152859033907fd6f2c8500df5b44f11e9e48b91ff9f1b9d81bc496d55570c2b1b75bf65243f519060200160405180910390a35b600383015482546108159164e8d4a51000916103cc91610e01565b6001830155604051848152859033907ff279e6a1f5e320cca91135676d9cb6e44ca8a08c0b88342bcdb1144f6511b5689060200160405180910390a350505061085d60018055565b5050565b60008061087083619d80610e14565b9050600061089161088860346103cc85612710610e01565b61271090610f5a565b9050614e2081116108a257806108a6565b614e205b949350505050565b6108b6610f66565b80156108c4576108c4610a0c565b61090782610901600486815481106108de576108de611157565b906000526020600020906005020160010154600754610e2090919063ffffffff16565b90610f5a565b600781905550816004848154811061092157610921611157565b906000526020600020906005020160010181905550505050565b60006004828154811061095057610950611157565b906000526020600020906005020190508060020154431161096f575050565b8060040154600003610985574360029091015550565b600061099e826002015443610e2090919063ffffffff16565b905060006109cb6007546103cc85600101546109c560035487610e0190919063ffffffff16565b90610e01565b90506109fb6109f084600401546103cc64e8d4a5100085610e0190919063ffffffff16565b600385015490610f5a565b600384015550504360029091015550565b60045460005b8181101561085d57610a238161093b565b610a2c816111a0565b9050610a12565b610a3b610f66565b610a456000610fc0565b565b610a4f610f66565b8015610a5d57610a5d610a0c565b60006008544311610a7057600854610a72565b435b600754909150610a829085610f5a565b6007556040805160a0810182526001600160a01b039485168152602081019586529081019182526000606082018181526080830182815260048054600181018255935292517f8a35acfbc15ff81a39ae7d344fd709f28e8600b4aa8c65c6b64bfe7fe36bd19b600590930292830180546001600160a01b031916919097161790955594517f8a35acfbc15ff81a39ae7d344fd709f28e8600b4aa8c65c6b64bfe7fe36bd19c86015590517f8a35acfbc15ff81a39ae7d344fd709f28e8600b4aa8c65c6b64bfe7fe36bd19d85015591517f8a35acfbc15ff81a39ae7d344fd709f28e8600b4aa8c65c6b64bfe7fe36bd19e84015550517f8a35acfbc15ff81a39ae7d344fd709f28e8600b4aa8c65c6b64bfe7fe36bd19f90910155565b60008060048481548110610bb557610bb5611157565b60009182526020808320878452600580835260408086206001600160a01b038a168752909352919093209102909101600381015460028201549193509043118015610c035750600483015415155b15610c79576000610c21846002015443610e2090919063ffffffff16565b90506000610c486007546103cc87600101546109c560035487610e0190919063ffffffff16565b9050610c74610c6d86600401546103cc64e8d4a5100085610e0190919063ffffffff16565b8490610f5a565b925050505b6000610ca383600101546103d264e8d4a510006103cc868860000154610e0190919063ffffffff16565b9050610cc26127106103cc856002015484610e0190919063ffffffff16565b9450505050505b92915050565b60048181548110610cdf57600080fd5b6000918252602090912060059091020180546001820154600283015460038401546004909401546001600160a01b0390931694509092909185565b610d22610f66565b610d2a610a0c565b600355565b610d37610f66565b6001600160a01b038116610d9c5760405162461bcd60e51b815260206004820152602660248201527f4f776e61626c653a206e6577206f776e657220697320746865207a65726f206160448201526564647265737360d01b606482015260840161064e565b610da581610fc0565b50565b600260015403610dfa5760405162461bcd60e51b815260206004820152601f60248201527f5265656e7472616e637947756172643a207265656e7472616e742063616c6c00604482015260640161064e565b6002600155565b6000610e0d82846111b9565b9392505050565b6000610e0d82846111d0565b6000610e0d82846111f2565b6002546040516370a0823160e01b81523060048201526000916001600160a01b0316906370a0823190602401602060405180830381865afa158015610e75573d6000803e3d6000fd5b505050506040513d601f19601f82011682018060405250810190610e999190611205565b905080821115610f215760025460405163a9059cbb60e01b81526001600160a01b038581166004830152602482018490529091169063a9059cbb906044015b6020604051808303816000875af1158015610ef7573d6000803e3d6000fd5b505050506040513d601f19601f82011682018060405250810190610f1b919061116d565b50505050565b60025460405163a9059cbb60e01b81526001600160a01b038581166004830152602482018590529091169063a9059cbb90604401610ed8565b6000610e0d828461121e565b6000546001600160a01b03163314610a455760405162461bcd60e51b815260206004820181905260248201527f4f776e61626c653a2063616c6c6572206973206e6f7420746865206f776e6572604482015260640161064e565b600080546001600160a01b038381166001600160a01b0319831681178455604051919092169283917f8be0079c531659141344cd1fd0a4f28419497f9722a3daafe3b4186f6b6457e09190a35050565b60008060006060848603121561102557600080fd5b505081359360208301359350604090920135919050565b6000806040838503121561104f57600080fd5b50508035926020909101359150565b60006020828403121561107057600080fd5b5035919050565b8015158114610da557600080fd5b60008060006060848603121561109a57600080fd5b833592506020840135915060408401356110b381611077565b809150509250925092565b6001600160a01b0381168114610da557600080fd5b6000602082840312156110e557600080fd5b8135610e0d816110be565b60008060006060848603121561110557600080fd5b833592506020840135611117816110be565b915060408401356110b381611077565b6000806040838503121561113a57600080fd5b82359150602083013561114c816110be565b809150509250929050565b634e487b7160e01b600052603260045260246000fd5b60006020828403121561117f57600080fd5b8151610e0d81611077565b634e487b7160e01b600052601160045260246000fd5b6000600182016111b2576111b261118a565b5060010190565b8082028115828204841417610cc957610cc961118a565b6000826111ed57634e487b7160e01b600052601260045260246000fd5b500490565b81810381811115610cc957610cc961118a565b60006020828403121561121757600080fd5b5051919050565b80820180821115610cc957610cc961118a56fea2646970667358221220891212d2f2e0f22e133b2ad575d03e7613c7110739c0756e3b07ab85abb3930f64736f6c63430008130033",
  "linkReferences": {},
  "deployedLinkReferences": {}
}