{
  "_format": "hh-sol-artifact-1",
  "contractName": "MockFlashLoanReceiver",
  "sourceName": "contracts/mocks/MockFlashLoanReceiver.sol",
  "abi": [
    {
      "inputs": [
        {
          "internalType": "address",
          "name": "flashLoan",
          "type": "address"
        }
      ],
      "stateMutability": "nonpayable",
      "type": "constructor"
    },
    {
      "inputs": [],
      "name": "FLASH_LOAN",
      "outputs": [
        {
          "internalType": "contract DAFIFlashLoan",
          "name": "",
          "type": "address"
        }
      ],
      "stateMutability": "view",
      "type": "function"
    },
    {
      "inputs": [
        {
          "internalType": "address[]",
          "name": "assets",
          "type": "address[]"
        },
        {
          "internalType": "uint256[]",
          "name": "amounts",
          "type": "uint256[]"
        },
        {
          "internalType": "uint256[]",
          "name": "premiums",
          "type": "uint256[]"
        },
        {
          "internalType": "address",
          "name": "initiator",
          "type": "address"
        },
        {
          "internalType": "bytes",
          "name": "params",
          "type": "bytes"
        }
      ],
      "name": "executeOperation",
      "outputs": [
        {
          "internalType": "bool",
          "name": "",
          "type": "bool"
        }
      ],
      "stateMutability": "nonpayable",
      "type": "function"
    },
    {
      "inputs": [
        {
          "internalType": "address",
          "name": "token",
          "type": "address"
        },
        {
          "internalType": "uint256",
          "name": "amount",
          "type": "uint256"
        }
      ],
      "name": "onTokenTransfer",
      "outputs": [],
      "stateMutability": "nonpayable",
      "type": "function"
    },
    {
      "inputs": [
        {
          "internalType": "bool",
          "name": "_shouldRepay",
          "type": "bool"
        }
      ],
      "name": "setShouldRepay",
      "outputs": [],
      "stateMutability": "nonpayable",
      "type": "function"
    },
    {
      "inputs": [],
      "name": "shouldRepay",
      "outputs": [
        {
          "internalType": "bool",
          "name": "",
          "type": "bool"
        }
      ],
      "stateMutability": "view",
      "type": "function"
    }
  ],
  "bytecode": "0x60a060405234801561001057600080fd5b506040516109aa3803806109aa83398101604081905261002f9161004d565b6001600160a01b03166080526000805460ff1916600117905561007d565b60006020828403121561005f57600080fd5b81516001600160a01b038116811461007657600080fd5b9392505050565b6080516108fe6100ac60003960008181606101528181610113015281816101cf015261026301526108fe6000f3fe608060405234801561001057600080fd5b50600436106100575760003560e01c80631d7b75171461005c57806381f3449d146100a0578063920f5c84146100c3578063c734f917146100e6578063ebf661b6146100f9575b600080fd5b6100837f000000000000000000000000000000000000000000000000000000000000000081565b6040516001600160a01b0390911681526020015b60405180910390f35b6100c16100ae3660046105ec565b6000805460ff1916911515919091179055565b005b6100d66100d1366004610678565b610106565b6040519015158152602001610097565b6100c16100f436600461077c565b610254565b6000546100d69060ff1681565b6000336001600160a01b037f000000000000000000000000000000000000000000000000000000000000000016146101745760405162461bcd60e51b815260206004820152600c60248201526b155b985d5d1a1bdc9a5e995960a21b60448201526064015b60405180910390fd5b60005460ff16156102435760005b8981101561023957600087878381811061019e5761019e6107a6565b905060200201358a8a848181106101b7576101b76107a6565b905060200201356101c891906107d2565b90506102267f0000000000000000000000000000000000000000000000000000000000000000828e8e86818110610201576102016107a6565b905060200201602081019061021691906107eb565b6001600160a01b0316919061028c565b508061023181610806565b915050610182565b5060019050610247565b5060005b9998505050505050505050565b6102886001600160a01b0383167f00000000000000000000000000000000000000000000000000000000000000008361028c565b5050565b604051636eb1769f60e11b81523060048201526001600160a01b0383811660248301526000919085169063dd62ed3e90604401602060405180830381865afa1580156102dc573d6000803e3d6000fd5b505050506040513d601f19601f82011682018060405250810190610300919061081f565b905061036b8463095ea7b360e01b8561031986866107d2565b6040516001600160a01b039092166024830152604482015260640160408051601f198184030181529190526020810180516001600160e01b03166001600160e01b031990931692909217909152610371565b50505050565b60006103c6826040518060400160405280602081526020017f5361666545524332303a206c6f772d6c6576656c2063616c6c206661696c6564815250856001600160a01b031661044b9092919063ffffffff16565b90508051600014806103e75750808060200190518101906103e79190610838565b6104465760405162461bcd60e51b815260206004820152602a60248201527f5361666545524332303a204552433230206f7065726174696f6e20646964206e6044820152691bdd081cdd58d8d9595960b21b606482015260840161016b565b505050565b606061045a8484600085610462565b949350505050565b6060824710156104c35760405162461bcd60e51b815260206004820152602660248201527f416464726573733a20696e73756666696369656e742062616c616e636520666f6044820152651c8818d85b1b60d21b606482015260840161016b565b600080866001600160a01b031685876040516104df9190610879565b60006040518083038185875af1925050503d806000811461051c576040519150601f19603f3d011682016040523d82523d6000602084013e610521565b606091505b50915091506105328783838761053d565b979650505050505050565b606083156105ac5782516000036105a5576001600160a01b0385163b6105a55760405162461bcd60e51b815260206004820152601d60248201527f416464726573733a2063616c6c20746f206e6f6e2d636f6e7472616374000000604482015260640161016b565b508161045a565b61045a83838151156105c15781518083602001fd5b8060405162461bcd60e51b815260040161016b9190610895565b80151581146105e957600080fd5b50565b6000602082840312156105fe57600080fd5b8135610609816105db565b9392505050565b60008083601f84011261062257600080fd5b50813567ffffffffffffffff81111561063a57600080fd5b6020830191508360208260051b850101111561065557600080fd5b9250929050565b80356001600160a01b038116811461067357600080fd5b919050565b600080600080600080600080600060a08a8c03121561069657600080fd5b893567ffffffffffffffff808211156106ae57600080fd5b6106ba8d838e01610610565b909b50995060208c01359150808211156106d357600080fd5b6106df8d838e01610610565b909950975060408c01359150808211156106f857600080fd5b6107048d838e01610610565b909750955085915061071860608d0161065c565b945060808c013591508082111561072e57600080fd5b818c0191508c601f83011261074257600080fd5b81358181111561075157600080fd5b8d602082850101111561076357600080fd5b6020830194508093505050509295985092959850929598565b6000806040838503121561078f57600080fd5b6107988361065c565b946020939093013593505050565b634e487b7160e01b600052603260045260246000fd5b634e487b7160e01b600052601160045260246000fd5b808201808211156107e5576107e56107bc565b92915050565b6000602082840312156107fd57600080fd5b6106098261065c565b600060018201610818576108186107bc565b5060010190565b60006020828403121561083157600080fd5b5051919050565b60006020828403121561084a57600080fd5b8151610609816105db565b60005b83811015610870578181015183820152602001610858565b50506000910152565b6000825161088b818460208701610855565b9190910192915050565b60208152600082518060208401526108b4816040850160208701610855565b601f01601f1916919091016040019291505056fea26469706673582212201484082e105ee4745c56d95481f58cfcdd55d387561db2d5b29b2927bfb9526264736f6c63430008130033",
  "linkReferences": {},
  "deployedLinkReferences": {}
}