{
  "_format": "hh-sol-artifact-1",
  "contractName": "DAFIVault",
  "sourceName": "contracts/DAFIVault.sol",
  "abi": [
    {
      "inputs": [
        {
          "internalType": "address",
          "name": "_token",
          "type": "address"
        },
        {
          "internalType": "string",
          "name": "_name",
          "type": "string"
        },
        {
          "internalType": "string",
          "name": "_symbol",
          "type": "string"
        }
      ],
      "stateMutability": "nonpayable",
      "type": "constructor"
    },
    {
      "anonymous": false,
      "inputs": [
        {
          "indexed": true,
          "internalType": "address",
          "name": "owner",
          "type": "address"
        },
        {
          "indexed": true,
          "internalType": "address",
          "name": "spender",
          "type": "address"
        },
        {
          "indexed": false,
          "internalType": "uint256",
          "name": "value",
          "type": "uint256"
        }
      ],
      "name": "Approval",
      "type": "event"
    },
    {
      "anonymous": false,
      "inputs": [
        {
          "indexed": true,
          "internalType": "address",
          "name": "user",
          "type": "address"
        },
        {
          "indexed": false,
          "internalType": "uint256",
          "name": "amount",
          "type": "uint256"
        },
        {
          "indexed": false,
          "internalType": "uint256",
          "name": "shares",
          "type": "uint256"
        }
      ],
      "name": "Deposit",
      "type": "event"
    },
    {
      "anonymous": false,
      "inputs": [
        {
          "indexed": false,
          "internalType": "uint256",
          "name": "amount",
          "type": "uint256"
        }
      ],
      "name": "EmergencyWithdraw",
      "type": "event"
    },
    {
      "anonymous": false,
      "inputs": [
        {
          "indexed": false,
          "internalType": "uint256",
          "name": "profit",
          "type": "uint256"
        },
        {
          "indexed": false,
          "internalType": "uint256",
          "name": "performanceFee",
          "type": "uint256"
        }
      ],
      "name": "Harvested",
      "type": "event"
    },
    {
      "anonymous": false,
      "inputs": [
        {
          "indexed": true,
          "internalType": "address",
          "name": "previousOwner",
          "type": "address"
        },
        {
          "indexed": true,
          "internalType": "address",
          "name": "newOwner",
          "type": "address"
        }
      ],
      "name": "OwnershipTransferred",
      "type": "event"
    },
    {
      "anonymous": false,
      "inputs": [
        {
          "indexed": true,
          "internalType": "uint256",
          "name": "strategyId",
          "type": "uint256"
        },
        {
          "indexed": false,
          "internalType": "address",
          "name": "strategy",
          "type": "address"
        },
        {
          "indexed": false,
          "internalType": "uint256",
          "name": "allocation",
          "type": "uint256"
        }
      ],
      "name": "StrategyAdded",
      "type": "event"
    },
    {
      "anonymous": false,
      "inputs": [
        {
          "indexed": true,
          "internalType": "uint256",
          "name": "strategyId",
          "type": "uint256"
        },
        {
          "indexed": false,
          "internalType": "uint256",
          "name": "allocation",
          "type": "uint256"
        }
      ],
      "name": "StrategyUpdated",
      "type": "event"
    },
    {
      "anonymous": false,
      "inputs": [
        {
          "indexed": true,
          "internalType": "address",
          "name": "from",
          "type": "address"
        },
        {
          "indexed": true,
          "internalType": "address",
          "name": "to",
          "type": "address"
        },
        {
          "indexed": false,
          "internalType": "uint256",
          "name": "value",
          "type": "uint256"
        }
      ],
      "name": "Transfer",
      "type": "event"
    },
    {
      "anonymous": false,
      "inputs": [
        {
          "indexed": true,
          "internalType": "address",
          "name": "user",
          "type": "address"
        },
        {
          "indexed": false,
          "internalType": "uint256",
          "name": "amount",
          "type": "uint256"
        },
        {
          "indexed": false,
          "internalType": "uint256",
          "name": "shares",
          "type": "uint256"
        }
      ],
      "name": "Withdraw",
      "type": "event"
    },
    {
      "inputs": [],
      "name": "ALLOCATION_PRECISION",
      "outputs": [
        {
          "internalType": "uint256",
          "name": "",
          "type": "uint256"
        }
      ],
      "stateMutability": "view",
      "type": "function"
    },
    {
      "inputs": [],
      "name": "MAX_STRATEGIES",
      "outputs": [
        {
          "internalType": "uint256",
          "name": "",
          "type": "uint256"
        }
      ],
      "stateMutability": "view",
      "type": "function"
    },
    {
      "inputs": [],
      "name": "MIN_LOCK_TIME",
      "outputs": [
        {
          "internalType": "uint256",
          "name": "",
          "type": "uint256"
        }
      ],
      "stateMutability": "view",
      "type": "function"
    },
    {
      "inputs": [
        {
          "internalType": "address",
          "name": "_strategy",
          "type": "address"
        },
        {
          "internalType": "uint256",
          "name": "_allocation",
          "type": "uint256"
        }
      ],
      "name": "addStrategy",
      "outputs": [],
      "stateMutability": "nonpayable",
      "type": "function"
    },
    {
      "inputs": [
        {
          "internalType": "address",
          "name": "owner",
          "type": "address"
        },
        {
          "internalType": "address",
          "name": "spender",
          "type": "address"
        }
      ],
      "name": "allowance",
      "outputs": [
        {
          "internalType": "uint256",
          "name": "",
          "type": "uint256"
        }
      ],
      "stateMutability": "view",
      "type": "function"
    },
    {
      "inputs": [
        {
          "internalType": "address",
          "name": "spender",
          "type": "address"
        },
        {
          "internalType": "uint256",
          "name": "amount",
          "type": "uint256"
        }
      ],
      "name": "approve",
      "outputs": [
        {
          "internalType": "bool",
          "name": "",
          "type": "bool"
        }
      ],
      "stateMutability": "nonpayable",
      "type": "function"
    },
    {
      "inputs": [
        {
          "internalType": "address",
          "name": "account",
          "type": "address"
        }
      ],
      "name": "balanceOf",
      "outputs": [
        {
          "internalType": "uint256",
          "name": "",
          "type": "uint256"
        }
      ],
      "stateMutability": "view",
      "type": "function"
    },
    {
      "inputs": [],
      "name": "decimals",
      "outputs": [
        {
          "internalType": "uint8",
          "name": "",
          "type": "uint8"
        }
      ],
      "stateMutability": "view",
      "type": "function"
    },
    {
      "inputs": [
        {
          "internalType": "address",
          "name": "spender",
          "type": "address"
        },
        {
          "internalType": "uint256",
          "name": "subtractedValue",
          "type": "uint256"
        }
      ],
      "name": "decreaseAllowance",
      "outputs": [
        {
          "internalType": "bool",
          "name": "",
          "type": "bool"
        }
      ],
      "stateMutability": "nonpayable",
      "type": "function"
    },
    {
      "inputs": [
        {
          "internalType": "uint256",
          "name": "amount",
          "type": "uint256"
        }
      ],
      "name": "deposit",
      "outputs": [],
      "stateMutability": "nonpayable",
      "type": "function"
    },
    {
      "inputs": [
        {
          "internalType": "address",
          "name": "",
          "type": "address"
        }
      ],
      "name": "depositTimestamp",
      "outputs": [
        {
          "internalType": "uint256",
          "name": "",
          "type": "uint256"
        }
      ],
      "stateMutability": "view",
      "type": "function"
    },
    {
      "inputs": [],
      "name": "emergencyWithdraw",
      "outputs": [],
      "stateMutability": "nonpayable",
      "type": "function"
    },
    {
      "inputs": [],
      "name": "harvest",
      "outputs": [],
      "stateMutability": "nonpayable",
      "type": "function"
    },
    {
      "inputs": [],
      "name": "harvestThreshold",
      "outputs": [
        {
          "internalType": "uint256",
          "name": "",
          "type": "uint256"
        }
      ],
      "stateMutability": "view",
      "type": "function"
    },
    {
      "inputs": [
        {
          "internalType": "address",
          "name": "spender",
          "type": "address"
        },
        {
          "internalType": "uint256",
          "name": "addedValue",
          "type": "uint256"
        }
      ],
      "name": "increaseAllowance",
      "outputs": [
        {
          "internalType": "bool",
          "name": "",
          "type": "bool"
        }
      ],
      "stateMutability": "nonpayable",
      "type": "function"
    },
    {
      "inputs": [],
      "name": "lastHarvest",
      "outputs": [
        {
          "internalType": "uint256",
          "name": "",
          "type": "uint256"
        }
      ],
      "stateMutability": "view",
      "type": "function"
    },
    {
      "inputs": [],
      "name": "name",
      "outputs": [
        {
          "internalType": "string",
          "name": "",
          "type": "string"
        }
      ],
      "stateMutability": "view",
      "type": "function"
    },
    {
      "inputs": [],
      "name": "owner",
      "outputs": [
        {
          "internalType": "address",
          "name": "",
          "type": "address"
        }
      ],
      "stateMutability": "view",
      "type": "function"
    },
    {
      "inputs": [],
      "name": "performanceFee",
      "outputs": [
        {
          "internalType": "uint256",
          "name": "",
          "type": "uint256"
        }
      ],
      "stateMutability": "view",
      "type": "function"
    },
    {
      "inputs": [],
      "name": "renounceOwnership",
      "outputs": [],
      "stateMutability": "nonpayable",
      "type": "function"
    },
    {
      "inputs": [
        {
          "internalType": "uint256",
          "name": "_fee",
          "type": "uint256"
        }
      ],
      "name": "setPerformanceFee",
      "outputs": [],
      "stateMutability": "nonpayable",
      "type": "function"
    },
    {
      "inputs": [
        {
          "internalType": "uint256",
          "name": "_fee",
          "type": "uint256"
        }
      ],
      "name": "setWithdrawalFee",
      "outputs": [],
      "stateMutability": "nonpayable",
      "type": "function"
    },
    {
      "inputs": [
        {
          "internalType": "uint256",
          "name": "",
          "type": "uint256"
        }
      ],
      "name": "strategies",
      "outputs": [
        {
          "internalType": "contract IStrategy",
          "name": "strategy",
          "type": "address"
        },
        {
          "internalType": "uint256",
          "name": "allocation",
          "type": "uint256"
        },
        {
          "internalType": "bool",
          "name": "active",
          "type": "bool"
        }
      ],
      "stateMutability": "view",
      "type": "function"
    },
    {
      "inputs": [],
      "name": "strategyCount",
      "outputs": [
        {
          "internalType": "uint256",
          "name": "",
          "type": "uint256"
        }
      ],
      "stateMutability": "view",
      "type": "function"
    },
    {
      "inputs": [],
      "name": "symbol",
      "outputs": [
        {
          "internalType": "string",
          "name": "",
          "type": "string"
        }
      ],
      "stateMutability": "view",
      "type": "function"
    },
    {
      "inputs": [],
      "name": "token",
      "outputs": [
        {
          "internalType": "contract IERC20",
          "name": "",
          "type": "address"
        }
      ],
      "stateMutability": "view",
      "type": "function"
    },
    {
      "inputs": [],
      "name": "totalAssets",
      "outputs": [
        {
          "internalType": "uint256",
          "name": "",
          "type": "uint256"
        }
      ],
      "stateMutability": "view",
      "type": "function"
    },
    {
      "inputs": [],
      "name": "totalInvested",
      "outputs": [
        {
          "internalType": "uint256",
          "name": "",
          "type": "uint256"
        }
      ],
      "stateMutability": "view",
      "type": "function"
    },
    {
      "inputs": [],
      "name": "totalSupply",
      "outputs": [
        {
          "internalType": "uint256",
          "name": "",
          "type": "uint256"
        }
      ],
      "stateMutability": "view",
      "type": "function"
    },
    {
      "inputs": [
        {
          "internalType": "address",
          "name": "to",
          "type": "address"
        },
        {
          "internalType": "uint256",
          "name": "amount",
          "type": "uint256"
        }
      ],
      "name": "transfer",
      "outputs": [
        {
          "internalType": "bool",
          "name": "",
          "type": "bool"
        }
      ],
      "stateMutability": "nonpayable",
      "type": "function"
    },
    {
      "inputs": [
        {
          "internalType": "address",
          "name": "from",
          "type": "address"
        },
        {
          "internalType": "address",
          "name": "to",
          "type": "address"
        },
        {
          "internalType": "uint256",
          "name": "amount",
          "type": "uint256"
        }
      ],
      "name": "transferFrom",
      "outputs": [
        {
          "internalType": "bool",
          "name": "",
          "type": "bool"
        }
      ],
      "stateMutability": "nonpayable",
      "type": "function"
    },
    {
      "inputs": [
        {
          "internalType": "address",
          "name": "newOwner",
          "type": "address"
        }
      ],
      "name": "transferOwnership",
      "outputs": [],
      "stateMutability": "nonpayable",
      "type": "function"
    },
    {
      "inputs": [
        {
          "internalType": "uint256",
          "name": "_strategyId",
          "type": "uint256"
        },
        {
          "internalType": "uint256",
          "name": "_allocation",
          "type": "uint256"
        }
      ],
      "name": "updateStrategy",
      "outputs": [],
      "stateMutability": "nonpayable",
      "type": "function"
    },
    {
      "inputs": [
        {
          "internalType": "uint256",
          "name": "shares",
          "type": "uint256"
        }
      ],
      "name": "withdraw",
      "outputs": [],
      "stateMutability": "nonpayable",
      "type": "function"
    },
    {
      "inputs": [],
      "name": "withdrawalFee",
      "outputs": [
        {
          "internalType": "uint256",
          "name": "",
          "type": "uint256"
        }
      ],
      "stateMutability": "view",
      "type": "function"
    }
  ],
  "bytecode": "0x60a0604052600a6009556103e8600a553480156200001c57600080fd5b5060405162002908380380620029088339810160408190526200003f916200019c565b818160036200004f8382620002b5565b5060046200005e8282620002b5565b5050600160055550620000713362000085565b50506001600160a01b031660805262000381565b600680546001600160a01b038381166001600160a01b0319831681179093556040519116919082907f8be0079c531659141344cd1fd0a4f28419497f9722a3daafe3b4186f6b6457e090600090a35050565b634e487b7160e01b600052604160045260246000fd5b600082601f830112620000ff57600080fd5b81516001600160401b03808211156200011c576200011c620000d7565b604051601f8301601f19908116603f01168101908282118183101715620001475762000147620000d7565b816040528381526020925086838588010111156200016457600080fd5b600091505b8382101562000188578582018301518183018401529082019062000169565b600093810190920192909252949350505050565b600080600060608486031215620001b257600080fd5b83516001600160a01b0381168114620001ca57600080fd5b60208501519093506001600160401b0380821115620001e857600080fd5b620001f687838801620000ed565b935060408601519150808211156200020d57600080fd5b506200021c86828701620000ed565b9150509250925092565b600181811c908216806200023b57607f821691505b6020821081036200025c57634e487b7160e01b600052602260045260246000fd5b50919050565b601f821115620002b057600081815260208120601f850160051c810160208610156200028b5750805b601f850160051c820191505b81811015620002ac5782815560010162000297565b5050505b505050565b81516001600160401b03811115620002d157620002d1620000d7565b620002e981620002e2845462000226565b8462000262565b602080601f831160018114620003215760008415620003085750858301515b600019600386901b1c1916600185901b178555620002ac565b600085815260208120601f198616915b82811015620003525788860151825594840194600190910190840162000331565b5085821015620003715787850151600019600388901b60f8161c191681555b5050505050600190811b01905550565b608051612525620003e3600039600081816104ac015281816104f00152818161082b0152818161087101528181610a3901528181610e280152818161118e01528181611b3b01528181611b8201528181611df70152611e3d01526125256000f3fe608060405234801561001057600080fd5b50600436106102105760003560e01c806370a0823111610125578063ac1e5025116100ad578063db2e21bc1161007c578063db2e21bc14610470578063dd62ed3e14610478578063f1a392da1461048b578063f2fde38b14610494578063fc0c546a146104a757600080fd5b8063ac1e5025146103d4578063b6b55f25146103e7578063c9411e22146103fa578063d574ea3d1461040d57600080fd5b80638bc7e8c4116100f45780638bc7e8c4146103785780638da5cb5b1461038157806395d89b41146103a6578063a457c2d7146103ae578063a9059cbb146103c157600080fd5b806370a0823114610336578063715018a61461035f578063767f06ae14610367578063877887821461036f57600080fd5b8063313ce567116101a85780634641257d116101775780634641257d146102df57806346b00d04146102e75780635216aeec146103075780636502b3271461031057806370897b231461032357600080fd5b8063313ce567146102aa57806339509351146102b95780633ff03207146102cc57806344856659146102d657600080fd5b806318160ddd116101e457806318160ddd1461027157806322068b441461027957806323b872dd146102825780632e1a7d4d1461029557600080fd5b80624fbf6b1461021557806301e1d1141461023157806306fdde0314610239578063095ea7b31461024e575b600080fd5b61021e61271081565b6040519081526020015b60405180910390f35b61021e6104ce565b610241610621565b6040516102289190612298565b61026161025c3660046122e7565b6106b3565b6040519015158152602001610228565b60025461021e565b61021e60085481565b610261610290366004612311565b6106cd565b6102a86102a336600461234d565b6106f1565b005b60405160128152602001610228565b6102616102c73660046122e7565b6108e3565b61021e6201518081565b61021e600b5481565b6102a8610905565b61021e6102f5366004612366565b600e6020526000908152604090205481565b61021e600d5481565b6102a861031e366004612381565b610aa2565b6102a861033136600461234d565b610c5a565b61021e610344366004612366565b6001600160a01b031660009081526020819052604090205490565b6102a8610ca8565b61021e600a81565b61021e600a5481565b61021e60095481565b6006546001600160a01b03165b6040516001600160a01b039091168152602001610228565b610241610cbc565b6102616103bc3660046122e7565b610ccb565b6102616103cf3660046122e7565b610d46565b6102a86103e236600461234d565b610d54565b6102a86103f536600461234d565b610da2565b6102a86104083660046122e7565b610ebb565b61044961041b36600461234d565b6007602052600090815260409020805460018201546002909201546001600160a01b03909116919060ff1683565b604080516001600160a01b0390941684526020840192909252151590820152606001610228565b6102a86110cf565b61021e6104863660046123a3565b611254565b61021e600c5481565b6102a86104a2366004612366565b61127f565b61038e7f000000000000000000000000000000000000000000000000000000000000000081565b6040516370a0823160e01b815230600482015260009081906001600160a01b037f000000000000000000000000000000000000000000000000000000000000000016906370a0823190602401602060405180830381865afa158015610537573d6000803e3d6000fd5b505050506040513d601f19601f8201168201806040525081019061055b91906123d6565b905060005b60085481101561061b5760008181526007602052604090206002015460ff161561060957600081815260076020908152604091829020548251631485abbb60e21b81529251610606936001600160a01b0390921692635216aeec92600480820193918290030181865afa1580156105db573d6000803e3d6000fd5b505050506040513d601f19601f820116820180604052508101906105ff91906123d6565b83906112f5565b91505b8061061381612405565b915050610560565b50919050565b6060600380546106309061241e565b80601f016020809104026020016040519081016040528092919081815260200182805461065c9061241e565b80156106a95780601f1061067e576101008083540402835291602001916106a9565b820191906000526020600020905b81548152906001019060200180831161068c57829003601f168201915b5050505050905090565b6000336106c1818585611308565b60019150505b92915050565b6000336106db85828561142c565b6106e68585856114a6565b506001949350505050565b6106f961164a565b6000811180156107185750336000908152602081905260409020548111155b61075a5760405162461bcd60e51b815260206004820152600e60248201526d496e76616c69642073686172657360901b60448201526064015b60405180910390fd5b336000908152600e6020526040902054610778906201518090612452565b4210156107b65760405162461bcd60e51b815260206004820152600c60248201526b14dd1a5b1b081b1bd8dad95960a21b6044820152606401610751565b60006107dc6107c460025490565b6107d66107cf6104ce565b85906116a3565b906116af565b905060006107fb6127106107d6600954856116a390919063ffffffff16565b9050600061080983836116bb565b905061081533856116c7565b61081e836117f9565b6108526001600160a01b037f00000000000000000000000000000000000000000000000000000000000000001633836118ef565b6108986108676006546001600160a01b031690565b6001600160a01b037f00000000000000000000000000000000000000000000000000000000000000001690846118ef565b604080518281526020810186905233917ff279e6a1f5e320cca91135676d9cb6e44ca8a08c0b88342bcdb1144f6511b568910160405180910390a25050506108e06001600555565b50565b6000336106c18185856108f68383611254565b6109009190612452565b611308565b600c546109159062015180612452565b42101561095c5760405162461bcd60e51b8152602060048201526015602482015274546f6f206672657175656e7420686172766573747360581b6044820152606401610751565b6000805b6008548110156109f45760008181526007602052604090206002015460ff16156109e2576000818152600760209081526040808320548151634641257d60e01b815291516109df946001600160a01b0390921693634641257d936004808201949293929183900301908290875af11580156105db573d6000803e3d6000fd5b91505b806109ec81612405565b915050610960565b508015610a9b576000610a186127106107d6600a54856116a390919063ffffffff16565b9050610a60610a2f6006546001600160a01b031690565b6001600160a01b037f00000000000000000000000000000000000000000000000000000000000000001690836118ef565b60408051838152602081018390527ffa07446fad45314351eb89109a154880278451332bb87f1824d435fe58da5939910160405180910390a1505b5042600c55565b610aaa611952565b6008548210610aee5760405162461bcd60e51b815260206004820152601060248201526f496e76616c696420737472617465677960801b6044820152606401610751565b60008281526007602052604090206002015460ff16610b455760405162461bcd60e51b81526020600482015260136024820152725374726174656779206e6f742061637469766560681b6044820152606401610751565b6000805b600854811015610bab5760008181526007602052604090206002015460ff168015610b745750838114155b15610b9957600081815260076020526040902060010154610b969083906112f5565b91505b80610ba381612405565b915050610b49565b50612710610bb982846112f5565b1115610bfd5760405162461bcd60e51b8152602060048201526013602482015272082d8d8dec6c2e8d2dedc40e8dede40d0d2ced606b1b6044820152606401610751565b600083815260076020526040908190206001018390555183907f4013b0db7cf4aa4abdbe70714f5bcf2f1c3080326667c626ee8cc14a3288282f90610c459085815260200190565b60405180910390a2610c556119ac565b505050565b610c62611952565b610bb8811115610ca35760405162461bcd60e51b815260206004820152600c60248201526b08ccaca40e8dede40d0d2ced60a31b6044820152606401610751565b600a55565b610cb0611952565b610cba6000611c30565b565b6060600480546106309061241e565b60003381610cd98286611254565b905083811015610d395760405162461bcd60e51b815260206004820152602560248201527f45524332303a2064656372656173656420616c6c6f77616e63652062656c6f77604482015264207a65726f60d81b6064820152608401610751565b6106e68286868403611308565b6000336106c18185856114a6565b610d5c611952565b6103e8811115610d9d5760405162461bcd60e51b815260206004820152600c60248201526b08ccaca40e8dede40d0d2ced60a31b6044820152606401610751565b600955565b610daa61164a565b60008111610deb5760405162461bcd60e51b815260206004820152600e60248201526d125b9d985b1a5908185b5bdd5b9d60921b6044820152606401610751565b6000610df660025490565b15610e1757610e12610e066104ce565b6107d66107cf60025490565b610e19565b815b9050610e506001600160a01b037f000000000000000000000000000000000000000000000000000000000000000016333085611c82565b610e5a3382611cba565b336000908152600e60205260409020429055610e7582611d79565b604080518381526020810183905233917f90890809c654f11d6e72a28fa60149770a0d11ec6c92319d6ceb2bb0a4ea1a15910160405180910390a2506108e06001600555565b610ec3611952565b600a60085410610f0b5760405162461bcd60e51b8152602060048201526013602482015272546f6f206d616e79207374726174656769657360681b6044820152606401610751565b612710811115610f525760405162461bcd60e51b815260206004820152601260248201527124b73b30b634b21030b63637b1b0ba34b7b760711b6044820152606401610751565b6000805b600854811015610fac5760008181526007602052604090206002015460ff1615610f9a57600081815260076020526040902060010154610f979083906112f5565b91505b80610fa481612405565b915050610f56565b50612710610fba82846112f5565b1115610ffe5760405162461bcd60e51b8152602060048201526013602482015272082d8d8dec6c2e8d2dedc40e8dede40d0d2ced606b1b6044820152606401610751565b604080516060810182526001600160a01b038581168083526020808401878152600185870181815260088054600090815260078652899020975188546001600160a01b0319169716969096178755915190860155516002909401805460ff1916941515949094179093559054835191825291810185905290917fe29e5861eca7c6e4c466b83b182ac36bf926b16e500c62747a7fcd867af8c738910160405180910390a2600880549060006110b283612405565b919050555060006110c16104ce565b1115610c5557610c556119ac565b6110d7611952565b60005b6008548110156111755760008181526007602052604090206002015460ff1615611163576000818152600760205260408082205481516336cb886f60e21b815291516001600160a01b039091169263db2e21bc926004808201939182900301818387803b15801561114a57600080fd5b505af115801561115e573d6000803e3d6000fd5b505050505b8061116d81612405565b9150506110da565b506040516370a0823160e01b81523060048201526000907f00000000000000000000000000000000000000000000000000000000000000006001600160a01b0316906370a0823190602401602060405180830381865afa1580156111dd573d6000803e3d6000fd5b505050506040513d601f19601f8201168201806040525081019061120191906123d6565b9050801561121e5761121e610a2f6006546001600160a01b031690565b6040518181527f99d7f8b71cfb9126984f7a5eed3a40e64a8959e9b0e442221546fb04ec6a489c9060200160405180910390a150565b6001600160a01b03918216600090815260016020908152604080832093909416825291909152205490565b611287611952565b6001600160a01b0381166112ec5760405162461bcd60e51b815260206004820152602660248201527f4f776e61626c653a206e6577206f776e657220697320746865207a65726f206160448201526564647265737360d01b6064820152608401610751565b6108e081611c30565b60006113018284612452565b9392505050565b6001600160a01b03831661136a5760405162461bcd60e51b8152602060048201526024808201527f45524332303a20617070726f76652066726f6d20746865207a65726f206164646044820152637265737360e01b6064820152608401610751565b6001600160a01b0382166113cb5760405162461bcd60e51b815260206004820152602260248201527f45524332303a20617070726f766520746f20746865207a65726f206164647265604482015261737360f01b6064820152608401610751565b6001600160a01b0383811660008181526001602090815260408083209487168084529482529182902085905590518481527f8c5be1e5ebec7d5bd14f71427d1e84f3dd0314c0f7b2291e5b200ac8c7c3b925910160405180910390a3505050565b60006114388484611254565b905060001981146114a057818110156114935760405162461bcd60e51b815260206004820152601d60248201527f45524332303a20696e73756666696369656e7420616c6c6f77616e63650000006044820152606401610751565b6114a08484848403611308565b50505050565b6001600160a01b03831661150a5760405162461bcd60e51b815260206004820152602560248201527f45524332303a207472616e736665722066726f6d20746865207a65726f206164604482015264647265737360d81b6064820152608401610751565b6001600160a01b03821661156c5760405162461bcd60e51b815260206004820152602360248201527f45524332303a207472616e7366657220746f20746865207a65726f206164647260448201526265737360e81b6064820152608401610751565b6001600160a01b038316600090815260208190526040902054818110156115e45760405162461bcd60e51b815260206004820152602660248201527f45524332303a207472616e7366657220616d6f756e7420657863656564732062604482015265616c616e636560d01b6064820152608401610751565b6001600160a01b03848116600081815260208181526040808320878703905593871680835291849020805487019055925185815290927fddf252ad1be2c89b69c2b068fc378daa952ba7f163c4a11628f55a4df523b3ef910160405180910390a36114a0565b60026005540361169c5760405162461bcd60e51b815260206004820152601f60248201527f5265656e7472616e637947756172643a207265656e7472616e742063616c6c006044820152606401610751565b6002600555565b60006113018284612465565b6000611301828461247c565b6000611301828461249e565b6001600160a01b0382166117275760405162461bcd60e51b815260206004820152602160248201527f45524332303a206275726e2066726f6d20746865207a65726f206164647265736044820152607360f81b6064820152608401610751565b6001600160a01b0382166000908152602081905260409020548181101561179b5760405162461bcd60e51b815260206004820152602260248201527f45524332303a206275726e20616d6f756e7420657863656564732062616c616e604482015261636560f01b6064820152608401610751565b6001600160a01b0383166000818152602081815260408083208686039055600280548790039055518581529192917fddf252ad1be2c89b69c2b068fc378daa952ba7f163c4a11628f55a4df523b3ef910160405180910390a3505050565b8060005b6008548110801561180e5750600082115b15610c555760008181526007602052604090206002015460ff16156118dd5760008181526007602052604081206001015461185290612710906107d69087906116a3565b905080156118db5760008281526007602052604090819020549051632e1a7d4d60e01b8152600481018390526001600160a01b0390911690632e1a7d4d90602401600060405180830381600087803b1580156118ad57600080fd5b505af11580156118c1573d6000803e3d6000fd5b505050506118d881846116bb90919063ffffffff16565b92505b505b806118e781612405565b9150506117fd565b6040516001600160a01b038316602482015260448101829052610c5590849063a9059cbb60e01b906064015b60408051601f198184030181529190526020810180516001600160e01b03166001600160e01b031990931692909217909152611efa565b6006546001600160a01b03163314610cba5760405162461bcd60e51b815260206004820181905260248201527f4f776e61626c653a2063616c6c6572206973206e6f7420746865206f776e65726044820152606401610751565b60006119b66104ce565b905060005b600854811015611c2c5760008181526007602052604090206002015460ff1615611c1a57600081815260076020526040812060010154611a0490612710906107d69086906116a3565b6000838152600760209081526040808320548151631485abbb60e21b8152915194955092936001600160a01b0390931692635216aeec926004808401939192918290030181865afa158015611a5d573d6000803e3d6000fd5b505050506040513d601f19601f82011682018060405250810190611a8191906123d6565b905081811115611b07576000838152600760205260409020546001600160a01b0316632e1a7d4d611ab283856116bb565b6040518263ffffffff1660e01b8152600401611ad091815260200190565b600060405180830381600087803b158015611aea57600080fd5b505af1158015611afe573d6000803e3d6000fd5b50505050611c17565b81811015611c17576000611b1b83836116bb565b600085815260076020526040812054919250611b65916001600160a01b037f0000000000000000000000000000000000000000000000000000000000000000811692911690611fcf565b600084815260076020526040902054611bab906001600160a01b037f00000000000000000000000000000000000000000000000000000000000000008116911683611fcf565b600084815260076020526040908190205490516255f9e960e71b8152600481018390526001600160a01b0390911690632afcf48090602401600060405180830381600087803b158015611bfd57600080fd5b505af1158015611c11573d6000803e3d6000fd5b50505050505b50505b80611c2481612405565b9150506119bb565b5050565b600680546001600160a01b038381166001600160a01b0319831681179093556040519116919082907f8be0079c531659141344cd1fd0a4f28419497f9722a3daafe3b4186f6b6457e090600090a35050565b6040516001600160a01b03808516602483015283166044820152606481018290526114a09085906323b872dd60e01b9060840161191b565b6001600160a01b038216611d105760405162461bcd60e51b815260206004820152601f60248201527f45524332303a206d696e7420746f20746865207a65726f2061646472657373006044820152606401610751565b8060026000828254611d229190612452565b90915550506001600160a01b038216600081815260208181526040808320805486019055518481527fddf252ad1be2c89b69c2b068fc378daa952ba7f163c4a11628f55a4df523b3ef910160405180910390a35050565b8060005b60085481108015611d8e5750600082115b15610c555760008181526007602052604090206002015460ff1615611ee857600081815260076020526040812060010154611dd290612710906107d69087906116a3565b90508015611ee657600082815260076020526040812054611e20916001600160a01b037f00000000000000000000000000000000000000000000000000000000000000008116921690611fcf565b600082815260076020526040902054611e66906001600160a01b037f00000000000000000000000000000000000000000000000000000000000000008116911683611fcf565b600082815260076020526040908190205490516255f9e960e71b8152600481018390526001600160a01b0390911690632afcf48090602401600060405180830381600087803b158015611eb857600080fd5b505af1158015611ecc573d6000803e3d6000fd5b50505050611ee381846116bb90919063ffffffff16565b92505b505b80611ef281612405565b915050611d7d565b6000611f4f826040518060400160405280602081526020017f5361666545524332303a206c6f772d6c6576656c2063616c6c206661696c6564815250856001600160a01b03166120e49092919063ffffffff16565b9050805160001480611f70575080806020019051810190611f7091906124b1565b610c555760405162461bcd60e51b815260206004820152602a60248201527f5361666545524332303a204552433230206f7065726174696f6e20646964206e6044820152691bdd081cdd58d8d9595960b21b6064820152608401610751565b8015806120495750604051636eb1769f60e11b81523060048201526001600160a01b03838116602483015284169063dd62ed3e90604401602060405180830381865afa158015612023573d6000803e3d6000fd5b505050506040513d601f19601f8201168201806040525081019061204791906123d6565b155b6120b45760405162461bcd60e51b815260206004820152603660248201527f5361666545524332303a20617070726f76652066726f6d206e6f6e2d7a65726f60448201527520746f206e6f6e2d7a65726f20616c6c6f77616e636560501b6064820152608401610751565b6040516001600160a01b038316602482015260448101829052610c5590849063095ea7b360e01b9060640161191b565b60606120f384846000856120fb565b949350505050565b60608247101561215c5760405162461bcd60e51b815260206004820152602660248201527f416464726573733a20696e73756666696369656e742062616c616e636520666f6044820152651c8818d85b1b60d21b6064820152608401610751565b600080866001600160a01b0316858760405161217891906124d3565b60006040518083038185875af1925050503d80600081146121b5576040519150601f19603f3d011682016040523d82523d6000602084013e6121ba565b606091505b50915091506121cb878383876121d6565b979650505050505050565b6060831561224557825160000361223e576001600160a01b0385163b61223e5760405162461bcd60e51b815260206004820152601d60248201527f416464726573733a2063616c6c20746f206e6f6e2d636f6e74726163740000006044820152606401610751565b50816120f3565b6120f3838381511561225a5781518083602001fd5b8060405162461bcd60e51b81526004016107519190612298565b60005b8381101561228f578181015183820152602001612277565b50506000910152565b60208152600082518060208401526122b7816040850160208701612274565b601f01601f19169190910160400192915050565b80356001600160a01b03811681146122e257600080fd5b919050565b600080604083850312156122fa57600080fd5b612303836122cb565b946020939093013593505050565b60008060006060848603121561232657600080fd5b61232f846122cb565b925061233d602085016122cb565b9150604084013590509250925092565b60006020828403121561235f57600080fd5b5035919050565b60006020828403121561237857600080fd5b611301826122cb565b6000806040838503121561239457600080fd5b50508035926020909101359150565b600080604083850312156123b657600080fd5b6123bf836122cb565b91506123cd602084016122cb565b90509250929050565b6000602082840312156123e857600080fd5b5051919050565b634e487b7160e01b600052601160045260246000fd5b600060018201612417576124176123ef565b5060010190565b600181811c9082168061243257607f821691505b60208210810361061b57634e487b7160e01b600052602260045260246000fd5b808201808211156106c7576106c76123ef565b80820281158282048414176106c7576106c76123ef565b60008261249957634e487b7160e01b600052601260045260246000fd5b500490565b818103818111156106c7576106c76123ef565b6000602082840312156124c357600080fd5b8151801515811461130157600080fd5b600082516124e5818460208701612274565b919091019291505056fea264697066735822122055a532c40083a5f62eec8393432cc69458a74ddb25325627c92f477c0a3a7de264736f6c63430008130033",
  "linkReferences": {},
  "deployedLinkReferences": {}
}