{
  "_format": "hh-sol-artifact-1",
  "contractName": "DAFIToken",
  "sourceName": "contracts/DAFIToken.sol",
  "abi": [
    {
      "inputs": [],
      "stateMutability": "nonpayable",
      "type": "constructor"
    },
    {
      "anonymous": false,
      "inputs": [
        {
          "indexed": true,
          "internalType": "address",
          "name": "owner",
          "type": "address"
        },
        {
          "indexed": true,
          "internalType": "address",
          "name": "spender",
          "type": "address"
        },
        {
          "indexed": false,
          "internalType": "uint256",
          "name": "value",
          "type": "uint256"
        }
      ],
      "name": "Approval",
      "type": "event"
    },
    {
      "anonymous": false,
      "inputs": [
        {
          "indexed": true,
          "internalType": "address",
          "name": "farmer",
          "type": "address"
        },
        {
          "indexed": false,
          "internalType": "string",
          "name": "did",
          "type": "string"
        }
      ],
      "name": "FarmerVerified",
      "type": "event"
    },
    {
      "anonymous": false,
      "inputs": [
        {
          "indexed": true,
          "internalType": "address",
          "name": "previousOwner",
          "type": "address"
        },
        {
          "indexed": true,
          "internalType": "address",
          "name": "newOwner",
          "type": "address"
        }
      ],
      "name": "OwnershipTransferred",
      "type": "event"
    },
    {
      "anonymous": false,
      "inputs": [
        {
          "indexed": false,
          "internalType": "address",
          "name": "account",
          "type": "address"
        }
      ],
      "name": "Paused",
      "type": "event"
    },
    {
      "anonymous": false,
      "inputs": [
        {
          "indexed": true,
          "internalType": "address",
          "name": "farmer",
          "type": "address"
        },
        {
          "indexed": false,
          "internalType": "uint256",
          "name": "newScore",
          "type": "uint256"
        }
      ],
      "name": "ReputationUpdated",
      "type": "event"
    },
    {
      "anonymous": false,
      "inputs": [
        {
          "indexed": true,
          "internalType": "address",
          "name": "from",
          "type": "address"
        },
        {
          "indexed": true,
          "internalType": "address",
          "name": "to",
          "type": "address"
        },
        {
          "indexed": false,
          "internalType": "uint256",
          "name": "value",
          "type": "uint256"
        }
      ],
      "name": "Transfer",
      "type": "event"
    },
    {
      "anonymous": false,
      "inputs": [
        {
          "indexed": false,
          "internalType": "address",
          "name": "account",
          "type": "address"
        }
      ],
      "name": "Unpaused",
      "type": "event"
    },
    {
      "inputs": [
        {
          "internalType": "address",
          "name": "owner",
          "type": "address"
        },
        {
          "internalType": "address",
          "name": "spender",
          "type": "address"
        }
      ],
      "name": "allowance",
      "outputs": [
        {
          "internalType": "uint256",
          "name": "",
          "type": "uint256"
        }
      ],
      "stateMutability": "view",
      "type": "function"
    },
    {
      "inputs": [
        {
          "internalType": "address",
          "name": "spender",
          "type": "address"
        },
        {
          "internalType": "uint256",
          "name": "amount",
          "type": "uint256"
        }
      ],
      "name": "approve",
      "outputs": [
        {
          "internalType": "bool",
          "name": "",
          "type": "bool"
        }
      ],
      "stateMutability": "nonpayable",
      "type": "function"
    },
    {
      "inputs": [
        {
          "internalType": "address",
          "name": "account",
          "type": "address"
        }
      ],
      "name": "balanceOf",
      "outputs": [
        {
          "internalType": "uint256",
          "name": "",
          "type": "uint256"
        }
      ],
      "stateMutability": "view",
      "type": "function"
    },
    {
      "inputs": [
        {
          "internalType": "uint256",
          "name": "amount",
          "type": "uint256"
        }
      ],
      "name": "burn",
      "outputs": [],
      "stateMutability": "nonpayable",
      "type": "function"
    },
    {
      "inputs": [],
      "name": "decimals",
      "outputs": [
        {
          "internalType": "uint8",
          "name": "",
          "type": "uint8"
        }
      ],
      "stateMutability": "view",
      "type": "function"
    },
    {
      "inputs": [
        {
          "internalType": "address",
          "name": "spender",
          "type": "address"
        },
        {
          "internalType": "uint256",
          "name": "subtractedValue",
          "type": "uint256"
        }
      ],
      "name": "decreaseAllowance",
      "outputs": [
        {
          "internalType": "bool",
          "name": "",
          "type": "bool"
        }
      ],
      "stateMutability": "nonpayable",
      "type": "function"
    },
    {
      "inputs": [
        {
          "internalType": "address",
          "name": "",
          "type": "address"
        }
      ],
      "name": "farmerProfiles",
      "outputs": [
        {
          "internalType": "string",
          "name": "did",
          "type": "string"
        },
        {
          "internalType": "uint256",
          "name": "reputationScore",
          "type": "uint256"
        },
        {
          "internalType": "bool",
          "name": "isOrganic",
          "type": "bool"
        },
        {
          "internalType": "string",
          "name": "location",
          "type": "string"
        },
        {
          "internalType": "uint256",
          "name": "landSize",
          "type": "uint256"
        }
      ],
      "stateMutability": "view",
      "type": "function"
    },
    {
      "inputs": [
        {
          "internalType": "address",
          "name": "spender",
          "type": "address"
        },
        {
          "internalType": "uint256",
          "name": "addedValue",
          "type": "uint256"
        }
      ],
      "name": "increaseAllowance",
      "outputs": [
        {
          "internalType": "bool",
          "name": "",
          "type": "bool"
        }
      ],
      "stateMutability": "nonpayable",
      "type": "function"
    },
    {
      "inputs": [
        {
          "internalType": "address",
          "name": "to",
          "type": "address"
        },
        {
          "internalType": "uint256",
          "name": "amount",
          "type": "uint256"
        }
      ],
      "name": "mint",
      "outputs": [],
      "stateMutability": "nonpayable",
      "type": "function"
    },
    {
      "inputs": [],
      "name": "name",
      "outputs": [
        {
          "internalType": "string",
          "name": "",
          "type": "string"
        }
      ],
      "stateMutability": "view",
      "type": "function"
    },
    {
      "inputs": [],
      "name": "owner",
      "outputs": [
        {
          "internalType": "address",
          "name": "",
          "type": "address"
        }
      ],
      "stateMutability": "view",
      "type": "function"
    },
    {
      "inputs": [],
      "name": "pause",
      "outputs": [],
      "stateMutability": "nonpayable",
      "type": "function"
    },
    {
      "inputs": [],
      "name": "paused",
      "outputs": [
        {
          "internalType": "bool",
          "name": "",
          "type": "bool"
        }
      ],
      "stateMutability": "view",
      "type": "function"
    },
    {
      "inputs": [],
      "name": "renounceOwnership",
      "outputs": [],
      "stateMutability": "nonpayable",
      "type": "function"
    },
    {
      "inputs": [],
      "name": "symbol",
      "outputs": [
        {
          "internalType": "string",
          "name": "",
          "type": "string"
        }
      ],
      "stateMutability": "view",
      "type": "function"
    },
    {
      "inputs": [],
      "name": "totalSupply",
      "outputs": [
        {
          "internalType": "uint256",
          "name": "",
          "type": "uint256"
        }
      ],
      "stateMutability": "view",
      "type": "function"
    },
    {
      "inputs": [
        {
          "internalType": "address",
          "name": "to",
          "type": "address"
        },
        {
          "internalType": "uint256",
          "name": "amount",
          "type": "uint256"
        }
      ],
      "name": "transfer",
      "outputs": [
        {
          "internalType": "bool",
          "name": "",
          "type": "bool"
        }
      ],
      "stateMutability": "nonpayable",
      "type": "function"
    },
    {
      "inputs": [
        {
          "internalType": "address",
          "name": "from",
          "type": "address"
        },
        {
          "internalType": "address",
          "name": "to",
          "type": "address"
        },
        {
          "internalType": "uint256",
          "name": "amount",
          "type": "uint256"
        }
      ],
      "name": "transferFrom",
      "outputs": [
        {
          "internalType": "bool",
          "name": "",
          "type": "bool"
        }
      ],
      "stateMutability": "nonpayable",
      "type": "function"
    },
    {
      "inputs": [
        {
          "internalType": "address",
          "name": "newOwner",
          "type": "address"
        }
      ],
      "name": "transferOwnership",
      "outputs": [],
      "stateMutability": "nonpayable",
      "type": "function"
    },
    {
      "inputs": [],
      "name": "unpause",
      "outputs": [],
      "stateMutability": "nonpayable",
      "type": "function"
    },
    {
      "inputs": [
        {
          "internalType": "address",
          "name": "farmer",
          "type": "address"
        },
        {
          "internalType": "uint256",
          "name": "newScore",
          "type": "uint256"
        }
      ],
      "name": "updateReputationScore",
      "outputs": [],
      "stateMutability": "nonpayable",
      "type": "function"
    },
    {
      "inputs": [
        {
          "internalType": "address",
          "name": "",
          "type": "address"
        }
      ],
      "name": "verifiedFarmers",
      "outputs": [
        {
          "internalType": "bool",
          "name": "",
          "type": "bool"
        }
      ],
      "stateMutability": "view",
      "type": "function"
    },
    {
      "inputs": [
        {
          "internalType": "address",
          "name": "farmer",
          "type": "address"
        },
        {
          "internalType": "string",
          "name": "did",
          "type": "string"
        },
        {
          "internalType": "bool",
          "name": "isOrganic",
          "type": "bool"
        },
        {
          "internalType": "string",
          "name": "location",
          "type": "string"
        },
        {
          "internalType": "uint256",
          "name": "landSize",
          "type": "uint256"
        }
      ],
      "name": "verifyFarmer",
      "outputs": [],
      "stateMutability": "nonpayable",
      "type": "function"
    }
  ],
  "bytecode": "0x60806040523480156200001157600080fd5b506040518060400160405280601781526020017f44414649204167726963756c747572616c20546f6b656e000000000000000000815250604051806040016040528060048152602001634441464960e01b815250816003908162000076919062000326565b50600462000085828262000326565b505050620000a26200009c620000dd60201b60201c565b620000e1565b6005805460ff60a01b19169055620000d733620000c26012600a62000507565b620000d190620f42406200051f565b62000133565b6200054f565b3390565b600580546001600160a01b038381166001600160a01b0319831681179093556040519116919082907f8be0079c531659141344cd1fd0a4f28419497f9722a3daafe3b4186f6b6457e090600090a35050565b6001600160a01b0382166200018f5760405162461bcd60e51b815260206004820152601f60248201527f45524332303a206d696e7420746f20746865207a65726f20616464726573730060448201526064015b60405180910390fd5b6200019d6000838362000208565b8060026000828254620001b1919062000539565b90915550506001600160a01b038216600081815260208181526040808320805486019055518481527fddf252ad1be2c89b69c2b068fc378daa952ba7f163c4a11628f55a4df523b3ef910160405180910390a35050565b620002126200022a565b620002258383836001600160e01b038416565b505050565b6200023e600554600160a01b900460ff1690565b15620002805760405162461bcd60e51b815260206004820152601060248201526f14185d5cd8589b194e881c185d5cd95960821b604482015260640162000186565b565b634e487b7160e01b600052604160045260246000fd5b600181811c90821680620002ad57607f821691505b602082108103620002ce57634e487b7160e01b600052602260045260246000fd5b50919050565b601f8211156200022557600081815260208120601f850160051c81016020861015620002fd5750805b601f850160051c820191505b818110156200031e5782815560010162000309565b505050505050565b81516001600160401b0381111562000342576200034262000282565b6200035a8162000353845462000298565b84620002d4565b602080601f831160018114620003925760008415620003795750858301515b600019600386901b1c1916600185901b1785556200031e565b600085815260208120601f198616915b82811015620003c357888601518255948401946001909101908401620003a2565b5085821015620003e25787850151600019600388901b60f8161c191681555b5050505050600190811b01905550565b634e487b7160e01b600052601160045260246000fd5b600181815b80851115620004495781600019048211156200042d576200042d620003f2565b808516156200043b57918102915b93841c93908002906200040d565b509250929050565b600082620004625750600162000501565b81620004715750600062000501565b81600181146200048a57600281146200049557620004b5565b600191505062000501565b60ff841115620004a957620004a9620003f2565b50506001821b62000501565b5060208310610133831016604e8410600b8410161715620004da575081810a62000501565b620004e6838362000408565b8060001904821115620004fd57620004fd620003f2565b0290505b92915050565b60006200051860ff84168362000451565b9392505050565b8082028115828204841417620005015762000501620003f2565b80820180821115620005015762000501620003f2565b61150e806200055f6000396000f3fe608060405234801561001057600080fd5b506004361061014d5760003560e01c80635c975abb116100c3578063927142241161007c57806392714224146102b957806395d89b41146102dd578063a457c2d7146102e5578063a9059cbb146102f8578063dd62ed3e1461030b578063f2fde38b1461031e57600080fd5b80635c975abb1461024057806370a0823114610252578063715018a61461027b5780638456cb59146102835780638da5cb5b1461028b5780638e4f9606146102a657600080fd5b806323b872dd1161011557806323b872dd146101dd578063313ce567146101f057806339509351146101ff5780633f4ba83a1461021257806340c10f191461021a57806342966c681461022d57600080fd5b806306fdde0314610152578063095ea7b3146101705780630c3d272c1461019357806318160ddd146101b657806320b03e67146101c8575b600080fd5b61015a610331565b60405161016791906110ed565b60405180910390f35b61018361017e366004611123565b6103c3565b6040519015158152602001610167565b6101836101a136600461114d565b60066020526000908152604090205460ff1681565b6002545b604051908152602001610167565b6101db6101d636600461120b565b6103dd565b005b6101836101eb3660046112a1565b610544565b60405160128152602001610167565b61018361020d366004611123565b610568565b6101db61058a565b6101db610228366004611123565b61059c565b6101db61023b3660046112dd565b6105b2565b600554600160a01b900460ff16610183565b6101ba61026036600461114d565b6001600160a01b031660009081526020819052604090205490565b6101db6105bf565b6101db6105d1565b6005546040516001600160a01b039091168152602001610167565b6101db6102b4366004611123565b6105e1565b6102cc6102c736600461114d565b6106eb565b6040516101679594939291906112f6565b61015a610831565b6101836102f3366004611123565b610840565b610183610306366004611123565b6108bb565b6101ba61031936600461133c565b6108c9565b6101db61032c36600461114d565b6108f4565b6060600380546103409061136f565b80601f016020809104026020016040519081016040528092919081815260200182805461036c9061136f565b80156103b95780601f1061038e576101008083540402835291602001916103b9565b820191906000526020600020905b81548152906001019060200180831161039c57829003601f168201915b5050505050905090565b6000336103d181858561096a565b60019150505b92915050565b6103e5610a8f565b6001600160a01b03851660009081526006602052604090205460ff16156104535760405162461bcd60e51b815260206004820152601760248201527f4661726d657220616c726561647920766572696669656400000000000000000060448201526064015b60405180910390fd5b6001600160a01b0385166000818152600660209081526040808320805460ff19166001179055805160a08101825288815260648184015287151581830152606081018790526080810186905293835260079091529020815181906104b790826113f7565b5060208201516001820155604082015160028201805460ff1916911515919091179055606082015160038201906104ee90826113f7565b5060808201518160040155905050846001600160a01b03167f447ab29b3ad931eb87e6c54a71870a6c69dbb2a4edc78f0c3d0072f9be4a37818560405161053591906110ed565b60405180910390a25050505050565b600033610552858285610ae9565b61055d858585610b63565b506001949350505050565b6000336103d181858561057b83836108c9565b61058591906114b7565b61096a565b610592610a8f565b61059a610d12565b565b6105a4610a8f565b6105ae8282610d67565b5050565b6105bc3382610e32565b50565b6105c7610a8f565b61059a6000610f6d565b6105d9610a8f565b61059a610fbf565b6105e9610a8f565b6001600160a01b03821660009081526006602052604090205460ff166106475760405162461bcd60e51b815260206004820152601360248201527211985c9b595c881b9bdd081d995c9a599a5959606a1b604482015260640161044a565b606481111561068f5760405162461bcd60e51b8152602060048201526014602482015273053636f7265206d757374206265203c3d203130360641b604482015260640161044a565b6001600160a01b03821660008181526007602052604090819020600101839055517ffc577563f1b9a0461e24abef1e1fcc0d33d3d881f20b5df6dda59de4aae2c821906106df9084815260200190565b60405180910390a25050565b6007602052600090815260409020805481906107069061136f565b80601f01602080910402602001604051908101604052809291908181526020018280546107329061136f565b801561077f5780601f106107545761010080835404028352916020019161077f565b820191906000526020600020905b81548152906001019060200180831161076257829003601f168201915b50505050600183015460028401546003850180549495929460ff9092169350906107a89061136f565b80601f01602080910402602001604051908101604052809291908181526020018280546107d49061136f565b80156108215780601f106107f657610100808354040283529160200191610821565b820191906000526020600020905b81548152906001019060200180831161080457829003601f168201915b5050505050908060040154905085565b6060600480546103409061136f565b6000338161084e82866108c9565b9050838110156108ae5760405162461bcd60e51b815260206004820152602560248201527f45524332303a2064656372656173656420616c6c6f77616e63652062656c6f77604482015264207a65726f60d81b606482015260840161044a565b61055d828686840361096a565b6000336103d1818585610b63565b6001600160a01b03918216600090815260016020908152604080832093909416825291909152205490565b6108fc610a8f565b6001600160a01b0381166109615760405162461bcd60e51b815260206004820152602660248201527f4f776e61626c653a206e6577206f776e657220697320746865207a65726f206160448201526564647265737360d01b606482015260840161044a565b6105bc81610f6d565b6001600160a01b0383166109cc5760405162461bcd60e51b8152602060048201526024808201527f45524332303a20617070726f76652066726f6d20746865207a65726f206164646044820152637265737360e01b606482015260840161044a565b6001600160a01b038216610a2d5760405162461bcd60e51b815260206004820152602260248201527f45524332303a20617070726f766520746f20746865207a65726f206164647265604482015261737360f01b606482015260840161044a565b6001600160a01b0383811660008181526001602090815260408083209487168084529482529182902085905590518481527f8c5be1e5ebec7d5bd14f71427d1e84f3dd0314c0f7b2291e5b200ac8c7c3b92591015b60405180910390a3505050565b6005546001600160a01b0316331461059a5760405162461bcd60e51b815260206004820181905260248201527f4f776e61626c653a2063616c6c6572206973206e6f7420746865206f776e6572604482015260640161044a565b6000610af584846108c9565b90506000198114610b5d5781811015610b505760405162461bcd60e51b815260206004820152601d60248201527f45524332303a20696e73756666696369656e7420616c6c6f77616e6365000000604482015260640161044a565b610b5d848484840361096a565b50505050565b6001600160a01b038316610bc75760405162461bcd60e51b815260206004820152602560248201527f45524332303a207472616e736665722066726f6d20746865207a65726f206164604482015264647265737360d81b606482015260840161044a565b6001600160a01b038216610c295760405162461bcd60e51b815260206004820152602360248201527f45524332303a207472616e7366657220746f20746865207a65726f206164647260448201526265737360e81b606482015260840161044a565b610c34838383611002565b6001600160a01b03831660009081526020819052604090205481811015610cac5760405162461bcd60e51b815260206004820152602660248201527f45524332303a207472616e7366657220616d6f756e7420657863656564732062604482015265616c616e636560d01b606482015260840161044a565b6001600160a01b03848116600081815260208181526040808320878703905593871680835291849020805487019055925185815290927fddf252ad1be2c89b69c2b068fc378daa952ba7f163c4a11628f55a4df523b3ef910160405180910390a3610b5d565b610d1a61100a565b6005805460ff60a01b191690557f5db9ee0a495bf2e6ff9c91a7834c1ba4fdd244a5e8aa4e537bd38aeae4b073aa335b6040516001600160a01b03909116815260200160405180910390a1565b6001600160a01b038216610dbd5760405162461bcd60e51b815260206004820152601f60248201527f45524332303a206d696e7420746f20746865207a65726f206164647265737300604482015260640161044a565b610dc960008383611002565b8060026000828254610ddb91906114b7565b90915550506001600160a01b038216600081815260208181526040808320805486019055518481527fddf252ad1be2c89b69c2b068fc378daa952ba7f163c4a11628f55a4df523b3ef910160405180910390a35050565b6001600160a01b038216610e925760405162461bcd60e51b815260206004820152602160248201527f45524332303a206275726e2066726f6d20746865207a65726f206164647265736044820152607360f81b606482015260840161044a565b610e9e82600083611002565b6001600160a01b03821660009081526020819052604090205481811015610f125760405162461bcd60e51b815260206004820152602260248201527f45524332303a206275726e20616d6f756e7420657863656564732062616c616e604482015261636560f01b606482015260840161044a565b6001600160a01b0383166000818152602081815260408083208686039055600280548790039055518581529192917fddf252ad1be2c89b69c2b068fc378daa952ba7f163c4a11628f55a4df523b3ef9101610a82565b505050565b600580546001600160a01b038381166001600160a01b0319831681179093556040519116919082907f8be0079c531659141344cd1fd0a4f28419497f9722a3daafe3b4186f6b6457e090600090a35050565b610fc761105a565b6005805460ff60a01b1916600160a01b1790557f62e78cea01bee320cd4e420270b5ea74000d11b0c9f74754ebdbfc544b05a258610d4a3390565b610f6861105a565b600554600160a01b900460ff1661059a5760405162461bcd60e51b815260206004820152601460248201527314185d5cd8589b194e881b9bdd081c185d5cd95960621b604482015260640161044a565b600554600160a01b900460ff161561059a5760405162461bcd60e51b815260206004820152601060248201526f14185d5cd8589b194e881c185d5cd95960821b604482015260640161044a565b6000815180845260005b818110156110cd576020818501810151868301820152016110b1565b506000602082860101526020601f19601f83011685010191505092915050565b60208152600061110060208301846110a7565b9392505050565b80356001600160a01b038116811461111e57600080fd5b919050565b6000806040838503121561113657600080fd5b61113f83611107565b946020939093013593505050565b60006020828403121561115f57600080fd5b61110082611107565b634e487b7160e01b600052604160045260246000fd5b600082601f83011261118f57600080fd5b813567ffffffffffffffff808211156111aa576111aa611168565b604051601f8301601f19908116603f011681019082821181831017156111d2576111d2611168565b816040528381528660208588010111156111eb57600080fd5b836020870160208301376000602085830101528094505050505092915050565b600080600080600060a0868803121561122357600080fd5b61122c86611107565b9450602086013567ffffffffffffffff8082111561124957600080fd5b61125589838a0161117e565b955060408801359150811515821461126c57600080fd5b9093506060870135908082111561128257600080fd5b5061128f8882890161117e565b95989497509295608001359392505050565b6000806000606084860312156112b657600080fd5b6112bf84611107565b92506112cd60208501611107565b9150604084013590509250925092565b6000602082840312156112ef57600080fd5b5035919050565b60a08152600061130960a08301886110a7565b8660208401528515156040840152828103606084015261132981866110a7565b9150508260808301529695505050505050565b6000806040838503121561134f57600080fd5b61135883611107565b915061136660208401611107565b90509250929050565b600181811c9082168061138357607f821691505b6020821081036113a357634e487b7160e01b600052602260045260246000fd5b50919050565b601f821115610f6857600081815260208120601f850160051c810160208610156113d05750805b601f850160051c820191505b818110156113ef578281556001016113dc565b505050505050565b815167ffffffffffffffff81111561141157611411611168565b6114258161141f845461136f565b846113a9565b602080601f83116001811461145a57600084156114425750858301515b600019600386901b1c1916600185901b1785556113ef565b600085815260208120601f198616915b828110156114895788860151825594840194600190910190840161146a565b50858210156114a75787850151600019600388901b60f8161c191681555b5050505050600190811b01905550565b808201808211156103d757634e487b7160e01b600052601160045260246000fdfea2646970667358221220be887b5eb8789982f5aae9c7fd0975c5b805ae9c06ef20100268d02de369a49064736f6c63430008130033",
  "linkReferences": {},
  "deployedLinkReferences": {}
}