{
  "_format": "hh-sol-artifact-1",
  "contractName": "DAFILending",
  "sourceName": "contracts/DAFILending.sol",
  "abi": [
    {
      "inputs": [
        {
          "internalType": "address",
          "name": "_usdcToken",
          "type": "address"
        },
        {
          "internalType": "address",
          "name": "_farmAssetToken",
          "type": "address"
        },
        {
          "internalType": "uint256",
          "name": "_baseInterestRate",
          "type": "uint256"
        },
        {
          "internalType": "uint256",
          "name": "_utilizationMultiplier",
          "type": "uint256"
        },
        {
          "internalType": "uint256",
          "name": "_collateralRatio",
          "type": "uint256"
        }
      ],
      "stateMutability": "nonpayable",
      "type": "constructor"
    },
    {
      "anonymous": false,
      "inputs": [
        {
          "indexed": true,
          "internalType": "uint256",
          "name": "loanId",
          "type": "uint256"
        },
        {
          "indexed": true,
          "internalType": "address",
          "name": "liquidator",
          "type": "address"
        }
      ],
      "name": "CollateralLiquidated",
      "type": "event"
    },
    {
      "anonymous": false,
      "inputs": [
        {
          "indexed": true,
          "internalType": "address",
          "name": "depositor",
          "type": "address"
        },
        {
          "indexed": false,
          "internalType": "uint256",
          "name": "amount",
          "type": "uint256"
        }
      ],
      "name": "Deposited",
      "type": "event"
    },
    {
      "anonymous": false,
      "inputs": [
        {
          "indexed": true,
          "internalType": "uint256",
          "name": "loanId",
          "type": "uint256"
        },
        {
          "indexed": true,
          "internalType": "address",
          "name": "borrower",
          "type": "address"
        },
        {
          "indexed": false,
          "internalType": "uint256",
          "name": "amount",
          "type": "uint256"
        }
      ],
      "name": "LoanCreated",
      "type": "event"
    },
    {
      "anonymous": false,
      "inputs": [
        {
          "indexed": true,
          "internalType": "uint256",
          "name": "loanId",
          "type": "uint256"
        },
        {
          "indexed": true,
          "internalType": "address",
          "name": "borrower",
          "type": "address"
        }
      ],
      "name": "LoanDefaulted",
      "type": "event"
    },
    {
      "anonymous": false,
      "inputs": [
        {
          "indexed": true,
          "internalType": "uint256",
          "name": "loanId",
          "type": "uint256"
        },
        {
          "indexed": true,
          "internalType": "address",
          "name": "borrower",
          "type": "address"
        },
        {
          "indexed": false,
          "internalType": "uint256",
          "name": "amount",
          "type": "uint256"
        }
      ],
      "name": "LoanRepaid",
      "type": "event"
    },
    {
      "anonymous": false,
      "inputs": [
        {
          "indexed": true,
          "internalType": "address",
          "name": "previousOwner",
          "type": "address"
        },
        {
          "indexed": true,
          "internalType": "address",
          "name": "newOwner",
          "type": "address"
        }
      ],
      "name": "OwnershipTransferred",
      "type": "event"
    },
    {
      "anonymous": false,
      "inputs": [
        {
          "indexed": true,
          "internalType": "address",
          "name": "depositor",
          "type": "address"
        },
        {
          "indexed": false,
          "internalType": "uint256",
          "name": "amount",
          "type": "uint256"
        }
      ],
      "name": "Withdrawn",
      "type": "event"
    },
    {
      "inputs": [],
      "name": "INTEREST_PRECISION",
      "outputs": [
        {
          "internalType": "uint256",
          "name": "",
          "type": "uint256"
        }
      ],
      "stateMutability": "view",
      "type": "function"
    },
    {
      "inputs": [],
      "name": "UTILIZATION_PRECISION",
      "outputs": [
        {
          "internalType": "uint256",
          "name": "",
          "type": "uint256"
        }
      ],
      "stateMutability": "view",
      "type": "function"
    },
    {
      "inputs": [
        {
          "internalType": "uint256",
          "name": "loanId",
          "type": "uint256"
        }
      ],
      "name": "calculateInterest",
      "outputs": [
        {
          "internalType": "uint256",
          "name": "",
          "type": "uint256"
        }
      ],
      "stateMutability": "view",
      "type": "function"
    },
    {
      "inputs": [],
      "name": "calculateInterestRate",
      "outputs": [
        {
          "internalType": "uint256",
          "name": "",
          "type": "uint256"
        }
      ],
      "stateMutability": "view",
      "type": "function"
    },
    {
      "inputs": [],
      "name": "claimRewards",
      "outputs": [],
      "stateMutability": "nonpayable",
      "type": "function"
    },
    {
      "inputs": [
        {
          "internalType": "uint256",
          "name": "collateralTokenId",
          "type": "uint256"
        },
        {
          "internalType": "uint256",
          "name": "collateralAmount",
          "type": "uint256"
        },
        {
          "internalType": "uint256",
          "name": "loanAmount",
          "type": "uint256"
        },
        {
          "internalType": "uint256",
          "name": "duration",
          "type": "uint256"
        }
      ],
      "name": "createLoan",
      "outputs": [
        {
          "internalType": "uint256",
          "name": "",
          "type": "uint256"
        }
      ],
      "stateMutability": "nonpayable",
      "type": "function"
    },
    {
      "inputs": [
        {
          "internalType": "uint256",
          "name": "amount",
          "type": "uint256"
        }
      ],
      "name": "deposit",
      "outputs": [],
      "stateMutability": "nonpayable",
      "type": "function"
    },
    {
      "inputs": [
        {
          "internalType": "address",
          "name": "",
          "type": "address"
        }
      ],
      "name": "deposits",
      "outputs": [
        {
          "internalType": "uint256",
          "name": "",
          "type": "uint256"
        }
      ],
      "stateMutability": "view",
      "type": "function"
    },
    {
      "inputs": [],
      "name": "farmAssetToken",
      "outputs": [
        {
          "internalType": "contract IERC1155",
          "name": "",
          "type": "address"
        }
      ],
      "stateMutability": "view",
      "type": "function"
    },
    {
      "inputs": [
        {
          "internalType": "uint256",
          "name": "tokenId",
          "type": "uint256"
        },
        {
          "internalType": "uint256",
          "name": "amount",
          "type": "uint256"
        }
      ],
      "name": "getCollateralValue",
      "outputs": [
        {
          "internalType": "uint256",
          "name": "",
          "type": "uint256"
        }
      ],
      "stateMutability": "view",
      "type": "function"
    },
    {
      "inputs": [
        {
          "internalType": "uint256",
          "name": "loanId",
          "type": "uint256"
        }
      ],
      "name": "isLoanDefaulted",
      "outputs": [
        {
          "internalType": "bool",
          "name": "",
          "type": "bool"
        }
      ],
      "stateMutability": "view",
      "type": "function"
    },
    {
      "inputs": [
        {
          "internalType": "uint256",
          "name": "loanId",
          "type": "uint256"
        }
      ],
      "name": "liquidateLoan",
      "outputs": [],
      "stateMutability": "nonpayable",
      "type": "function"
    },
    {
      "inputs": [],
      "name": "loanCount",
      "outputs": [
        {
          "internalType": "uint256",
          "name": "",
          "type": "uint256"
        }
      ],
      "stateMutability": "view",
      "type": "function"
    },
    {
      "inputs": [
        {
          "internalType": "uint256",
          "name": "",
          "type": "uint256"
        }
      ],
      "name": "loans",
      "outputs": [
        {
          "internalType": "address",
          "name": "borrower",
          "type": "address"
        },
        {
          "internalType": "uint256",
          "name": "collateralTokenId",
          "type": "uint256"
        },
        {
          "internalType": "uint256",
          "name": "collateralAmount",
          "type": "uint256"
        },
        {
          "internalType": "uint256",
          "name": "loanAmount",
          "type": "uint256"
        },
        {
          "internalType": "uint256",
          "name": "interestRate",
          "type": "uint256"
        },
        {
          "internalType": "uint256",
          "name": "startTime",
          "type": "uint256"
        },
        {
          "internalType": "uint256",
          "name": "duration",
          "type": "uint256"
        },
        {
          "internalType": "bool",
          "name": "active",
          "type": "bool"
        },
        {
          "internalType": "bool",
          "name": "defaulted",
          "type": "bool"
        }
      ],
      "stateMutability": "view",
      "type": "function"
    },
    {
      "inputs": [],
      "name": "owner",
      "outputs": [
        {
          "internalType": "address",
          "name": "",
          "type": "address"
        }
      ],
      "stateMutability": "view",
      "type": "function"
    },
    {
      "inputs": [],
      "name": "pausePool",
      "outputs": [],
      "stateMutability": "nonpayable",
      "type": "function"
    },
    {
      "inputs": [],
      "name": "pool",
      "outputs": [
        {
          "internalType": "uint256",
          "name": "totalDeposited",
          "type": "uint256"
        },
        {
          "internalType": "uint256",
          "name": "totalBorrowed",
          "type": "uint256"
        },
        {
          "internalType": "uint256",
          "name": "minLoanDuration",
          "type": "uint256"
        },
        {
          "internalType": "uint256",
          "name": "maxLoanDuration",
          "type": "uint256"
        },
        {
          "internalType": "uint256",
          "name": "baseInterestRate",
          "type": "uint256"
        },
        {
          "internalType": "uint256",
          "name": "utilizationMultiplier",
          "type": "uint256"
        },
        {
          "internalType": "uint256",
          "name": "collateralRatio",
          "type": "uint256"
        },
        {
          "internalType": "bool",
          "name": "active",
          "type": "bool"
        }
      ],
      "stateMutability": "view",
      "type": "function"
    },
    {
      "inputs": [],
      "name": "renounceOwnership",
      "outputs": [],
      "stateMutability": "nonpayable",
      "type": "function"
    },
    {
      "inputs": [
        {
          "internalType": "uint256",
          "name": "loanId",
          "type": "uint256"
        }
      ],
      "name": "repayLoan",
      "outputs": [],
      "stateMutability": "nonpayable",
      "type": "function"
    },
    {
      "inputs": [
        {
          "internalType": "address",
          "name": "",
          "type": "address"
        }
      ],
      "name": "rewards",
      "outputs": [
        {
          "internalType": "uint256",
          "name": "",
          "type": "uint256"
        }
      ],
      "stateMutability": "view",
      "type": "function"
    },
    {
      "inputs": [
        {
          "internalType": "address",
          "name": "newOwner",
          "type": "address"
        }
      ],
      "name": "transferOwnership",
      "outputs": [],
      "stateMutability": "nonpayable",
      "type": "function"
    },
    {
      "inputs": [],
      "name": "unpausePool",
      "outputs": [],
      "stateMutability": "nonpayable",
      "type": "function"
    },
    {
      "inputs": [
        {
          "internalType": "uint256",
          "name": "_baseInterestRate",
          "type": "uint256"
        },
        {
          "internalType": "uint256",
          "name": "_utilizationMultiplier",
          "type": "uint256"
        },
        {
          "internalType": "uint256",
          "name": "_collateralRatio",
          "type": "uint256"
        },
        {
          "internalType": "uint256",
          "name": "_minLoanDuration",
          "type": "uint256"
        },
        {
          "internalType": "uint256",
          "name": "_maxLoanDuration",
          "type": "uint256"
        }
      ],
      "name": "updatePoolParameters",
      "outputs": [],
      "stateMutability": "nonpayable",
      "type": "function"
    },
    {
      "inputs": [],
      "name": "usdcToken",
      "outputs": [
        {
          "internalType": "contract IERC20",
          "name": "",
          "type": "address"
        }
      ],
      "stateMutability": "view",
      "type": "function"
    },
    {
      "inputs": [
        {
          "internalType": "uint256",
          "name": "amount",
          "type": "uint256"
        }
      ],
      "name": "withdraw",
      "outputs": [],
      "stateMutability": "nonpayable",
      "type": "function"
    }
  ],
  "bytecode": "0x60806040523480156200001157600080fd5b50604051620018b9380380620018b9833981016040819052620000349162000168565b60016000556200004433620000f9565b600280546001600160a01b039687166001600160a01b0319918216179091556003805495909616941693909317909355604080516101008101825260008082526020820181905262093a809282018390526301e13380606083018190526080830185905260a0830187905260c08301869052600160e09093018390526007829055600891909155600992909255600a91909155600b91909155600c92909255600d55600e805460ff19169091179055620001bb565b600180546001600160a01b038381166001600160a01b0319831681179093556040519116919082907f8be0079c531659141344cd1fd0a4f28419497f9722a3daafe3b4186f6b6457e090600090a35050565b80516001600160a01b03811681146200016357600080fd5b919050565b600080600080600060a086880312156200018157600080fd5b6200018c866200014b565b94506200019c602087016200014b565b6040870151606088015160809098015196999198509695945092505050565b6116ee80620001cb6000396000f3fe608060405234801561001057600080fd5b50600436106101735760003560e01c8063aa09d5b7116100de578063ce63094d11610097578063eff1225e11610071578063eff1225e146103fd578063f2fde38b14610410578063f4680036146102fc578063fc7e286d1461042357600080fd5b8063ce63094d14610318578063e1ec3c6814610321578063e8cbab09146103da57600080fd5b8063aa09d5b7146102bb578063ab7b1c89146102c3578063b6b55f25146102d6578063b9fae650146102e9578063c11b96f0146102fc578063ccdd9f5d1461030557600080fd5b8063372500ab11610130578063372500ab1461026c5780633a082d8e14610274578063715018a61461027c5780638c3c8b79146102845780638da5cb5b14610297578063a57475e0146102a857600080fd5b8063068cc514146101785780630700037d1461018257806311eac855146101b557806316f0115b146101e05780632a80db01146102465780632e1a7d4d14610259575b600080fd5b610180610443565b005b6101a26101903660046114f8565b60066020526000908152604090205481565b6040519081526020015b60405180910390f35b6002546101c8906001600160a01b031681565b6040516001600160a01b0390911681526020016101ac565b600754600854600954600a54600b54600c54600d54600e54610209979695949392919060ff1688565b604080519889526020890197909752958701949094526060860192909252608085015260a084015260c0830152151560e0820152610100016101ac565b6003546101c8906001600160a01b031681565b610180610267366004611528565b61045a565b610180610658565b6101a2610749565b6101806107ad565b610180610292366004611541565b6107bf565b6001546001600160a01b03166101c8565b6101a26102b6366004611528565b6107de565b6101806108b1565b6101806102d1366004611528565b6108c5565b6101806102e4366004611528565b610afb565b6101a26102f736600461157c565b610c86565b6101a261271081565b610180610313366004611528565b611012565b6101a2600f5481565b61038861032f366004611528565b6004602081905260009182526040909120805460018201546002830154600384015494840154600585015460068601546007909601546001600160a01b0390951696939592949192909160ff8082169161010090041689565b604080516001600160a01b03909a168a5260208a0198909852968801959095526060870193909352608086019190915260a085015260c0840152151560e08301521515610100820152610120016101ac565b6103ed6103e8366004611528565b61120d565b60405190151581526020016101ac565b6101a261040b3660046115ae565b6112ac565b61018061041e3660046114f8565b6112c2565b6101a26104313660046114f8565b60056020526000908152604090205481565b61044b611338565b600e805460ff19166001179055565b610462611392565b600081116104b15760405162461bcd60e51b8152602060048201526017602482015276416d6f756e74206d75737420626520706f73697469766560481b60448201526064015b60405180910390fd5b336000908152600560205260409020548111156105075760405162461bcd60e51b8152602060048201526014602482015273496e73756666696369656e742062616c616e636560601b60448201526064016104a8565b60085460075460009161051a91906113eb565b9050808211156105655760405162461bcd60e51b8152602060048201526016602482015275496e73756666696369656e74206c697175696469747960501b60448201526064016104a8565b3360009081526005602052604090205461057f90836113eb565b3360009081526005602052604090205560075461059c90836113eb565b60075560025460405163a9059cbb60e01b8152336004820152602481018490526001600160a01b039091169063a9059cbb906044016020604051808303816000875af11580156105f0573d6000803e3d6000fd5b505050506040513d601f19601f8201168201806040525081019061061491906115d0565b5060405182815233907f7084f5476618d8e60b11ef0d7d3f06914655adb8793e28ff7f018d4c76d505d59060200160405180910390a2506106556001600055565b50565b610660611392565b33600090815260066020526040902054806106b35760405162461bcd60e51b81526020600482015260136024820152724e6f207265776172647320746f20636c61696d60681b60448201526064016104a8565b3360008181526006602052604080822091909155600254905163a9059cbb60e01b81526004810192909252602482018390526001600160a01b03169063a9059cbb906044016020604051808303816000875af1158015610717573d6000803e3d6000fd5b505050506040513d601f19601f8201168201806040525081019061073b91906115d0565b50506107476001600055565b565b600754600090810361075c5750600b5490565b60075460085460009161077b91610775906127106113f7565b90611403565b90506107a761079e612710610775600760050154856113f790919063ffffffff16565b600b549061140f565b91505090565b6107b5611338565b610747600061141b565b6107c7611338565b600b94909455600c92909255600d55600955600a55565b600081815260046020818152604080842081516101208101835281546001600160a01b0316815260018201549381019390935260028101549183019190915260038101546060830152918201546080820152600582015460a08201819052600683015460c083015260079092015460ff808216151560e084015261010091829004161515908201529082906108749042906113eb565b90506108a96127106107756301e13380610775856108a3886080015189606001516113f790919063ffffffff16565b906113f7565b949350505050565b6108b9611338565b600e805460ff19169055565b6108cd611392565b6000818152600460205260409020600781015460ff166109215760405162461bcd60e51b815260206004820152600f60248201526e4c6f616e206e6f742061637469766560881b60448201526064016104a8565b6007810154610100900460ff161561096c5760405162461bcd60e51b815260206004820152600e60248201526d131bd85b88191959985d5b1d195960921b60448201526064016104a8565b6000610977836107de565b9050600061099282846003015461140f90919063ffffffff16565b6002546040516323b872dd60e01b8152336004820152306024820152604481018390529192506001600160a01b0316906323b872dd906064016020604051808303816000875af11580156109ea573d6000803e3d6000fd5b505050506040513d601f19601f82011682018060405250810190610a0e91906115d0565b50600354835460018501546002860154604051637921219560e11b81526001600160a01b039485169463f242432a94610a5094309491909216926004016115f2565b600060405180830381600087803b158015610a6a57600080fd5b505af1158015610a7e573d6000803e3d6000fd5b505050506003830154600854610a93916113eb565b60085560078301805460ff19169055610aab8261146d565b82546040518281526001600160a01b039091169085907f512d3e65b3e58c2187bb1872aa435dba5bd09c1c03823ba56ab70aac411e4a219060200160405180910390a35050506106556001600055565b610b03611392565b60008111610b4d5760405162461bcd60e51b8152602060048201526017602482015276416d6f756e74206d75737420626520706f73697469766560481b60448201526064016104a8565b600e5460ff16610b915760405162461bcd60e51b815260206004820152600f60248201526e506f6f6c206e6f742061637469766560881b60448201526064016104a8565b6002546040516323b872dd60e01b8152336004820152306024820152604481018390526001600160a01b03909116906323b872dd906064016020604051808303816000875af1158015610be8573d6000803e3d6000fd5b505050506040513d601f19601f82011682018060405250810190610c0c91906115d0565b5033600090815260056020526040902054610c27908261140f565b33600090815260056020526040902055600754610c44908261140f565b60075560405181815233907f2da466a7b24304f47e87fa2e1e5a81b9831ce54fec19055ce277ca2f39ba42c49060200160405180910390a26106556001600055565b6000610c90611392565b600e5460ff16610cd45760405162461bcd60e51b815260206004820152600f60248201526e506f6f6c206e6f742061637469766560881b60448201526064016104a8565b6009548210801590610ce85750600a548211155b610d275760405162461bcd60e51b815260206004820152601060248201526f24b73b30b634b210323ab930ba34b7b760811b60448201526064016104a8565b60008311610d775760405162461bcd60e51b815260206004820152601c60248201527f4c6f616e20616d6f756e74206d75737420626520706f7369746976650000000060448201526064016104a8565b6000610d8386866112ac565b9050610d91846127106113f7565b600d54610d9f9083906113f7565b1015610ded5760405162461bcd60e51b815260206004820152601760248201527f496e73756666696369656e7420636f6c6c61746572616c00000000000000000060448201526064016104a8565b600354604051637921219560e11b81526001600160a01b039091169063f242432a90610e2390339030908b908b906004016115f2565b600060405180830381600087803b158015610e3d57600080fd5b505af1158015610e51573d6000803e3d6000fd5b505050506000610e5f610749565b600f80549192506000919082610e7483611640565b90915550604080516101208101825233815260208082018c81528284018c8152606084018c8152608085018981524260a0870190815260c087018e8152600160e089018181526000610100808c018281528e835260049b8c90529c9091209a518b546001600160a01b0319166001600160a01b03909116178b559751918a019190915594516002890155925160038801559051948601949094559251600585015591516006840155905160079092018054935161ffff1990941692151561ff0019169290921792151502919091179055600854909150610f54908761140f565b60085560025460405163a9059cbb60e01b8152336004820152602481018890526001600160a01b039091169063a9059cbb906044016020604051808303816000875af1158015610fa8573d6000803e3d6000fd5b505050506040513d601f19601f82011682018060405250810190610fcc91906115d0565b50604051868152339082907f8910ba13a55695f056e224bbbc6b65d866b12a8c2fbdf387fb853a1cca298cd79060200160405180910390a3925050506108a96001600055565b61101a611392565b6000818152600460205260409020600781015460ff1661106e5760405162461bcd60e51b815260206004820152600f60248201526e4c6f616e206e6f742061637469766560881b60448201526064016104a8565b6007810154610100900460ff16156110bc5760405162461bcd60e51b8152602060048201526011602482015270105b1c9958591e48191959985d5b1d1959607a1b60448201526064016104a8565b6110c58261120d565b61111b5760405162461bcd60e51b815260206004820152602160248201527f4c6f616e206e6f7420656c696769626c6520666f72206c69717569646174696f6044820152603760f91b60648201526084016104a8565b60078101805461ffff191661010017905560035460018201546002830154604051637921219560e11b81526001600160a01b039093169263f242432a9261116a923092339291906004016115f2565b600060405180830381600087803b15801561118457600080fd5b505af1158015611198573d6000803e3d6000fd5b505082546040516001600160a01b0390911692508491507f13b88e6866f0156d706fecfa22b678de5fc2b749c1d2307f6f47eb541385f1ec90600090a3604051339083907f5257471f4c494b15de62381dfcd26ada8c4ed78b53805a846b07173a1c45cd0890600090a3506106556001600055565b600081815260046020818152604080842081516101208101835281546001600160a01b0316815260018201549381019390935260028101549183019190915260038101546060830152918201546080820152600582015460a08201819052600683015460c0830181905260079093015460ff808216151560e0850152610100918290041615159083015290916112a3919061140f565b42119392505050565b60006112b98260646113f7565b90505b92915050565b6112ca611338565b6001600160a01b03811661132f5760405162461bcd60e51b815260206004820152602660248201527f4f776e61626c653a206e6577206f776e657220697320746865207a65726f206160448201526564647265737360d01b60648201526084016104a8565b6106558161141b565b6001546001600160a01b031633146107475760405162461bcd60e51b815260206004820181905260248201527f4f776e61626c653a2063616c6c6572206973206e6f7420746865206f776e657260448201526064016104a8565b6002600054036113e45760405162461bcd60e51b815260206004820152601f60248201527f5265656e7472616e637947756172643a207265656e7472616e742063616c6c0060448201526064016104a8565b6002600055565b60006112b98284611659565b60006112b9828461166c565b60006112b98284611683565b60006112b982846116a5565b600180546001600160a01b038381166001600160a01b0319831681179093556040519116919082907f8be0079c531659141344cd1fd0a4f28419497f9722a3daafe3b4186f6b6457e090600090a35050565b60005b600f548110156114f45733600090815260056020526040902054156114e2576007543360009081526005602052604081205490916114b3916107759086906113f7565b336000908152600660205260409020549091506114d0908261140f565b33600090815260066020526040902055505b806114ec81611640565b915050611470565b5050565b60006020828403121561150a57600080fd5b81356001600160a01b038116811461152157600080fd5b9392505050565b60006020828403121561153a57600080fd5b5035919050565b600080600080600060a0868803121561155957600080fd5b505083359560208501359550604085013594606081013594506080013592509050565b6000806000806080858703121561159257600080fd5b5050823594602084013594506040840135936060013592509050565b600080604083850312156115c157600080fd5b50508035926020909101359150565b6000602082840312156115e257600080fd5b8151801515811461152157600080fd5b6001600160a01b0394851681529290931660208301526040820152606081019190915260a06080820181905260009082015260c00190565b634e487b7160e01b600052601160045260246000fd5b6000600182016116525761165261162a565b5060010190565b818103818111156112bc576112bc61162a565b80820281158282048414176112bc576112bc61162a565b6000826116a057634e487b7160e01b600052601260045260246000fd5b500490565b808201808211156112bc576112bc61162a56fea26469706673582212200bbaa2bf721eea06bf14bd9ba86d5fca20af204f88c83752fa744673aeaae68964736f6c63430008130033",
  "linkReferences": {},
  "deployedLinkReferences": {}
}