{
  "_format": "hh-sol-artifact-1",
  "contractName": "DAFIPriceOracle",
  "sourceName": "contracts/DAFIPriceOracle.sol",
  "abi": [
    {
      "inputs": [],
      "stateMutability": "nonpayable",
      "type": "constructor"
    },
    {
      "anonymous": false,
      "inputs": [
        {
          "indexed": true,
          "internalType": "bytes32",
          "name": "assetId",
          "type": "bytes32"
        },
        {
          "indexed": false,
          "internalType": "uint256",
          "name": "heartbeat",
          "type": "uint256"
        },
        {
          "indexed": false,
          "internalType": "uint256",
          "name": "deviationThreshold",
          "type": "uint256"
        }
      ],
      "name": "AssetConfigured",
      "type": "event"
    },
    {
      "anonymous": false,
      "inputs": [
        {
          "indexed": false,
          "internalType": "address",
          "name": "account",
          "type": "address"
        }
      ],
      "name": "Paused",
      "type": "event"
    },
    {
      "anonymous": false,
      "inputs": [
        {
          "indexed": true,
          "internalType": "bytes32",
          "name": "assetId",
          "type": "bytes32"
        },
        {
          "indexed": false,
          "internalType": "uint256",
          "name": "price",
          "type": "uint256"
        },
        {
          "indexed": false,
          "internalType": "uint256",
          "name": "confidence",
          "type": "uint256"
        }
      ],
      "name": "PriceUpdated",
      "type": "event"
    },
    {
      "anonymous": false,
      "inputs": [
        {
          "indexed": true,
          "internalType": "bytes32",
          "name": "role",
          "type": "bytes32"
        },
        {
          "indexed": true,
          "internalType": "bytes32",
          "name": "previousAdminRole",
          "type": "bytes32"
        },
        {
          "indexed": true,
          "internalType": "bytes32",
          "name": "newAdminRole",
          "type": "bytes32"
        }
      ],
      "name": "RoleAdminChanged",
      "type": "event"
    },
    {
      "anonymous": false,
      "inputs": [
        {
          "indexed": true,
          "internalType": "bytes32",
          "name": "role",
          "type": "bytes32"
        },
        {
          "indexed": true,
          "internalType": "address",
          "name": "account",
          "type": "address"
        },
        {
          "indexed": true,
          "internalType": "address",
          "name": "sender",
          "type": "address"
        }
      ],
      "name": "RoleGranted",
      "type": "event"
    },
    {
      "anonymous": false,
      "inputs": [
        {
          "indexed": true,
          "internalType": "bytes32",
          "name": "role",
          "type": "bytes32"
        },
        {
          "indexed": true,
          "internalType": "address",
          "name": "account",
          "type": "address"
        },
        {
          "indexed": true,
          "internalType": "address",
          "name": "sender",
          "type": "address"
        }
      ],
      "name": "RoleRevoked",
      "type": "event"
    },
    {
      "anonymous": false,
      "inputs": [
        {
          "indexed": true,
          "internalType": "bytes32",
          "name": "assetId",
          "type": "bytes32"
        },
        {
          "indexed": true,
          "internalType": "address",
          "name": "source",
          "type": "address"
        }
      ],
      "name": "SourceAdded",
      "type": "event"
    },
    {
      "anonymous": false,
      "inputs": [
        {
          "indexed": true,
          "internalType": "bytes32",
          "name": "assetId",
          "type": "bytes32"
        },
        {
          "indexed": true,
          "internalType": "address",
          "name": "source",
          "type": "address"
        }
      ],
      "name": "SourceRemoved",
      "type": "event"
    },
    {
      "anonymous": false,
      "inputs": [
        {
          "indexed": false,
          "internalType": "address",
          "name": "account",
          "type": "address"
        }
      ],
      "name": "Unpaused",
      "type": "event"
    },
    {
      "inputs": [],
      "name": "ADMIN_ROLE",
      "outputs": [
        {
          "internalType": "bytes32",
          "name": "",
          "type": "bytes32"
        }
      ],
      "stateMutability": "view",
      "type": "function"
    },
    {
      "inputs": [],
      "name": "DEFAULT_ADMIN_ROLE",
      "outputs": [
        {
          "internalType": "bytes32",
          "name": "",
          "type": "bytes32"
        }
      ],
      "stateMutability": "view",
      "type": "function"
    },
    {
      "inputs": [],
      "name": "ORACLE_ROLE",
      "outputs": [
        {
          "internalType": "bytes32",
          "name": "",
          "type": "bytes32"
        }
      ],
      "stateMutability": "view",
      "type": "function"
    },
    {
      "inputs": [],
      "name": "PRECISION",
      "outputs": [
        {
          "internalType": "uint256",
          "name": "",
          "type": "uint256"
        }
      ],
      "stateMutability": "view",
      "type": "function"
    },
    {
      "inputs": [
        {
          "internalType": "bytes32",
          "name": "assetId",
          "type": "bytes32"
        },
        {
          "internalType": "address",
          "name": "source",
          "type": "address"
        }
      ],
      "name": "addTrustedSource",
      "outputs": [],
      "stateMutability": "nonpayable",
      "type": "function"
    },
    {
      "inputs": [
        {
          "internalType": "bytes32",
          "name": "",
          "type": "bytes32"
        }
      ],
      "name": "assetConfigs",
      "outputs": [
        {
          "internalType": "bool",
          "name": "isActive",
          "type": "bool"
        },
        {
          "internalType": "uint256",
          "name": "heartbeat",
          "type": "uint256"
        },
        {
          "internalType": "uint256",
          "name": "deviationThreshold",
          "type": "uint256"
        },
        {
          "internalType": "address",
          "name": "chainlinkFeed",
          "type": "address"
        }
      ],
      "stateMutability": "view",
      "type": "function"
    },
    {
      "inputs": [
        {
          "internalType": "bytes32",
          "name": "assetId",
          "type": "bytes32"
        },
        {
          "internalType": "uint256",
          "name": "heartbeat",
          "type": "uint256"
        },
        {
          "internalType": "uint256",
          "name": "deviationThreshold",
          "type": "uint256"
        },
        {
          "internalType": "address",
          "name": "chainlinkFeed",
          "type": "address"
        }
      ],
      "name": "configureAsset",
      "outputs": [],
      "stateMutability": "nonpayable",
      "type": "function"
    },
    {
      "inputs": [
        {
          "internalType": "bytes32",
          "name": "assetId",
          "type": "bytes32"
        }
      ],
      "name": "getPrice",
      "outputs": [
        {
          "internalType": "uint256",
          "name": "price",
          "type": "uint256"
        },
        {
          "internalType": "uint256",
          "name": "timestamp",
          "type": "uint256"
        },
        {
          "internalType": "uint256",
          "name": "confidence",
          "type": "uint256"
        }
      ],
      "stateMutability": "view",
      "type": "function"
    },
    {
      "inputs": [
        {
          "internalType": "bytes32",
          "name": "role",
          "type": "bytes32"
        }
      ],
      "name": "getRoleAdmin",
      "outputs": [
        {
          "internalType": "bytes32",
          "name": "",
          "type": "bytes32"
        }
      ],
      "stateMutability": "view",
      "type": "function"
    },
    {
      "inputs": [
        {
          "internalType": "bytes32",
          "name": "role",
          "type": "bytes32"
        },
        {
          "internalType": "address",
          "name": "account",
          "type": "address"
        }
      ],
      "name": "grantRole",
      "outputs": [],
      "stateMutability": "nonpayable",
      "type": "function"
    },
    {
      "inputs": [
        {
          "internalType": "bytes32",
          "name": "role",
          "type": "bytes32"
        },
        {
          "internalType": "address",
          "name": "account",
          "type": "address"
        }
      ],
      "name": "hasRole",
      "outputs": [
        {
          "internalType": "bool",
          "name": "",
          "type": "bool"
        }
      ],
      "stateMutability": "view",
      "type": "function"
    },
    {
      "inputs": [],
      "name": "minimumSourceCount",
      "outputs": [
        {
          "internalType": "uint256",
          "name": "",
          "type": "uint256"
        }
      ],
      "stateMutability": "view",
      "type": "function"
    },
    {
      "inputs": [],
      "name": "pause",
      "outputs": [],
      "stateMutability": "nonpayable",
      "type": "function"
    },
    {
      "inputs": [],
      "name": "paused",
      "outputs": [
        {
          "internalType": "bool",
          "name": "",
          "type": "bool"
        }
      ],
      "stateMutability": "view",
      "type": "function"
    },
    {
      "inputs": [
        {
          "internalType": "bytes32",
          "name": "",
          "type": "bytes32"
        }
      ],
      "name": "prices",
      "outputs": [
        {
          "internalType": "uint256",
          "name": "price",
          "type": "uint256"
        },
        {
          "internalType": "uint256",
          "name": "timestamp",
          "type": "uint256"
        },
        {
          "internalType": "uint256",
          "name": "confidence",
          "type": "uint256"
        }
      ],
      "stateMutability": "view",
      "type": "function"
    },
    {
      "inputs": [
        {
          "internalType": "bytes32",
          "name": "assetId",
          "type": "bytes32"
        },
        {
          "internalType": "address",
          "name": "source",
          "type": "address"
        }
      ],
      "name": "removeTrustedSource",
      "outputs": [],
      "stateMutability": "nonpayable",
      "type": "function"
    },
    {
      "inputs": [
        {
          "internalType": "bytes32",
          "name": "role",
          "type": "bytes32"
        },
        {
          "internalType": "address",
          "name": "account",
          "type": "address"
        }
      ],
      "name": "renounceRole",
      "outputs": [],
      "stateMutability": "nonpayable",
      "type": "function"
    },
    {
      "inputs": [
        {
          "internalType": "bytes32",
          "name": "role",
          "type": "bytes32"
        },
        {
          "internalType": "address",
          "name": "account",
          "type": "address"
        }
      ],
      "name": "revokeRole",
      "outputs": [],
      "stateMutability": "nonpayable",
      "type": "function"
    },
    {
      "inputs": [
        {
          "internalType": "uint256",
          "name": "count",
          "type": "uint256"
        }
      ],
      "name": "setMinimumSourceCount",
      "outputs": [],
      "stateMutability": "nonpayable",
      "type": "function"
    },
    {
      "inputs": [
        {
          "internalType": "bytes32",
          "name": "assetId",
          "type": "bytes32"
        },
        {
          "internalType": "uint256",
          "name": "price",
          "type": "uint256"
        },
        {
          "internalType": "uint256",
          "name": "confidence",
          "type": "uint256"
        }
      ],
      "name": "submitPrice",
      "outputs": [],
      "stateMutability": "nonpayable",
      "type": "function"
    },
    {
      "inputs": [
        {
          "internalType": "bytes4",
          "name": "interfaceId",
          "type": "bytes4"
        }
      ],
      "name": "supportsInterface",
      "outputs": [
        {
          "internalType": "bool",
          "name": "",
          "type": "bool"
        }
      ],
      "stateMutability": "view",
      "type": "function"
    },
    {
      "inputs": [
        {
          "internalType": "bytes32",
          "name": "",
          "type": "bytes32"
        },
        {
          "internalType": "address",
          "name": "",
          "type": "address"
        }
      ],
      "name": "trustedSources",
      "outputs": [
        {
          "internalType": "bool",
          "name": "",
          "type": "bool"
        }
      ],
      "stateMutability": "view",
      "type": "function"
    },
    {
      "inputs": [],
      "name": "unpause",
      "outputs": [],
      "stateMutability": "nonpayable",
      "type": "function"
    }
  ],
  "bytecode": "0x6080604052600360055534801561001557600080fd5b506001805460ff1916905561002b60003361005a565b6100557fa49807205ce4d355092ef5a8a18f56e8913cf4a201fbe287825b095693c217753361005a565b610106565b6100648282610068565b5050565b6000828152602081815260408083206001600160a01b038516845290915290205460ff16610064576000828152602081815260408083206001600160a01b03851684529091529020805460ff191660011790556100c23390565b6001600160a01b0316816001600160a01b0316837f2f8788117e7eff1d82e926ec794901d17c78024a50270940304540a733656f0d60405160405180910390a45050565b611400806101156000396000f3fe608060405234801561001057600080fd5b506004361061014d5760003560e01c8063734fbe8f116100c3578063a537a8e21161007c578063a537a8e214610349578063aaf5eb6814610352578063c461f5fa14610361578063d547741f14610374578063d77daf2a14610387578063eef152d4146103b557600080fd5b8063734fbe8f146102eb57806375b238fc146102fe5780638456cb591461031357806391d148541461031b5780639c84c46c1461032e578063a217fddf1461034157600080fd5b806331d98b3f1161011557806331d98b3f1461025657806336568abe146102845780633f4ba83a14610297578063533b05dd1461029f5780635c975abb146102b257806360846bc6146102bd57600080fd5b806301ffc9a71461015257806307e2cea51461017a578063084e546d146101af578063248a9ca31461021e5780632f2ff15d14610241575b600080fd5b6101656101603660046110c6565b6103c8565b60405190151581526020015b60405180910390f35b6101a17f68e79a7bf1e0bc45d0a330c573bc367f9cf464fd326078812f301165fbda4ef181565b604051908152602001610171565b6101f36101bd3660046110f0565b6003602081905260009182526040909120805460018201546002830154929093015460ff9091169291906001600160a01b031684565b6040805194151585526020850193909352918301526001600160a01b03166060820152608001610171565b6101a161022c3660046110f0565b60009081526020819052604090206001015490565b61025461024f366004611125565b6103ff565b005b6102696102643660046110f0565b610429565b60408051938452602084019290925290820152606001610171565b610254610292366004611125565b6105e5565b610254610663565b6102546102ad366004611151565b610686565b60015460ff16610165565b6102696102cb3660046110f0565b600260208190526000918252604090912080546001820154919092015483565b6102546102f93660046110f0565b610861565b6101a16000805160206113ab83398151915281565b6102546108bf565b610165610329366004611125565b6108df565b61025461033c36600461117d565b610908565b6101a1600081565b6101a160055481565b6101a1670de0b6b3a764000081565b61025461036f366004611125565b610a68565b610254610382366004611125565b610b40565b610165610395366004611125565b600460209081526000928352604080842090915290825290205460ff1681565b6102546103c3366004611125565b610b65565b60006001600160e01b03198216637965db0b60e01b14806103f957506301ffc9a760e01b6001600160e01b03198316145b92915050565b60008281526020819052604090206001015461041a81610c45565b6104248383610c4f565b505050565b6000818152600360205260408120548190819060ff166104875760405162461bcd60e51b8152602060048201526014602482015273105cdcd95d081b9bdd0818dbdb999a59dd5c995960621b60448201526064015b60405180910390fd5b600084815260026020818152604080842081516060810183528154815260018201548185015293015483820152878452600391829052909220909101546001600160a01b0316156105665760008581526003602081905260409182902001548151633fabe5a360e21b815291516001600160a01b039091169163feaf968c9160048083019260a09291908290030181865afa925050508015610546575060408051601f3d908101601f19168201909252610543918101906111d6565b60015b156105665750919650909450670de0b6b3a764000093506105de92505050565b60008581526003602090815260409091206001015490820151610589904261123c565b11156105c75760405162461bcd60e51b815260206004820152600d60248201526c141c9a58d9481d1bdbc81bdb19609a1b604482015260640161047e565b806000015181602001518260400151935093509350505b9193909250565b6001600160a01b03811633146106555760405162461bcd60e51b815260206004820152602f60248201527f416363657373436f6e74726f6c3a2063616e206f6e6c792072656e6f756e636560448201526e103937b632b9903337b91039b2b63360891b606482015260840161047e565b61065f8282610cd3565b5050565b6000805160206113ab83398151915261067b81610c45565b610683610d38565b50565b61068e610d8a565b7f68e79a7bf1e0bc45d0a330c573bc367f9cf464fd326078812f301165fbda4ef16106b881610c45565b60008481526003602052604090205460ff1661070d5760405162461bcd60e51b8152602060048201526014602482015273105cdcd95d081b9bdd0818dbdb999a59dd5c995960621b604482015260640161047e565b600084815260046020908152604080832033845290915290205460ff1661076b5760405162461bcd60e51b815260206004820152601260248201527114dbdd5c98d9481b9bdd081d1c9d5cdd195960721b604482015260640161047e565b6000848152600260209081526040808320600390925282206001908101549082015491929161079a904261123c565b600088815260036020526040812060020154855493909210159350916107c09088610dd2565b1015905081806107cd5750805b61080d5760405162461bcd60e51b8152602060048201526011602482015270155c19185d19481b9bdd081b9959591959607a1b604482015260640161047e565b85835542600184015560028301859055604080518781526020810187905288917fbcd10d64fce9dcf9568572ed92e371df336d32649e8960a045c9548794a44b26910160405180910390a250505050505050565b6000805160206113ab83398151915261087981610c45565b600082116108b95760405162461bcd60e51b815260206004820152600d60248201526c125b9d985b1a590818dbdd5b9d609a1b604482015260640161047e565b50600555565b6000805160206113ab8339815191526108d781610c45565b610683610e34565b6000918252602082815260408084206001600160a01b0393909316845291905290205460ff1690565b6000805160206113ab83398151915261092081610c45565b600084116109645760405162461bcd60e51b8152602060048201526011602482015270125b9d985b1a59081a19585c9d1899585d607a1b604482015260640161047e565b600083116109b45760405162461bcd60e51b815260206004820152601b60248201527f496e76616c696420646576696174696f6e207468726573686f6c640000000000604482015260640161047e565b60408051608081018252600180825260208083018881528385018881526001600160a01b038881166060870190815260008d81526003808752908990209751885460ff1916901515178855935195870195909555905160028601559251930180546001600160a01b03191693909216929092179055815186815290810185905286917fa72a30efa7293ef31e26e6313cffcb3e50d4667ca537acf23da61197fbe4f467910160405180910390a25050505050565b6000805160206113ab833981519152610a8081610c45565b60008381526004602090815260408083206001600160a01b038616845290915290205460ff16610ae75760405162461bcd60e51b815260206004820152601260248201527114dbdd5c98d9481b9bdd081d1c9d5cdd195960721b604482015260640161047e565b60008381526004602090815260408083206001600160a01b0386168085529252808320805460ff1916905551909185917f660a92f3b550db0249aaeedbb215c0925b77441aecaeb16440f1db6e3a6790d79190a3505050565b600082815260208190526040902060010154610b5b81610c45565b6104248383610cd3565b6000805160206113ab833981519152610b7d81610c45565b60008381526004602090815260408083206001600160a01b038616845290915290205460ff1615610be95760405162461bcd60e51b815260206004820152601660248201527514dbdd5c98d948185b1c9958591e481d1c9d5cdd195960521b604482015260640161047e565b60008381526004602090815260408083206001600160a01b0386168085529252808320805460ff1916600117905551909185917fe1536c0b2c3008d02f52461c195522f05eda5c874ec0a2eef12998d62aa3ae029190a3505050565b6106838133610e6f565b610c5982826108df565b61065f576000828152602081815260408083206001600160a01b03851684529091529020805460ff19166001179055610c8f3390565b6001600160a01b0316816001600160a01b0316837f2f8788117e7eff1d82e926ec794901d17c78024a50270940304540a733656f0d60405160405180910390a45050565b610cdd82826108df565b1561065f576000828152602081815260408083206001600160a01b0385168085529252808320805460ff1916905551339285917ff6391f5c32d9c69d2a47ea670b442974b53935d1edc7fd64eb21e047a839171b9190a45050565b610d40610ec8565b6001805460ff191690557f5db9ee0a495bf2e6ff9c91a7834c1ba4fdd244a5e8aa4e537bd38aeae4b073aa335b6040516001600160a01b03909116815260200160405180910390a1565b60015460ff1615610dd05760405162461bcd60e51b815260206004820152601060248201526f14185d5cd8589b194e881c185d5cd95960821b604482015260640161047e565b565b600082600003610deb5750670de0b6b3a76400006103f9565b6000828411610e0357610dfe848461123c565b610e0d565b610e0d838561123c565b905083610e22670de0b6b3a76400008361124f565b610e2c9190611266565b949350505050565b610e3c610d8a565b6001805460ff1916811790557f62e78cea01bee320cd4e420270b5ea74000d11b0c9f74754ebdbfc544b05a25833610d6d565b610e7982826108df565b61065f57610e8681610f11565b610e91836020610f23565b604051602001610ea29291906112ac565b60408051601f198184030181529082905262461bcd60e51b825261047e91600401611321565b60015460ff16610dd05760405162461bcd60e51b815260206004820152601460248201527314185d5cd8589b194e881b9bdd081c185d5cd95960621b604482015260640161047e565b60606103f96001600160a01b03831660145b60606000610f3283600261124f565b610f3d906002611354565b67ffffffffffffffff811115610f5557610f55611367565b6040519080825280601f01601f191660200182016040528015610f7f576020820181803683370190505b509050600360fc1b81600081518110610f9a57610f9a61137d565b60200101906001600160f81b031916908160001a905350600f60fb1b81600181518110610fc957610fc961137d565b60200101906001600160f81b031916908160001a9053506000610fed84600261124f565b610ff8906001611354565b90505b6001811115611070576f181899199a1a9b1b9c1cb0b131b232b360811b85600f166010811061102c5761102c61137d565b1a60f81b8282815181106110425761104261137d565b60200101906001600160f81b031916908160001a90535060049490941c9361106981611393565b9050610ffb565b5083156110bf5760405162461bcd60e51b815260206004820181905260248201527f537472696e67733a20686578206c656e67746820696e73756666696369656e74604482015260640161047e565b9392505050565b6000602082840312156110d857600080fd5b81356001600160e01b0319811681146110bf57600080fd5b60006020828403121561110257600080fd5b5035919050565b80356001600160a01b038116811461112057600080fd5b919050565b6000806040838503121561113857600080fd5b8235915061114860208401611109565b90509250929050565b60008060006060848603121561116657600080fd5b505081359360208301359350604090920135919050565b6000806000806080858703121561119357600080fd5b8435935060208501359250604085013591506111b160608601611109565b905092959194509250565b805169ffffffffffffffffffff8116811461112057600080fd5b600080600080600060a086880312156111ee57600080fd5b6111f7866111bc565b945060208601519350604086015192506060860151915061121a608087016111bc565b90509295509295909350565b634e487b7160e01b600052601160045260246000fd5b818103818111156103f9576103f9611226565b80820281158282048414176103f9576103f9611226565b60008261128357634e487b7160e01b600052601260045260246000fd5b500490565b60005b838110156112a357818101518382015260200161128b565b50506000910152565b7f416363657373436f6e74726f6c3a206163636f756e74200000000000000000008152600083516112e4816017850160208801611288565b7001034b99036b4b9b9b4b733903937b6329607d1b6017918401918201528351611315816028840160208801611288565b01602801949350505050565b6020815260008251806020840152611340816040850160208701611288565b601f01601f19169190910160400192915050565b808201808211156103f9576103f9611226565b634e487b7160e01b600052604160045260246000fd5b634e487b7160e01b600052603260045260246000fd5b6000816113a2576113a2611226565b50600019019056fea49807205ce4d355092ef5a8a18f56e8913cf4a201fbe287825b095693c21775a26469706673582212207668d89d5a02f60b97983765b95bc639266bb575b0c53a103c65021e136e2f1e64736f6c63430008130033",
  "linkReferences": {},
  "deployedLinkReferences": {}
}