{
  "_format": "hh-sol-artifact-1",
  "contractName": "FarmAssetToken",
  "sourceName": "contracts/FarmAssetToken.sol",
  "abi": [
    {
      "inputs": [
        {
          "internalType": "address",
          "name": "_usdcToken",
          "type": "address"
        }
      ],
      "stateMutability": "nonpayable",
      "type": "constructor"
    },
    {
      "anonymous": false,
      "inputs": [
        {
          "indexed": true,
          "internalType": "address",
          "name": "account",
          "type": "address"
        },
        {
          "indexed": true,
          "internalType": "address",
          "name": "operator",
          "type": "address"
        },
        {
          "indexed": false,
          "internalType": "bool",
          "name": "approved",
          "type": "bool"
        }
      ],
      "name": "ApprovalForAll",
      "type": "event"
    },
    {
      "anonymous": false,
      "inputs": [
        {
          "indexed": true,
          "internalType": "uint256",
          "name": "tokenId",
          "type": "uint256"
        },
        {
          "indexed": true,
          "internalType": "address",
          "name": "farmer",
          "type": "address"
        },
        {
          "indexed": false,
          "internalType": "string",
          "name": "name",
          "type": "string"
        },
        {
          "indexed": false,
          "internalType": "enum FarmAssetToken.AssetType",
          "name": "assetType",
          "type": "uint8"
        },
        {
          "indexed": false,
          "internalType": "uint256",
          "name": "quantity",
          "type": "uint256"
        }
      ],
      "name": "AssetTokenized",
      "type": "event"
    },
    {
      "anonymous": false,
      "inputs": [
        {
          "indexed": true,
          "internalType": "uint256",
          "name": "tokenId",
          "type": "uint256"
        },
        {
          "indexed": true,
          "internalType": "address",
          "name": "from",
          "type": "address"
        },
        {
          "indexed": true,
          "internalType": "address",
          "name": "to",
          "type": "address"
        },
        {
          "indexed": false,
          "internalType": "uint256",
          "name": "amount",
          "type": "uint256"
        },
        {
          "indexed": false,
          "internalType": "uint256",
          "name": "price",
          "type": "uint256"
        }
      ],
      "name": "AssetTraded",
      "type": "event"
    },
    {
      "anonymous": false,
      "inputs": [
        {
          "indexed": true,
          "internalType": "address",
          "name": "previousOwner",
          "type": "address"
        },
        {
          "indexed": true,
          "internalType": "address",
          "name": "newOwner",
          "type": "address"
        }
      ],
      "name": "OwnershipTransferred",
      "type": "event"
    },
    {
      "anonymous": false,
      "inputs": [
        {
          "indexed": true,
          "internalType": "address",
          "name": "operator",
          "type": "address"
        },
        {
          "indexed": true,
          "internalType": "address",
          "name": "from",
          "type": "address"
        },
        {
          "indexed": true,
          "internalType": "address",
          "name": "to",
          "type": "address"
        },
        {
          "indexed": false,
          "internalType": "uint256[]",
          "name": "ids",
          "type": "uint256[]"
        },
        {
          "indexed": false,
          "internalType": "uint256[]",
          "name": "values",
          "type": "uint256[]"
        }
      ],
      "name": "TransferBatch",
      "type": "event"
    },
    {
      "anonymous": false,
      "inputs": [
        {
          "indexed": true,
          "internalType": "address",
          "name": "operator",
          "type": "address"
        },
        {
          "indexed": true,
          "internalType": "address",
          "name": "from",
          "type": "address"
        },
        {
          "indexed": true,
          "internalType": "address",
          "name": "to",
          "type": "address"
        },
        {
          "indexed": false,
          "internalType": "uint256",
          "name": "id",
          "type": "uint256"
        },
        {
          "indexed": false,
          "internalType": "uint256",
          "name": "value",
          "type": "uint256"
        }
      ],
      "name": "TransferSingle",
      "type": "event"
    },
    {
      "anonymous": false,
      "inputs": [
        {
          "indexed": false,
          "internalType": "string",
          "name": "value",
          "type": "string"
        },
        {
          "indexed": true,
          "internalType": "uint256",
          "name": "id",
          "type": "uint256"
        }
      ],
      "name": "URI",
      "type": "event"
    },
    {
      "inputs": [
        {
          "internalType": "uint256",
          "name": "",
          "type": "uint256"
        }
      ],
      "name": "assets",
      "outputs": [
        {
          "internalType": "string",
          "name": "name",
          "type": "string"
        },
        {
          "internalType": "enum FarmAssetToken.AssetType",
          "name": "assetType",
          "type": "uint8"
        },
        {
          "internalType": "uint256",
          "name": "price",
          "type": "uint256"
        },
        {
          "internalType": "address",
          "name": "farmer",
          "type": "address"
        },
        {
          "internalType": "uint256",
          "name": "quantity",
          "type": "uint256"
        },
        {
          "internalType": "uint256",
          "name": "maturityDate",
          "type": "uint256"
        },
        {
          "internalType": "bool",
          "name": "isInsured",
          "type": "bool"
        }
      ],
      "stateMutability": "view",
      "type": "function"
    },
    {
      "inputs": [
        {
          "internalType": "address",
          "name": "account",
          "type": "address"
        },
        {
          "internalType": "uint256",
          "name": "id",
          "type": "uint256"
        }
      ],
      "name": "balanceOf",
      "outputs": [
        {
          "internalType": "uint256",
          "name": "",
          "type": "uint256"
        }
      ],
      "stateMutability": "view",
      "type": "function"
    },
    {
      "inputs": [
        {
          "internalType": "address[]",
          "name": "accounts",
          "type": "address[]"
        },
        {
          "internalType": "uint256[]",
          "name": "ids",
          "type": "uint256[]"
        }
      ],
      "name": "balanceOfBatch",
      "outputs": [
        {
          "internalType": "uint256[]",
          "name": "",
          "type": "uint256[]"
        }
      ],
      "stateMutability": "view",
      "type": "function"
    },
    {
      "inputs": [
        {
          "internalType": "uint256",
          "name": "tokenId",
          "type": "uint256"
        }
      ],
      "name": "getAssetDetails",
      "outputs": [
        {
          "internalType": "string",
          "name": "name",
          "type": "string"
        },
        {
          "internalType": "enum FarmAssetToken.AssetType",
          "name": "assetType",
          "type": "uint8"
        },
        {
          "internalType": "uint256",
          "name": "price",
          "type": "uint256"
        },
        {
          "internalType": "address",
          "name": "farmer",
          "type": "address"
        },
        {
          "internalType": "uint256",
          "name": "quantity",
          "type": "uint256"
        },
        {
          "internalType": "uint256",
          "name": "maturityDate",
          "type": "uint256"
        },
        {
          "internalType": "bool",
          "name": "isInsured",
          "type": "bool"
        }
      ],
      "stateMutability": "view",
      "type": "function"
    },
    {
      "inputs": [
        {
          "internalType": "address",
          "name": "account",
          "type": "address"
        },
        {
          "internalType": "address",
          "name": "operator",
          "type": "address"
        }
      ],
      "name": "isApprovedForAll",
      "outputs": [
        {
          "internalType": "bool",
          "name": "",
          "type": "bool"
        }
      ],
      "stateMutability": "view",
      "type": "function"
    },
    {
      "inputs": [],
      "name": "owner",
      "outputs": [
        {
          "internalType": "address",
          "name": "",
          "type": "address"
        }
      ],
      "stateMutability": "view",
      "type": "function"
    },
    {
      "inputs": [],
      "name": "renounceOwnership",
      "outputs": [],
      "stateMutability": "nonpayable",
      "type": "function"
    },
    {
      "inputs": [
        {
          "internalType": "address",
          "name": "from",
          "type": "address"
        },
        {
          "internalType": "address",
          "name": "to",
          "type": "address"
        },
        {
          "internalType": "uint256[]",
          "name": "ids",
          "type": "uint256[]"
        },
        {
          "internalType": "uint256[]",
          "name": "amounts",
          "type": "uint256[]"
        },
        {
          "internalType": "bytes",
          "name": "data",
          "type": "bytes"
        }
      ],
      "name": "safeBatchTransferFrom",
      "outputs": [],
      "stateMutability": "nonpayable",
      "type": "function"
    },
    {
      "inputs": [
        {
          "internalType": "address",
          "name": "from",
          "type": "address"
        },
        {
          "internalType": "address",
          "name": "to",
          "type": "address"
        },
        {
          "internalType": "uint256",
          "name": "id",
          "type": "uint256"
        },
        {
          "internalType": "uint256",
          "name": "amount",
          "type": "uint256"
        },
        {
          "internalType": "bytes",
          "name": "data",
          "type": "bytes"
        }
      ],
      "name": "safeTransferFrom",
      "outputs": [],
      "stateMutability": "nonpayable",
      "type": "function"
    },
    {
      "inputs": [
        {
          "internalType": "address",
          "name": "operator",
          "type": "address"
        },
        {
          "internalType": "bool",
          "name": "approved",
          "type": "bool"
        }
      ],
      "name": "setApprovalForAll",
      "outputs": [],
      "stateMutability": "nonpayable",
      "type": "function"
    },
    {
      "inputs": [
        {
          "internalType": "uint256",
          "name": "tokenId",
          "type": "uint256"
        },
        {
          "internalType": "bool",
          "name": "insured",
          "type": "bool"
        }
      ],
      "name": "setInsurance",
      "outputs": [],
      "stateMutability": "nonpayable",
      "type": "function"
    },
    {
      "inputs": [
        {
          "internalType": "string",
          "name": "newuri",
          "type": "string"
        }
      ],
      "name": "setURI",
      "outputs": [],
      "stateMutability": "nonpayable",
      "type": "function"
    },
    {
      "inputs": [
        {
          "internalType": "bytes4",
          "name": "interfaceId",
          "type": "bytes4"
        }
      ],
      "name": "supportsInterface",
      "outputs": [
        {
          "internalType": "bool",
          "name": "",
          "type": "bool"
        }
      ],
      "stateMutability": "view",
      "type": "function"
    },
    {
      "inputs": [
        {
          "internalType": "string",
          "name": "name",
          "type": "string"
        },
        {
          "internalType": "enum FarmAssetToken.AssetType",
          "name": "assetType",
          "type": "uint8"
        },
        {
          "internalType": "uint256",
          "name": "price",
          "type": "uint256"
        },
        {
          "internalType": "uint256",
          "name": "quantity",
          "type": "uint256"
        },
        {
          "internalType": "uint256",
          "name": "maturityDays",
          "type": "uint256"
        }
      ],
      "name": "tokenizeAsset",
      "outputs": [
        {
          "internalType": "uint256",
          "name": "",
          "type": "uint256"
        }
      ],
      "stateMutability": "nonpayable",
      "type": "function"
    },
    {
      "inputs": [
        {
          "internalType": "address",
          "name": "newOwner",
          "type": "address"
        }
      ],
      "name": "transferOwnership",
      "outputs": [],
      "stateMutability": "nonpayable",
      "type": "function"
    },
    {
      "inputs": [
        {
          "internalType": "uint256",
          "name": "tokenId",
          "type": "uint256"
        },
        {
          "internalType": "uint256",
          "name": "newPrice",
          "type": "uint256"
        }
      ],
      "name": "updatePrice",
      "outputs": [],
      "stateMutability": "nonpayable",
      "type": "function"
    },
    {
      "inputs": [
        {
          "internalType": "uint256",
          "name": "tokenId",
          "type": "uint256"
        }
      ],
      "name": "uri",
      "outputs": [
        {
          "internalType": "string",
          "name": "",
          "type": "string"
        }
      ],
      "stateMutability": "view",
      "type": "function"
    },
    {
      "inputs": [],
      "name": "usdcToken",
      "outputs": [
        {
          "internalType": "address",
          "name": "",
          "type": "address"
        }
      ],
      "stateMutability": "view",
      "type": "function"
    }
  ],
  "bytecode": "0x60806040523480156200001157600080fd5b506040516200229f3803806200229f8339810160408190526200003491620000f4565b6040518060600160405280602581526020016200227a60259139620000598162000090565b506200006533620000a2565b6001600455600780546001600160a01b0319166001600160a01b039290921691909117905562000297565b60026200009e8282620001cb565b5050565b600380546001600160a01b038381166001600160a01b0319831681179093556040519116919082907f8be0079c531659141344cd1fd0a4f28419497f9722a3daafe3b4186f6b6457e090600090a35050565b6000602082840312156200010757600080fd5b81516001600160a01b03811681146200011f57600080fd5b9392505050565b634e487b7160e01b600052604160045260246000fd5b600181811c908216806200015157607f821691505b6020821081036200017257634e487b7160e01b600052602260045260246000fd5b50919050565b601f821115620001c657600081815260208120601f850160051c81016020861015620001a15750805b601f850160051c820191505b81811015620001c257828155600101620001ad565b5050505b505050565b81516001600160401b03811115620001e757620001e762000126565b620001ff81620001f884546200013c565b8462000178565b602080601f8311600181146200023757600084156200021e5750858301515b600019600386901b1c1916600185901b178555620001c2565b600085815260208120601f198616915b82811015620002685788860151825594840194600190910190840162000247565b5085821015620002875787850151600019600388901b60f8161c191681555b5050505050600190811b01905550565b611fd380620002a76000396000f3fe608060405234801561001057600080fd5b50600436106101155760003560e01c806382367b2d116100a2578063cf35bdd011610071578063cf35bdd01461026e578063e985e9c514610281578063f242432a146102bd578063f2fde38b146102d0578063fd54c283146102e357600080fd5b806382367b2d146102115780638da5cb5b14610224578063a1f24b3d14610235578063a22cb4651461025b57600080fd5b806311eac855116100e957806311eac855146101985780632eb2c2d6146101c35780634e1273f4146101d65780636bc286fe146101f6578063715018a61461020957600080fd5b8062fdd58e1461011a57806301ffc9a71461014057806302fe5305146101635780630e89341c14610178575b600080fd5b61012d6101283660046114b9565b6102f6565b6040519081526020015b60405180910390f35b61015361014e3660046114f9565b61038f565b6040519015158152602001610137565b6101766101713660046115d4565b6103df565b005b61018b610186366004611611565b6103f3565b6040516101379190611670565b6007546101ab906001600160a01b031681565b6040516001600160a01b039091168152602001610137565b6101766101d1366004611718565b6103fe565b6101e96101e43660046117c2565b61044a565b60405161013791906118c8565b61012d6102043660046118db565b610574565b61017661076b565b61017661021f366004611949565b61077f565b6003546001600160a01b03166101ab565b610248610243366004611611565b6107fd565b60405161013797969594939291906119a3565b610176610269366004611a09565b610972565b61024861027c366004611611565b610981565b61015361028f366004611a3c565b6001600160a01b03918216600090815260016020908152604080832093909416825291909152205460ff1690565b6101766102cb366004611a66565b610a55565b6101766102de366004611acb565b610a9a565b6101766102f1366004611ae6565b610b10565b60006001600160a01b0383166103665760405162461bcd60e51b815260206004820152602a60248201527f455243313135353a2061646472657373207a65726f206973206e6f742061207660448201526930b634b21037bbb732b960b11b60648201526084015b60405180910390fd5b506000818152602081815260408083206001600160a01b03861684529091529020545b92915050565b60006001600160e01b03198216636cdb3d1360e11b14806103c057506001600160e01b031982166303a24d0760e21b145b8061038957506301ffc9a760e01b6001600160e01b0319831614610389565b6103e7610b9c565b6103f081610bf6565b50565b606061038982610c02565b6001600160a01b03851633148061041a575061041a853361028f565b6104365760405162461bcd60e51b815260040161035d90611b09565b6104438585858585610c96565b5050505050565b606081518351146104af5760405162461bcd60e51b815260206004820152602960248201527f455243313135353a206163636f756e747320616e6420696473206c656e677468604482015268040dad2e6dac2e8c6d60bb1b606482015260840161035d565b6000835167ffffffffffffffff8111156104cb576104cb61151d565b6040519080825280602002602001820160405280156104f4578160200160208202803683370190505b50905060005b845181101561056c5761053f85828151811061051857610518611b57565b602002602001015185838151811061053257610532611b57565b60200260200101516102f6565b82828151811061055157610551611b57565b602090810291909101015261056581611b83565b90506104fa565b509392505050565b600061057e610e73565b600083116105ce5760405162461bcd60e51b815260206004820152601960248201527f5175616e74697479206d75737420626520706f73697469766500000000000000604482015260640161035d565b60068054600091826105df83611b83565b90915550905060006105f48462015180611b9c565b6105fe9042611bb3565b90506040518060e001604052808981526020018860028111156106235761062361196b565b81526020808201899052336040808401919091526060830189905260808301859052600060a090930183905285835260059091529020815181906106679082611c4b565b50602082015160018083018054909160ff199091169083600281111561068f5761068f61196b565b0217905550604082810151600283015560608301516003830180546001600160a01b0319166001600160a01b039092169190911790556080830151600483015560a0830151600583015560c0909201516006909101805460ff19169115159190911790558051602081019091526000815261070f90339084908890610ecc565b336001600160a01b0316827fff6f19e918254011349f44b15cfe84c4c358be379281a374fa7f7461229592af8a8a8960405161074d93929190611d0b565b60405180910390a35090506107626001600455565b95945050505050565b610773610b9c565b61077d6000610fe0565b565b6000828152600560205260409020600301546001600160a01b031633146107e85760405162461bcd60e51b815260206004820152601c60248201527f4f6e6c79206661726d65722063616e2075706461746520707269636500000000604482015260640161035d565b60009182526005602052604090912060020155565b60606000806000806000806000600560008a81526020019081526020016000206040518060e001604052908160008201805461083890611bc6565b80601f016020809104026020016040519081016040528092919081815260200182805461086490611bc6565b80156108b15780601f10610886576101008083540402835291602001916108b1565b820191906000526020600020905b81548152906001019060200180831161089457829003601f168201915b5050509183525050600182015460209091019060ff1660028111156108d8576108d861196b565b60028111156108e9576108e961196b565b8152600282015460208083019190915260038301546001600160a01b03166040808401919091526004840154606080850191909152600585015460808086019190915260069095015460ff16151560a0948501528551928601519186015190860151948601519386015160c090960151929f919e509c50929a5090985091965090945092505050565b61097d338383611032565b5050565b60056020526000908152604090208054819061099c90611bc6565b80601f01602080910402602001604051908101604052809291908181526020018280546109c890611bc6565b8015610a155780601f106109ea57610100808354040283529160200191610a15565b820191906000526020600020905b8154815290600101906020018083116109f857829003601f168201915b5050505060018301546002840154600385015460048601546005870154600690970154959660ff948516969395506001600160a01b039092169390921687565b6001600160a01b038516331480610a715750610a71853361028f565b610a8d5760405162461bcd60e51b815260040161035d90611b09565b6104438585858585611112565b610aa2610b9c565b6001600160a01b038116610b075760405162461bcd60e51b815260206004820152602660248201527f4f776e61626c653a206e6577206f776e657220697320746865207a65726f206160448201526564647265737360d01b606482015260840161035d565b6103f081610fe0565b6000828152600560205260409020600301546001600160a01b03163314610b795760405162461bcd60e51b815260206004820152601d60248201527f4f6e6c79206661726d65722063616e2073657420696e737572616e6365000000604482015260640161035d565b600091825260056020526040909120600601805460ff1916911515919091179055565b6003546001600160a01b0316331461077d5760405162461bcd60e51b815260206004820181905260248201527f4f776e61626c653a2063616c6c6572206973206e6f7420746865206f776e6572604482015260640161035d565b600261097d8282611c4b565b606060028054610c1190611bc6565b80601f0160208091040260200160405190810160405280929190818152602001828054610c3d90611bc6565b8015610c8a5780601f10610c5f57610100808354040283529160200191610c8a565b820191906000526020600020905b815481529060010190602001808311610c6d57829003601f168201915b50505050509050919050565b8151835114610cf85760405162461bcd60e51b815260206004820152602860248201527f455243313135353a2069647320616e6420616d6f756e7473206c656e677468206044820152670dad2e6dac2e8c6d60c31b606482015260840161035d565b6001600160a01b038416610d1e5760405162461bcd60e51b815260040161035d90611d3b565b3360005b8451811015610e05576000858281518110610d3f57610d3f611b57565b602002602001015190506000858381518110610d5d57610d5d611b57565b602090810291909101810151600084815280835260408082206001600160a01b038e168352909352919091205490915081811015610dad5760405162461bcd60e51b815260040161035d90611d80565b6000838152602081815260408083206001600160a01b038e8116855292528083208585039055908b16825281208054849290610dea908490611bb3565b9250508190555050505080610dfe90611b83565b9050610d22565b50846001600160a01b0316866001600160a01b0316826001600160a01b03167f4a39dc06d4c0dbc64b70af90fd698a233a518aa5d07e595d983b8c0526c8f7fb8787604051610e55929190611dca565b60405180910390a4610e6b81878787878761123c565b505050505050565b600260045403610ec55760405162461bcd60e51b815260206004820152601f60248201527f5265656e7472616e637947756172643a207265656e7472616e742063616c6c00604482015260640161035d565b6002600455565b6001600160a01b038416610f2c5760405162461bcd60e51b815260206004820152602160248201527f455243313135353a206d696e7420746f20746865207a65726f206164647265736044820152607360f81b606482015260840161035d565b336000610f3885611397565b90506000610f4585611397565b90506000868152602081815260408083206001600160a01b038b16845290915281208054879290610f77908490611bb3565b909155505060408051878152602081018790526001600160a01b03808a1692600092918716917fc3d58168c5ae7397731d063d5bbf3d657854427343f4c083240f7aacaa2d0f62910160405180910390a4610fd7836000898989896113e2565b50505050505050565b600380546001600160a01b038381166001600160a01b0319831681179093556040519116919082907f8be0079c531659141344cd1fd0a4f28419497f9722a3daafe3b4186f6b6457e090600090a35050565b816001600160a01b0316836001600160a01b0316036110a55760405162461bcd60e51b815260206004820152602960248201527f455243313135353a2073657474696e6720617070726f76616c20737461747573604482015268103337b91039b2b63360b91b606482015260840161035d565b6001600160a01b03838116600081815260016020908152604080832094871680845294825291829020805460ff191686151590811790915591519182527f17307eab39ab6107e8899845ad3d59bd9653f200f220920489ca2b5937696c31910160405180910390a3505050565b6001600160a01b0384166111385760405162461bcd60e51b815260040161035d90611d3b565b33600061114485611397565b9050600061115185611397565b90506000868152602081815260408083206001600160a01b038c168452909152902054858110156111945760405162461bcd60e51b815260040161035d90611d80565b6000878152602081815260408083206001600160a01b038d8116855292528083208985039055908a168252812080548892906111d1908490611bb3565b909155505060408051888152602081018890526001600160a01b03808b16928c821692918816917fc3d58168c5ae7397731d063d5bbf3d657854427343f4c083240f7aacaa2d0f62910160405180910390a4611231848a8a8a8a8a6113e2565b505050505050505050565b6001600160a01b0384163b15610e6b5760405163bc197c8160e01b81526001600160a01b0385169063bc197c81906112809089908990889088908890600401611def565b6020604051808303816000875af19250505080156112bb575060408051601f3d908101601f191682019092526112b891810190611e4d565b60015b611367576112c7611e6a565b806308c379a00361130057506112db611e86565b806112e65750611302565b8060405162461bcd60e51b815260040161035d9190611670565b505b60405162461bcd60e51b815260206004820152603460248201527f455243313135353a207472616e7366657220746f206e6f6e2d455243313135356044820152732932b1b2b4bb32b91034b6b83632b6b2b73a32b960611b606482015260840161035d565b6001600160e01b0319811663bc197c8160e01b14610fd75760405162461bcd60e51b815260040161035d90611f10565b604080516001808252818301909252606091600091906020808301908036833701905050905082816000815181106113d1576113d1611b57565b602090810291909101015292915050565b6001600160a01b0384163b15610e6b5760405163f23a6e6160e01b81526001600160a01b0385169063f23a6e61906114269089908990889088908890600401611f58565b6020604051808303816000875af1925050508015611461575060408051601f3d908101601f1916820190925261145e91810190611e4d565b60015b61146d576112c7611e6a565b6001600160e01b0319811663f23a6e6160e01b14610fd75760405162461bcd60e51b815260040161035d90611f10565b80356001600160a01b03811681146114b457600080fd5b919050565b600080604083850312156114cc57600080fd5b6114d58361149d565b946020939093013593505050565b6001600160e01b0319811681146103f057600080fd5b60006020828403121561150b57600080fd5b8135611516816114e3565b9392505050565b634e487b7160e01b600052604160045260246000fd5b601f8201601f1916810167ffffffffffffffff811182821017156115595761155961151d565b6040525050565b600082601f83011261157157600080fd5b813567ffffffffffffffff81111561158b5761158b61151d565b6040516115a2601f8301601f191660200182611533565b8181528460208386010111156115b757600080fd5b816020850160208301376000918101602001919091529392505050565b6000602082840312156115e657600080fd5b813567ffffffffffffffff8111156115fd57600080fd5b61160984828501611560565b949350505050565b60006020828403121561162357600080fd5b5035919050565b6000815180845260005b8181101561165057602081850181015186830182015201611634565b506000602082860101526020601f19601f83011685010191505092915050565b602081526000611516602083018461162a565b600067ffffffffffffffff82111561169d5761169d61151d565b5060051b60200190565b600082601f8301126116b857600080fd5b813560206116c582611683565b6040516116d28282611533565b83815260059390931b85018201928281019150868411156116f257600080fd5b8286015b8481101561170d57803583529183019183016116f6565b509695505050505050565b600080600080600060a0868803121561173057600080fd5b6117398661149d565b94506117476020870161149d565b9350604086013567ffffffffffffffff8082111561176457600080fd5b61177089838a016116a7565b9450606088013591508082111561178657600080fd5b61179289838a016116a7565b935060808801359150808211156117a857600080fd5b506117b588828901611560565b9150509295509295909350565b600080604083850312156117d557600080fd5b823567ffffffffffffffff808211156117ed57600080fd5b818501915085601f83011261180157600080fd5b8135602061180e82611683565b60405161181b8282611533565b83815260059390931b850182019282810191508984111561183b57600080fd5b948201945b83861015611860576118518661149d565b82529482019490820190611840565b9650508601359250508082111561187657600080fd5b50611883858286016116a7565b9150509250929050565b600081518084526020808501945080840160005b838110156118bd578151875295820195908201906001016118a1565b509495945050505050565b602081526000611516602083018461188d565b600080600080600060a086880312156118f357600080fd5b853567ffffffffffffffff81111561190a57600080fd5b61191688828901611560565b95505060208601356003811061192b57600080fd5b94979496505050506040830135926060810135926080909101359150565b6000806040838503121561195c57600080fd5b50508035926020909101359150565b634e487b7160e01b600052602160045260246000fd5b6003811061199f57634e487b7160e01b600052602160045260246000fd5b9052565b60e0815260006119b660e083018a61162a565b90506119c56020830189611981565b60408201969096526001600160a01b03949094166060850152608084019290925260a0830152151560c09091015292915050565b803580151581146114b457600080fd5b60008060408385031215611a1c57600080fd5b611a258361149d565b9150611a33602084016119f9565b90509250929050565b60008060408385031215611a4f57600080fd5b611a588361149d565b9150611a336020840161149d565b600080600080600060a08688031215611a7e57600080fd5b611a878661149d565b9450611a956020870161149d565b93506040860135925060608601359150608086013567ffffffffffffffff811115611abf57600080fd5b6117b588828901611560565b600060208284031215611add57600080fd5b6115168261149d565b60008060408385031215611af957600080fd5b82359150611a33602084016119f9565b6020808252602e908201527f455243313135353a2063616c6c6572206973206e6f7420746f6b656e206f776e60408201526d195c881bdc88185c1c1c9bdd995960921b606082015260800190565b634e487b7160e01b600052603260045260246000fd5b634e487b7160e01b600052601160045260246000fd5b600060018201611b9557611b95611b6d565b5060010190565b808202811582820484141761038957610389611b6d565b8082018082111561038957610389611b6d565b600181811c90821680611bda57607f821691505b602082108103611bfa57634e487b7160e01b600052602260045260246000fd5b50919050565b601f821115611c4657600081815260208120601f850160051c81016020861015611c275750805b601f850160051c820191505b81811015610e6b57828155600101611c33565b505050565b815167ffffffffffffffff811115611c6557611c6561151d565b611c7981611c738454611bc6565b84611c00565b602080601f831160018114611cae5760008415611c965750858301515b600019600386901b1c1916600185901b178555610e6b565b600085815260208120601f198616915b82811015611cdd57888601518255948401946001909101908401611cbe565b5085821015611cfb5787850151600019600388901b60f8161c191681555b5050505050600190811b01905550565b606081526000611d1e606083018661162a565b9050611d2d6020830185611981565b826040830152949350505050565b60208082526025908201527f455243313135353a207472616e7366657220746f20746865207a65726f206164604082015264647265737360d81b606082015260800190565b6020808252602a908201527f455243313135353a20696e73756666696369656e742062616c616e636520666f60408201526939103a3930b739b332b960b11b606082015260800190565b604081526000611ddd604083018561188d565b8281036020840152610762818561188d565b6001600160a01b0386811682528516602082015260a060408201819052600090611e1b9083018661188d565b8281036060840152611e2d818661188d565b90508281036080840152611e41818561162a565b98975050505050505050565b600060208284031215611e5f57600080fd5b8151611516816114e3565b600060033d1115611e835760046000803e5060005160e01c5b90565b600060443d1015611e945790565b6040516003193d81016004833e81513d67ffffffffffffffff8160248401118184111715611ec457505050505090565b8285019150815181811115611edc5750505050505090565b843d8701016020828501011115611ef65750505050505090565b611f0560208286010187611533565b509095945050505050565b60208082526028908201527f455243313135353a204552433131353552656365697665722072656a656374656040820152676420746f6b656e7360c01b606082015260800190565b6001600160a01b03868116825285166020820152604081018490526060810183905260a060808201819052600090611f929083018461162a565b97965050505050505056fea264697066735822122098aad7688a12dbe7b27dd46faa89ee30221801e1bbd752577d11686448af664064736f6c6343000813003368747470733a2f2f6170692e646166692e636f6d2f6173736574732f7b69647d2e6a736f6e",
  "linkReferences": {},
  "deployedLinkReferences": {}
}