{
  "_format": "hh-sol-artifact-1",
  "contractName": "YieldFarming",
  "sourceName": "contracts/YieldFarming.sol",
  "abi": [
    {
      "inputs": [],
      "stateMutability": "nonpayable",
      "type": "constructor"
    },
    {
      "anonymous": false,
      "inputs": [
        {
          "indexed": true,
          "internalType": "address",
          "name": "previousOwner",
          "type": "address"
        },
        {
          "indexed": true,
          "internalType": "address",
          "name": "newOwner",
          "type": "address"
        }
      ],
      "name": "OwnershipTransferred",
      "type": "event"
    },
    {
      "anonymous": false,
      "inputs": [
        {
          "indexed": true,
          "internalType": "uint256",
          "name": "poolId",
          "type": "uint256"
        },
        {
          "indexed": false,
          "internalType": "address",
          "name": "stakingToken",
          "type": "address"
        },
        {
          "indexed": false,
          "internalType": "address",
          "name": "rewardToken",
          "type": "address"
        }
      ],
      "name": "PoolCreated",
      "type": "event"
    },
    {
      "anonymous": false,
      "inputs": [
        {
          "indexed": true,
          "internalType": "uint256",
          "name": "poolId",
          "type": "uint256"
        },
        {
          "indexed": false,
          "internalType": "uint256",
          "name": "rewardRate",
          "type": "uint256"
        }
      ],
      "name": "PoolUpdated",
      "type": "event"
    },
    {
      "anonymous": false,
      "inputs": [
        {
          "indexed": true,
          "internalType": "uint256",
          "name": "poolId",
          "type": "uint256"
        },
        {
          "indexed": true,
          "internalType": "address",
          "name": "user",
          "type": "address"
        },
        {
          "indexed": false,
          "internalType": "uint256",
          "name": "amount",
          "type": "uint256"
        }
      ],
      "name": "RewardsClaimed",
      "type": "event"
    },
    {
      "anonymous": false,
      "inputs": [
        {
          "indexed": true,
          "internalType": "uint256",
          "name": "poolId",
          "type": "uint256"
        },
        {
          "indexed": true,
          "internalType": "address",
          "name": "user",
          "type": "address"
        },
        {
          "indexed": false,
          "internalType": "uint256",
          "name": "amount",
          "type": "uint256"
        }
      ],
      "name": "Staked",
      "type": "event"
    },
    {
      "anonymous": false,
      "inputs": [
        {
          "indexed": true,
          "internalType": "uint256",
          "name": "poolId",
          "type": "uint256"
        },
        {
          "indexed": true,
          "internalType": "address",
          "name": "user",
          "type": "address"
        },
        {
          "indexed": false,
          "internalType": "uint256",
          "name": "amount",
          "type": "uint256"
        }
      ],
      "name": "Withdrawn",
      "type": "event"
    },
    {
      "inputs": [],
      "name": "REWARD_PRECISION",
      "outputs": [
        {
          "internalType": "uint256",
          "name": "",
          "type": "uint256"
        }
      ],
      "stateMutability": "view",
      "type": "function"
    },
    {
      "inputs": [
        {
          "internalType": "uint256",
          "name": "poolId",
          "type": "uint256"
        },
        {
          "internalType": "address",
          "name": "user",
          "type": "address"
        }
      ],
      "name": "calculateRewards",
      "outputs": [
        {
          "internalType": "uint256",
          "name": "",
          "type": "uint256"
        }
      ],
      "stateMutability": "view",
      "type": "function"
    },
    {
      "inputs": [
        {
          "internalType": "uint256",
          "name": "poolId",
          "type": "uint256"
        }
      ],
      "name": "claimRewards",
      "outputs": [],
      "stateMutability": "nonpayable",
      "type": "function"
    },
    {
      "inputs": [
        {
          "internalType": "address",
          "name": "_stakingToken",
          "type": "address"
        },
        {
          "internalType": "address",
          "name": "_rewardToken",
          "type": "address"
        },
        {
          "internalType": "uint256",
          "name": "_rewardRate",
          "type": "uint256"
        }
      ],
      "name": "createPool",
      "outputs": [
        {
          "internalType": "uint256",
          "name": "",
          "type": "uint256"
        }
      ],
      "stateMutability": "nonpayable",
      "type": "function"
    },
    {
      "inputs": [
        {
          "internalType": "uint256",
          "name": "poolId",
          "type": "uint256"
        }
      ],
      "name": "emergencyWithdraw",
      "outputs": [],
      "stateMutability": "nonpayable",
      "type": "function"
    },
    {
      "inputs": [
        {
          "internalType": "uint256",
          "name": "poolId",
          "type": "uint256"
        },
        {
          "internalType": "address",
          "name": "user",
          "type": "address"
        }
      ],
      "name": "getUserInfo",
      "outputs": [
        {
          "components": [
            {
              "internalType": "uint256",
              "name": "stakedAmount",
              "type": "uint256"
            },
            {
              "internalType": "uint256",
              "name": "rewardDebt",
              "type": "uint256"
            },
            {
              "internalType": "uint256",
              "name": "lastUpdateTime",
              "type": "uint256"
            },
            {
              "internalType": "uint256",
              "name": "unclaimedRewards",
              "type": "uint256"
            }
          ],
          "internalType": "struct YieldFarming.UserInfo",
          "name": "",
          "type": "tuple"
        }
      ],
      "stateMutability": "view",
      "type": "function"
    },
    {
      "inputs": [],
      "name": "lockPeriod",
      "outputs": [
        {
          "internalType": "uint256",
          "name": "",
          "type": "uint256"
        }
      ],
      "stateMutability": "view",
      "type": "function"
    },
    {
      "inputs": [],
      "name": "owner",
      "outputs": [
        {
          "internalType": "address",
          "name": "",
          "type": "address"
        }
      ],
      "stateMutability": "view",
      "type": "function"
    },
    {
      "inputs": [],
      "name": "poolCount",
      "outputs": [
        {
          "internalType": "uint256",
          "name": "",
          "type": "uint256"
        }
      ],
      "stateMutability": "view",
      "type": "function"
    },
    {
      "inputs": [
        {
          "internalType": "uint256",
          "name": "",
          "type": "uint256"
        }
      ],
      "name": "pools",
      "outputs": [
        {
          "internalType": "contract IERC20",
          "name": "stakingToken",
          "type": "address"
        },
        {
          "internalType": "contract IERC20",
          "name": "rewardToken",
          "type": "address"
        },
        {
          "internalType": "uint256",
          "name": "rewardRate",
          "type": "uint256"
        },
        {
          "internalType": "uint256",
          "name": "lastUpdateTime",
          "type": "uint256"
        },
        {
          "internalType": "uint256",
          "name": "rewardPerTokenStored",
          "type": "uint256"
        },
        {
          "internalType": "uint256",
          "name": "totalStaked",
          "type": "uint256"
        },
        {
          "internalType": "bool",
          "name": "active",
          "type": "bool"
        }
      ],
      "stateMutability": "view",
      "type": "function"
    },
    {
      "inputs": [],
      "name": "renounceOwnership",
      "outputs": [],
      "stateMutability": "nonpayable",
      "type": "function"
    },
    {
      "inputs": [
        {
          "internalType": "uint256",
          "name": "_lockPeriod",
          "type": "uint256"
        }
      ],
      "name": "setLockPeriod",
      "outputs": [],
      "stateMutability": "nonpayable",
      "type": "function"
    },
    {
      "inputs": [
        {
          "internalType": "uint256",
          "name": "poolId",
          "type": "uint256"
        },
        {
          "internalType": "uint256",
          "name": "amount",
          "type": "uint256"
        }
      ],
      "name": "stake",
      "outputs": [],
      "stateMutability": "nonpayable",
      "type": "function"
    },
    {
      "inputs": [
        {
          "internalType": "address",
          "name": "newOwner",
          "type": "address"
        }
      ],
      "name": "transferOwnership",
      "outputs": [],
      "stateMutability": "nonpayable",
      "type": "function"
    },
    {
      "inputs": [
        {
          "internalType": "uint256",
          "name": "poolId",
          "type": "uint256"
        }
      ],
      "name": "updatePool",
      "outputs": [],
      "stateMutability": "nonpayable",
      "type": "function"
    },
    {
      "inputs": [
        {
          "internalType": "uint256",
          "name": "poolId",
          "type": "uint256"
        },
        {
          "internalType": "uint256",
          "name": "_rewardRate",
          "type": "uint256"
        }
      ],
      "name": "updateRewardRate",
      "outputs": [],
      "stateMutability": "nonpayable",
      "type": "function"
    },
    {
      "inputs": [
        {
          "internalType": "uint256",
          "name": "",
          "type": "uint256"
        },
        {
          "internalType": "address",
          "name": "",
          "type": "address"
        }
      ],
      "name": "userInfo",
      "outputs": [
        {
          "internalType": "uint256",
          "name": "stakedAmount",
          "type": "uint256"
        },
        {
          "internalType": "uint256",
          "name": "rewardDebt",
          "type": "uint256"
        },
        {
          "internalType": "uint256",
          "name": "lastUpdateTime",
          "type": "uint256"
        },
        {
          "internalType": "uint256",
          "name": "unclaimedRewards",
          "type": "uint256"
        }
      ],
      "stateMutability": "view",
      "type": "function"
    },
    {
      "inputs": [
        {
          "internalType": "address",
          "name": "",
          "type": "address"
        }
      ],
      "name": "verifiedFarmers",
      "outputs": [
        {
          "internalType": "bool",
          "name": "",
          "type": "bool"
        }
      ],
      "stateMutability": "view",
      "type": "function"
    },
    {
      "inputs": [
        {
          "internalType": "uint256",
          "name": "poolId",
          "type": "uint256"
        },
        {
          "internalType": "uint256",
          "name": "amount",
          "type": "uint256"
        }
      ],
      "name": "withdraw",
      "outputs": [],
      "stateMutability": "nonpayable",
      "type": "function"
    }
  ],
  "bytecode": "0x608060405262093a8060065534801561001757600080fd5b506100213361002a565b6001805561007a565b600080546001600160a01b038381166001600160a01b0319831681178455604051919092169283917f8be0079c531659141344cd1fd0a4f28419497f9722a3daafe3b4186f6b6457e09190a35050565b6111a3806100896000396000f3fe608060405234801561001057600080fd5b50600436106101215760003560e01c80635312ea8e116100ad57806393f1a40b1161007157806393f1a40b14610284578063ac4afa38146102e3578063b32534cf14610380578063f2fde38b14610393578063f525cb68146103a657600080fd5b80635312ea8e14610228578063715018a61461023b578063779972da146102435780637b0472f0146102565780638da5cb5b1461026957600080fd5b80633d6aa5e1116100f45780633d6aa5e1146101da5780633fd8b02f146101e6578063441a3e70146101ef57806351810fb51461020257806351eb05a61461021557600080fd5b80630962ef79146101265780630c3d272c1461013b5780631069f3b51461017357806317686422146101b9575b600080fd5b610139610134366004610fe3565b6103af565b005b61015e610149366004611018565b60046020526000908152604090205460ff1681565b60405190151581526020015b60405180910390f35b610186610181366004611033565b61051b565b60405161016a91908151815260208083015190820152604080830151908201526060918201519181019190915260800190565b6101cc6101c7366004611033565b61059d565b60405190815260200161016a565b6101cc64e8d4a5100081565b6101cc60065481565b6101396101fd36600461105f565b6106e7565b6101cc610210366004611081565b6108b7565b610139610223366004610fe3565b610a27565b610139610236366004610fe3565b610acf565b610139610bc7565b610139610251366004610fe3565b610bdb565b61013961026436600461105f565b610be8565b6000546040516001600160a01b03909116815260200161016a565b6102c3610292366004611033565b6003602081815260009384526040808520909152918352912080546001820154600283015492909301549092919084565b60408051948552602085019390935291830152606082015260800161016a565b61033e6102f1366004610fe3565b600260208190526000918252604090912080546001820154928201546003830154600484015460058501546006909501546001600160a01b03948516969094169492939192909160ff1687565b604080516001600160a01b039889168152979096166020880152948601939093526060850191909152608084015260a0830152151560c082015260e00161016a565b61013961038e36600461105f565b610dce565b6101396103a1366004611018565b610e33565b6101cc60055481565b6103b7610ea9565b6103c081610a27565b600081815260036020818152604080842033808652908352818520868652600290935290842092820154919391610402916103fc90879061059d565b90610f02565b90506000811161044f5760405162461bcd60e51b81526020600482015260136024820152724e6f207265776172647320746f20636c61696d60681b60448201526064015b60405180910390fd5b60006003840155426002840155600182015460405163a9059cbb60e01b8152336004820152602481018390526001600160a01b039091169063a9059cbb906044016020604051808303816000875af11580156104af573d6000803e3d6000fd5b505050506040513d601f19601f820116820180604052508101906104d391906110bd565b50604051818152339085907f3300bdb359cfb956935bca32e9db727413eab1ca84341f2e36caea85bb796968906020015b60405180910390a350505061051860018055565b50565b6105466040518060800160405280600081526020016000815260200160008152602001600081525090565b5060008281526003602081815260408084206001600160a01b038616855282529283902083516080810185528154815260018201549281019290925260028101549382019390935291015460608201525b92915050565b6000828152600260208181526040808420815160e08101835281546001600160a01b03908116825260018084015482168387015283870154838601526003808501546060808601919091526004860154608080870191909152600587015460a087015260069096015460ff16151560c08601528b8a52818852868a20938b168a5292875285892086519586018752805480875292810154978601979097529686015494840194909452939094015492810192909252830361066357600092505050610597565b600061067c836060015142610f1590919063ffffffff16565b905060006106c26106b78560a001516106b164e8d4a510006106ab896040015188610f2190919063ffffffff16565b90610f21565b90610f2d565b608086015190610f02565b83519091506106dc9064e8d4a51000906106b19084610f21565b979650505050505050565b6106ef610ea9565b6000828152600360209081526040808320338452909152902080548211156107505760405162461bcd60e51b8152602060048201526014602482015273496e73756666696369656e742062616c616e636560601b6044820152606401610446565b600654816002015461076291906110f5565b4210156107a05760405162461bcd60e51b815260206004820152600c60248201526b14dd1a5b1b081b1bd8dad95960a21b6044820152606401610446565b6107a983610a27565b6000838152600260205260408120906107c2853361059d565b60038401549091506107d49082610f02565b600384015582546107e59085610f15565b835560058201546107f69085610f15565b6005830155815460405163a9059cbb60e01b8152336004820152602481018690526001600160a01b039091169063a9059cbb906044016020604051808303816000875af115801561084b573d6000803e3d6000fd5b505050506040513d601f19601f8201168201806040525081019061086f91906110bd565b50604051848152339086907fcf7d23a3cbe4e8b36ff82fd1b05b1b17373dc7804b4ebbd6e2356716ef2023729060200160405180910390a35050506108b360018055565b5050565b60006108c1610f39565b6001600160a01b038416158015906108e157506001600160a01b03831615155b61091e5760405162461bcd60e51b815260206004820152600e60248201526d496e76616c696420746f6b656e7360901b6044820152606401610446565b600580546000918261092f83611108565b909155506040805160e0810182526001600160a01b0388811680835288821660208085018281528587018b8152426060880190815260006080890181815260a08a01828152600160c08c018181528e85526002808a52948e90209c518d546001600160a01b0319908116918e16919091178e559751918d01805490981691909b161790955592519089015551600388015551600487015551600586015592516006909401805460ff19169415159490941790935583519081529081019190915291925082917f1a7a1d16c3ec9167827a7be3534be26288720a0bdd3de56d290f415db3d3e0a6910160405180910390a2949350505050565b600081815260026020526040902060038101544211610a44575050565b8060050154600003610a5a574260039091015550565b6000610a73826003015442610f1590919063ffffffff16565b90506000610a8e836002015483610f2190919063ffffffff16565b9050610abe610ab384600501546106b164e8d4a5100085610f2190919063ffffffff16565b600485015490610f02565b600484015550504260039091015550565b610ad7610ea9565b6000818152600360208181526040808420338552825280842085855260029092528320815484835592820193909355600583015490929190610b199082610f15565b6005830155815460405163a9059cbb60e01b8152336004820152602481018390526001600160a01b039091169063a9059cbb906044016020604051808303816000875af1158015610b6e573d6000803e3d6000fd5b505050506040513d601f19601f82011682018060405250810190610b9291906110bd565b50604051818152339085907fcf7d23a3cbe4e8b36ff82fd1b05b1b17373dc7804b4ebbd6e2356716ef20237290602001610504565b610bcf610f39565b610bd96000610f93565b565b610be3610f39565b600655565b610bf0610ea9565b60008281526002602052604090206006015460ff16610c435760405162461bcd60e51b815260206004820152600f60248201526e506f6f6c206e6f742061637469766560881b6044820152606401610446565b60008111610c935760405162461bcd60e51b815260206004820152601760248201527f416d6f756e74206d75737420626520706f7369746976650000000000000000006044820152606401610446565b610c9c82610a27565b600082815260026020908152604080832060038352818420338552909252909120805415610ce9576000610cd0853361059d565b6003830154909150610ce29082610f02565b6003830155505b81546040516323b872dd60e01b8152336004820152306024820152604481018590526001600160a01b03909116906323b872dd906064016020604051808303816000875af1158015610d3f573d6000803e3d6000fd5b505050506040513d601f19601f82011682018060405250810190610d6391906110bd565b508054610d709084610f02565b81556005820154610d819084610f02565b6005830155426002820155604051838152339085907f18dcd430020e4d4899772fd94a8b40451dc5044dfb70bc46b532eeae431c864f9060200160405180910390a350506108b360018055565b610dd6610f39565b610ddf82610a27565b600082815260026020819052604091829020018290555182907f7fa9647ec1cc14e3822b46d05a2b9d4e019bde8875c0088c46b6503d71bf172290610e279084815260200190565b60405180910390a25050565b610e3b610f39565b6001600160a01b038116610ea05760405162461bcd60e51b815260206004820152602660248201527f4f776e61626c653a206e6577206f776e657220697320746865207a65726f206160448201526564647265737360d01b6064820152608401610446565b61051881610f93565b600260015403610efb5760405162461bcd60e51b815260206004820152601f60248201527f5265656e7472616e637947756172643a207265656e7472616e742063616c6c006044820152606401610446565b6002600155565b6000610f0e82846110f5565b9392505050565b6000610f0e8284611121565b6000610f0e8284611134565b6000610f0e828461114b565b6000546001600160a01b03163314610bd95760405162461bcd60e51b815260206004820181905260248201527f4f776e61626c653a2063616c6c6572206973206e6f7420746865206f776e65726044820152606401610446565b600080546001600160a01b038381166001600160a01b0319831681178455604051919092169283917f8be0079c531659141344cd1fd0a4f28419497f9722a3daafe3b4186f6b6457e09190a35050565b600060208284031215610ff557600080fd5b5035919050565b80356001600160a01b038116811461101357600080fd5b919050565b60006020828403121561102a57600080fd5b610f0e82610ffc565b6000806040838503121561104657600080fd5b8235915061105660208401610ffc565b90509250929050565b6000806040838503121561107257600080fd5b50508035926020909101359150565b60008060006060848603121561109657600080fd5b61109f84610ffc565b92506110ad60208501610ffc565b9150604084013590509250925092565b6000602082840312156110cf57600080fd5b81518015158114610f0e57600080fd5b634e487b7160e01b600052601160045260246000fd5b80820180821115610597576105976110df565b60006001820161111a5761111a6110df565b5060010190565b81810381811115610597576105976110df565b8082028115828204841417610597576105976110df565b60008261116857634e487b7160e01b600052601260045260246000fd5b50049056fea26469706673582212203dff34e8d97a145cc6c9c2e54e836324c49048e6c02e77704cf73d31d46cfde064736f6c63430008130033",
  "linkReferences": {},
  "deployedLinkReferences": {}
}